{
  "address": "0x81a48669f0BfD745a847fcEC7815c172EfEfF67c",
  "abi": [
    {
      "anonymous": false,
      "inputs": [
        {
          "indexed": true,
          "internalType": "bytes32",
          "name": "projectId",
          "type": "bytes32"
        },
        {
          "indexed": true,
          "internalType": "bytes32",
          "name": "strategyType",
          "type": "bytes32"
        },
        {
          "indexed": true,
          "internalType": "bool",
          "name": "isUpdate",
          "type": "bool"
        }
      ],
      "name": "ProjectRegistered",
      "type": "event"
    },
    {
      "anonymous": false,
      "inputs": [
        {
          "indexed": true,
          "internalType": "bytes32",
          "name": "role",
          "type": "bytes32"
        },
        {
          "indexed": true,
          "internalType": "bytes32",
          "name": "previousAdminRole",
          "type": "bytes32"
        },
        {
          "indexed": true,
          "internalType": "bytes32",
          "name": "newAdminRole",
          "type": "bytes32"
        }
      ],
      "name": "RoleAdminChanged",
      "type": "event"
    },
    {
      "anonymous": false,
      "inputs": [
        {
          "indexed": true,
          "internalType": "bytes32",
          "name": "role",
          "type": "bytes32"
        },
        {
          "indexed": true,
          "internalType": "address",
          "name": "account",
          "type": "address"
        },
        {
          "indexed": true,
          "internalType": "address",
          "name": "sender",
          "type": "address"
        }
      ],
      "name": "RoleGranted",
      "type": "event"
    },
    {
      "anonymous": false,
      "inputs": [
        {
          "indexed": true,
          "internalType": "bytes32",
          "name": "role",
          "type": "bytes32"
        },
        {
          "indexed": true,
          "internalType": "address",
          "name": "account",
          "type": "address"
        },
        {
          "indexed": true,
          "internalType": "address",
          "name": "sender",
          "type": "address"
        }
      ],
      "name": "RoleRevoked",
      "type": "event"
    },
    {
      "anonymous": false,
      "inputs": [
        {
          "indexed": true,
          "internalType": "bytes32",
          "name": "strategyType",
          "type": "bytes32"
        },
        {
          "indexed": true,
          "internalType": "contract ISubFactory",
          "name": "subfactory",
          "type": "address"
        }
      ],
      "name": "StrategyTypeAdded",
      "type": "event"
    },
    {
      "anonymous": false,
      "inputs": [
        {
          "indexed": true,
          "internalType": "uint256",
          "name": "vaultId",
          "type": "uint256"
        },
        {
          "indexed": true,
          "internalType": "bytes32",
          "name": "projectId",
          "type": "bytes32"
        },
        {
          "indexed": true,
          "internalType": "bytes32",
          "name": "strategyId",
          "type": "bytes32"
        },
        {
          "indexed": false,
          "internalType": "bool",
          "name": "isUpdate",
          "type": "bool"
        }
      ],
      "name": "VaultRegistered",
      "type": "event"
    },
    {
      "inputs": [],
      "name": "CREATE_VAULT_ROLE",
      "outputs": [
        {
          "internalType": "bytes32",
          "name": "",
          "type": "bytes32"
        }
      ],
      "stateMutability": "view",
      "type": "function"
    },
    {
      "inputs": [],
      "name": "DEFAULT_ADMIN_ROLE",
      "outputs": [
        {
          "internalType": "bytes32",
          "name": "",
          "type": "bytes32"
        }
      ],
      "stateMutability": "view",
      "type": "function"
    },
    {
      "inputs": [],
      "name": "REGISTER_PROJECT_ROLE",
      "outputs": [
        {
          "internalType": "bytes32",
          "name": "",
          "type": "bytes32"
        }
      ],
      "stateMutability": "view",
      "type": "function"
    },
    {
      "inputs": [],
      "name": "REGISTER_STRATEGY_ROLE",
      "outputs": [
        {
          "internalType": "bytes32",
          "name": "",
          "type": "bytes32"
        }
      ],
      "stateMutability": "view",
      "type": "function"
    },
    {
      "inputs": [
        {
          "internalType": "string",
          "name": "projectId",
          "type": "string"
        },
        {
          "internalType": "string",
          "name": "strategyId",
          "type": "string"
        },
        {
          "internalType": "contract IERC20",
          "name": "underlyingToken",
          "type": "address"
        },
        {
          "internalType": "bytes",
          "name": "params",
          "type": "bytes"
        },
        {
          "internalType": "bytes",
          "name": "metadata",
          "type": "bytes"
        },
        {
          "internalType": "uint16",
          "name": "performanceFee",
          "type": "uint16"
        }
      ],
      "name": "createVault",
      "outputs": [
        {
          "internalType": "uint256",
          "name": "",
          "type": "uint256"
        },
        {
          "internalType": "contract IStrategy",
          "name": "",
          "type": "address"
        }
      ],
      "stateMutability": "nonpayable",
      "type": "function"
    },
    {
      "inputs": [
        {
          "internalType": "bytes32",
          "name": "projectId",
          "type": "bytes32"
        },
        {
          "internalType": "bytes32",
          "name": "strategyId",
          "type": "bytes32"
        },
        {
          "internalType": "contract IERC20",
          "name": "underlyingToken",
          "type": "address"
        },
        {
          "internalType": "bytes",
          "name": "params",
          "type": "bytes"
        },
        {
          "internalType": "bytes",
          "name": "metadata",
          "type": "bytes"
        },
        {
          "internalType": "uint16",
          "name": "performanceFee",
          "type": "uint16"
        }
      ],
      "name": "createVaultRaw",
      "outputs": [
        {
          "internalType": "uint256",
          "name": "",
          "type": "uint256"
        },
        {
          "internalType": "contract IStrategy",
          "name": "",
          "type": "address"
        }
      ],
      "stateMutability": "nonpayable",
      "type": "function"
    },
    {
      "inputs": [
        {
          "internalType": "uint256",
          "name": "index",
          "type": "uint256"
        }
      ],
      "name": "getProjectAt",
      "outputs": [
        {
          "internalType": "bytes32",
          "name": "",
          "type": "bytes32"
        }
      ],
      "stateMutability": "view",
      "type": "function"
    },
    {
      "inputs": [
        {
          "internalType": "string",
          "name": "projectId",
          "type": "string"
        },
        {
          "internalType": "uint256",
          "name": "from",
          "type": "uint256"
        },
        {
          "internalType": "uint256",
          "name": "amount",
          "type": "uint256"
        }
      ],
      "name": "getProjectStrategies",
      "outputs": [
        {
          "internalType": "bytes32[]",
          "name": "",
          "type": "bytes32[]"
        }
      ],
      "stateMutability": "view",
      "type": "function"
    },
    {
      "inputs": [
        {
          "internalType": "string",
          "name": "projectId",
          "type": "string"
        }
      ],
      "name": "getProjectStrategiesLength",
      "outputs": [
        {
          "internalType": "uint256",
          "name": "",
          "type": "uint256"
        }
      ],
      "stateMutability": "view",
      "type": "function"
    },
    {
      "inputs": [
        {
          "internalType": "bytes32",
          "name": "projectId",
          "type": "bytes32"
        }
      ],
      "name": "getProjectStrategiesLengthRaw",
      "outputs": [
        {
          "internalType": "uint256",
          "name": "",
          "type": "uint256"
        }
      ],
      "stateMutability": "view",
      "type": "function"
    },
    {
      "inputs": [
        {
          "internalType": "bytes32",
          "name": "projectId",
          "type": "bytes32"
        },
        {
          "internalType": "uint256",
          "name": "from",
          "type": "uint256"
        },
        {
          "internalType": "uint256",
          "name": "amount",
          "type": "uint256"
        }
      ],
      "name": "getProjectStrategiesRaw",
      "outputs": [
        {
          "internalType": "bytes32[]",
          "name": "",
          "type": "bytes32[]"
        }
      ],
      "stateMutability": "view",
      "type": "function"
    },
    {
      "inputs": [
        {
          "internalType": "string",
          "name": "projectId",
          "type": "string"
        },
        {
          "internalType": "uint256",
          "name": "index",
          "type": "uint256"
        }
      ],
      "name": "getProjectStrategyAt",
      "outputs": [
        {
          "internalType": "bytes32",
          "name": "",
          "type": "bytes32"
        }
      ],
      "stateMutability": "view",
      "type": "function"
    },
    {
      "inputs": [
        {
          "internalType": "bytes32",
          "name": "projectId",
          "type": "bytes32"
        },
        {
          "internalType": "uint256",
          "name": "index",
          "type": "uint256"
        }
      ],
      "name": "getProjectStrategyAtRaw",
      "outputs": [
        {
          "internalType": "bytes32",
          "name": "",
          "type": "bytes32"
        }
      ],
      "stateMutability": "view",
      "type": "function"
    },
    {
      "inputs": [
        {
          "internalType": "uint256",
          "name": "from",
          "type": "uint256"
        },
        {
          "internalType": "uint256",
          "name": "amount",
          "type": "uint256"
        }
      ],
      "name": "getProjects",
      "outputs": [
        {
          "internalType": "bytes32[]",
          "name": "",
          "type": "bytes32[]"
        }
      ],
      "stateMutability": "view",
      "type": "function"
    },
    {
      "inputs": [],
      "name": "getProjectsLength",
      "outputs": [
        {
          "internalType": "uint256",
          "name": "",
          "type": "uint256"
        }
      ],
      "stateMutability": "view",
      "type": "function"
    },
    {
      "inputs": [
        {
          "internalType": "bytes32",
          "name": "role",
          "type": "bytes32"
        }
      ],
      "name": "getRoleAdmin",
      "outputs": [
        {
          "internalType": "bytes32",
          "name": "",
          "type": "bytes32"
        }
      ],
      "stateMutability": "view",
      "type": "function"
    },
    {
      "inputs": [
        {
          "internalType": "bytes32",
          "name": "role",
          "type": "bytes32"
        },
        {
          "internalType": "uint256",
          "name": "index",
          "type": "uint256"
        }
      ],
      "name": "getRoleMember",
      "outputs": [
        {
          "internalType": "address",
          "name": "",
          "type": "address"
        }
      ],
      "stateMutability": "view",
      "type": "function"
    },
    {
      "inputs": [
        {
          "internalType": "bytes32",
          "name": "role",
          "type": "bytes32"
        }
      ],
      "name": "getRoleMemberCount",
      "outputs": [
        {
          "internalType": "uint256",
          "name": "",
          "type": "uint256"
        }
      ],
      "stateMutability": "view",
      "type": "function"
    },
    {
      "inputs": [
        {
          "internalType": "uint256",
          "name": "from",
          "type": "uint256"
        },
        {
          "internalType": "uint256",
          "name": "amount",
          "type": "uint256"
        }
      ],
      "name": "getStrategies",
      "outputs": [
        {
          "internalType": "bytes32[]",
          "name": "",
          "type": "bytes32[]"
        }
      ],
      "stateMutability": "view",
      "type": "function"
    },
    {
      "inputs": [],
      "name": "getStrategiesLength",
      "outputs": [
        {
          "internalType": "uint256",
          "name": "",
          "type": "uint256"
        }
      ],
      "stateMutability": "view",
      "type": "function"
    },
    {
      "inputs": [
        {
          "internalType": "uint256",
          "name": "index",
          "type": "uint256"
        }
      ],
      "name": "getStrategyAt",
      "outputs": [
        {
          "internalType": "bytes32",
          "name": "",
          "type": "bytes32"
        }
      ],
      "stateMutability": "view",
      "type": "function"
    },
    {
      "inputs": [
        {
          "internalType": "uint256",
          "name": "index",
          "type": "uint256"
        }
      ],
      "name": "getStrategyTypeAt",
      "outputs": [
        {
          "internalType": "bytes32",
          "name": "",
          "type": "bytes32"
        }
      ],
      "stateMutability": "view",
      "type": "function"
    },
    {
      "inputs": [],
      "name": "getStrategyTypeLength",
      "outputs": [
        {
          "internalType": "uint256",
          "name": "",
          "type": "uint256"
        }
      ],
      "stateMutability": "view",
      "type": "function"
    },
    {
      "inputs": [
        {
          "internalType": "uint256",
          "name": "from",
          "type": "uint256"
        },
        {
          "internalType": "uint256",
          "name": "amount",
          "type": "uint256"
        }
      ],
      "name": "getStrategyTypes",
      "outputs": [
        {
          "internalType": "bytes32[]",
          "name": "",
          "type": "bytes32[]"
        }
      ],
      "stateMutability": "view",
      "type": "function"
    },
    {
      "inputs": [
        {
          "internalType": "contract IERC20",
          "name": "token",
          "type": "address"
        },
        {
          "internalType": "uint256",
          "name": "from",
          "type": "uint256"
        },
        {
          "internalType": "uint256",
          "name": "amount",
          "type": "uint256"
        }
      ],
      "name": "getUnderlyingStrategies",
      "outputs": [
        {
          "internalType": "bytes32[]",
          "name": "",
          "type": "bytes32[]"
        }
      ],
      "stateMutability": "view",
      "type": "function"
    },
    {
      "inputs": [
        {
          "internalType": "contract IERC20",
          "name": "token",
          "type": "address"
        }
      ],
      "name": "getUnderlyingStrategiesLength",
      "outputs": [
        {
          "internalType": "uint256",
          "name": "",
          "type": "uint256"
        }
      ],
      "stateMutability": "view",
      "type": "function"
    },
    {
      "inputs": [
        {
          "internalType": "contract IERC20",
          "name": "token",
          "type": "address"
        },
        {
          "internalType": "uint256",
          "name": "index",
          "type": "uint256"
        }
      ],
      "name": "getUnderlyingStrategyAt",
      "outputs": [
        {
          "internalType": "bytes32",
          "name": "",
          "type": "bytes32"
        }
      ],
      "stateMutability": "view",
      "type": "function"
    },
    {
      "inputs": [
        {
          "internalType": "bytes32",
          "name": "role",
          "type": "bytes32"
        },
        {
          "internalType": "address",
          "name": "account",
          "type": "address"
        }
      ],
      "name": "grantRole",
      "outputs": [],
      "stateMutability": "nonpayable",
      "type": "function"
    },
    {
      "inputs": [
        {
          "internalType": "bytes32",
          "name": "role",
          "type": "bytes32"
        },
        {
          "internalType": "address",
          "name": "account",
          "type": "address"
        }
      ],
      "name": "hasRole",
      "outputs": [
        {
          "internalType": "bool",
          "name": "",
          "type": "bool"
        }
      ],
      "stateMutability": "view",
      "type": "function"
    },
    {
      "inputs": [
        {
          "internalType": "contract IVaultChef",
          "name": "_vaultChef",
          "type": "address"
        },
        {
          "internalType": "contract IZap",
          "name": "_zap",
          "type": "address"
        }
      ],
      "name": "initialize",
      "outputs": [],
      "stateMutability": "nonpayable",
      "type": "function"
    },
    {
      "inputs": [
        {
          "internalType": "string",
          "name": "projectId",
          "type": "string"
        }
      ],
      "name": "isProject",
      "outputs": [
        {
          "internalType": "bool",
          "name": "",
          "type": "bool"
        }
      ],
      "stateMutability": "view",
      "type": "function"
    },
    {
      "inputs": [
        {
          "internalType": "bytes32",
          "name": "projectId",
          "type": "bytes32"
        }
      ],
      "name": "isProjectRaw",
      "outputs": [
        {
          "internalType": "bool",
          "name": "",
          "type": "bool"
        }
      ],
      "stateMutability": "view",
      "type": "function"
    },
    {
      "inputs": [
        {
          "internalType": "string",
          "name": "strategyType",
          "type": "string"
        }
      ],
      "name": "isStrategyType",
      "outputs": [
        {
          "internalType": "bool",
          "name": "",
          "type": "bool"
        }
      ],
      "stateMutability": "view",
      "type": "function"
    },
    {
      "inputs": [
        {
          "internalType": "bytes32",
          "name": "strategyType",
          "type": "bytes32"
        }
      ],
      "name": "isStrategyTypeRaw",
      "outputs": [
        {
          "internalType": "bool",
          "name": "",
          "type": "bool"
        }
      ],
      "stateMutability": "view",
      "type": "function"
    },
    {
      "inputs": [
        {
          "internalType": "address",
          "name": "",
          "type": "address"
        }
      ],
      "name": "isSubfactory",
      "outputs": [
        {
          "internalType": "bool",
          "name": "",
          "type": "bool"
        }
      ],
      "stateMutability": "view",
      "type": "function"
    },
    {
      "inputs": [
        {
          "internalType": "bytes32",
          "name": "",
          "type": "bytes32"
        }
      ],
      "name": "projectMetadata",
      "outputs": [
        {
          "internalType": "bytes",
          "name": "",
          "type": "bytes"
        }
      ],
      "stateMutability": "view",
      "type": "function"
    },
    {
      "inputs": [
        {
          "internalType": "bytes32",
          "name": "",
          "type": "bytes32"
        }
      ],
      "name": "projectParams",
      "outputs": [
        {
          "internalType": "bytes",
          "name": "",
          "type": "bytes"
        }
      ],
      "stateMutability": "view",
      "type": "function"
    },
    {
      "inputs": [
        {
          "internalType": "bytes32",
          "name": "",
          "type": "bytes32"
        }
      ],
      "name": "projectStrategyType",
      "outputs": [
        {
          "internalType": "bytes32",
          "name": "",
          "type": "bytes32"
        }
      ],
      "stateMutability": "view",
      "type": "function"
    },
    {
      "inputs": [
        {
          "internalType": "string",
          "name": "projectId",
          "type": "string"
        },
        {
          "internalType": "string",
          "name": "strategyType",
          "type": "string"
        },
        {
          "internalType": "bytes",
          "name": "params",
          "type": "bytes"
        },
        {
          "internalType": "bytes",
          "name": "metadata",
          "type": "bytes"
        }
      ],
      "name": "registerProject",
      "outputs": [],
      "stateMutability": "nonpayable",
      "type": "function"
    },
    {
      "inputs": [
        {
          "internalType": "bytes32",
          "name": "projectId",
          "type": "bytes32"
        },
        {
          "internalType": "bytes32",
          "name": "strategyType",
          "type": "bytes32"
        },
        {
          "internalType": "bytes",
          "name": "params",
          "type": "bytes"
        },
        {
          "internalType": "bytes",
          "name": "metadata",
          "type": "bytes"
        }
      ],
      "name": "registerProjectRaw",
      "outputs": [],
      "stateMutability": "nonpayable",
      "type": "function"
    },
    {
      "inputs": [
        {
          "internalType": "string",
          "name": "strategyType",
          "type": "string"
        },
        {
          "internalType": "contract ISubFactory",
          "name": "subfactory",
          "type": "address"
        }
      ],
      "name": "registerStrategyType",
      "outputs": [],
      "stateMutability": "nonpayable",
      "type": "function"
    },
    {
      "inputs": [
        {
          "internalType": "bytes32",
          "name": "strategyType",
          "type": "bytes32"
        },
        {
          "internalType": "contract ISubFactory",
          "name": "subfactory",
          "type": "address"
        }
      ],
      "name": "registerStrategyTypeRaw",
      "outputs": [],
      "stateMutability": "nonpayable",
      "type": "function"
    },
    {
      "inputs": [
        {
          "internalType": "bytes32",
          "name": "role",
          "type": "bytes32"
        },
        {
          "internalType": "address",
          "name": "account",
          "type": "address"
        }
      ],
      "name": "renounceRole",
      "outputs": [],
      "stateMutability": "nonpayable",
      "type": "function"
    },
    {
      "inputs": [
        {
          "internalType": "bytes32",
          "name": "role",
          "type": "bytes32"
        },
        {
          "internalType": "address",
          "name": "account",
          "type": "address"
        }
      ],
      "name": "revokeRole",
      "outputs": [],
      "stateMutability": "nonpayable",
      "type": "function"
    },
    {
      "inputs": [
        {
          "internalType": "address[]",
          "name": "route",
          "type": "address[]"
        }
      ],
      "name": "setRoute",
      "outputs": [],
      "stateMutability": "nonpayable",
      "type": "function"
    },
    {
      "inputs": [
        {
          "internalType": "bytes32",
          "name": "",
          "type": "bytes32"
        }
      ],
      "name": "strategyMetadata",
      "outputs": [
        {
          "internalType": "bytes",
          "name": "",
          "type": "bytes"
        }
      ],
      "stateMutability": "view",
      "type": "function"
    },
    {
      "inputs": [
        {
          "internalType": "bytes32",
          "name": "",
          "type": "bytes32"
        }
      ],
      "name": "subfactoryByType",
      "outputs": [
        {
          "internalType": "contract ISubFactory",
          "name": "",
          "type": "address"
        }
      ],
      "stateMutability": "view",
      "type": "function"
    },
    {
      "inputs": [
        {
          "internalType": "bytes4",
          "name": "interfaceId",
          "type": "bytes4"
        }
      ],
      "name": "supportsInterface",
      "outputs": [
        {
          "internalType": "bool",
          "name": "",
          "type": "bool"
        }
      ],
      "stateMutability": "view",
      "type": "function"
    },
    {
      "inputs": [],
      "name": "vaultChef",
      "outputs": [
        {
          "internalType": "contract IVaultChef",
          "name": "",
          "type": "address"
        }
      ],
      "stateMutability": "view",
      "type": "function"
    },
    {
      "inputs": [
        {
          "internalType": "uint256",
          "name": "",
          "type": "uint256"
        }
      ],
      "name": "vaultIdToStrategy",
      "outputs": [
        {
          "internalType": "bytes32",
          "name": "",
          "type": "bytes32"
        }
      ],
      "stateMutability": "view",
      "type": "function"
    },
    {
      "inputs": [],
      "name": "zap",
      "outputs": [
        {
          "internalType": "contract IZap",
          "name": "",
          "type": "address"
        }
      ],
      "stateMutability": "view",
      "type": "function"
    }
  ],
  "transactionHash": "0x3b61566a8101328a874930dc0de532b5662e7863333387a9e8ec889405697128",
  "args": [],
  "solcInputHash": "ba54500a79d576d2dd2cf50068cc0499",
  "bytecode": "0x608060405234801561001057600080fd5b506129bb806100206000396000f3fe608060405234801561001057600080fd5b50600436106102f15760003560e01c80639010d07c1161019d578063ca15c873116100e9578063db84b46e116100a2578063f787a8031161007c578063f787a803146106fe578063fad316a214610711578063fe6e018b14610623578063ff95bbcd1461072457600080fd5b8063db84b46e146106c3578063e4f3fb4b146106d6578063e74fc3d7146106e957600080fd5b8063ca15c87314610651578063cdfdea4c14610664578063d14cde9b14610677578063d547741f1461068a578063d8cb6b9e1461069d578063db59f3c8146106b057600080fd5b8063a84ce2b511610156578063b108365a11610130578063b108365a14610610578063b860bcec14610623578063c022c01314610636578063c6bdc0a21461064957600080fd5b8063a84ce2b5146105ba578063ac893d90146105cd578063b0327821146105e057600080fd5b80639010d07c1461056757806391d148541461057a578063941bdd5b1461058d5780639666b83b146105955780639998b8771461059d578063a217fddf146105b257600080fd5b8063467fcc871161025c57806369b015c41161021557806376977aa1116101ef57806376977aa11461050e5780637786da9e1461052e578063807170cf1461054157806380dc61671461055457600080fd5b806369b015c4146103745780636f98dd7d146104e857806373994d9f146104fb57600080fd5b8063467fcc871461044c578063485cc9551461046c57806355a8a4661461047f57806357a5472c146104a25780635ada6acb146104b55780636383b24d146104d557600080fd5b8063262d6152116102ae578063262d6152146103aa57806327b3cc3d146103d55780632dbeed5d146103fe5780632f2ff15d1461041357806336568abe14610426578063372aa0eb1461043957600080fd5b806301ffc9a7146102f657806308f3cf001461031e57806315e41c751461033f5780631645cdb81461035f5780631723587214610374578063248a9ca314610387575b600080fd5b6103096103043660046121ff565b610737565b60405190151581526020015b60405180910390f35b61033161032c3660046124fd565b610762565b604051908152602001610315565b61035261034d36600461203f565b6107a0565b60405161031591906126a8565b61033160008051602061292683398151915281565b6103096103823660046122b8565b61083a565b61033161039536600461203f565b60009081526065602052604090206001015490565b60ca546103bd906001600160a01b031681565b6040516001600160a01b039091168152602001610315565b6103bd6103e336600461203f565b60cd602052600090815260409020546001600160a01b031681565b61041161040c366004612058565b61086d565b005b610411610421366004612058565b61094a565b610411610434366004612058565b610971565b610411610447366004612088565b610993565b61033161045a36600461203f565b60d96020526000908152604090205481565b61041161047a36600461228a565b610a8f565b61030961048d366004611f90565b60ce6020526000908152604090205460ff1681565b6104116104b03660046122fa565b610bf4565b6104c86104c3366004612255565b610c45565b6040516103159190612664565b6104c86104e33660046121d3565b610c6b565b6104c86104f63660046121b1565b610c87565b61033161050936600461203f565b610c95565b61033161051c36600461203f565b60d16020526000908152604090205481565b6104c861053c366004612549565b610ca2565b61033161054f36600461203f565b610ce0565b61033161056236600461203f565b610ced565b6103bd6105753660046121b1565b610d04565b610309610588366004612058565b610d1c565b610331610d47565b610331610d58565b61033160008051602061296683398151915281565b610331600081565b6104c86105c83660046121b1565b610d64565b6104c86105db3660046121b1565b610d72565b6105f36105ee366004612415565b610d80565b604080519283526001600160a01b03909116602083015201610315565b61033161061e36600461203f565b610e10565b61030961063136600461203f565b610e1d565b6105f361064436600461210b565b610e2a565b6103316112e0565b61033161065f36600461203f565b6112ec565b61035261067236600461203f565b611303565b6103316106853660046122b8565b61131c565b610411610698366004612058565b61134f565b6103316106ab366004612229565b611359565b6103316106be366004611f90565b61137b565b6104116106d1366004611fca565b61139c565b60c9546103bd906001600160a01b031681565b61033160008051602061294683398151915281565b61033161070c3660046121b1565b61163e565b61041161071f366004612351565b611656565b61035261073236600461203f565b6116cd565b60006001600160e01b03198216635a05180f60e01b148061075c575061075c826116e6565b92915050565b6000610796848460405160200161077a9291906125df565b604051602081830303815290604052805190602001208361163e565b90505b9392505050565b60d760205260009081526040902080546107b990612862565b80601f01602080910402602001604051908101604052809291908181526020018280546107e590612862565b80156108325780601f1061080757610100808354040283529160200191610832565b820191906000526020600020905b81548152906001019060200180831161081557829003601f168201915b505050505081565b600061079983836040516020016108529291906125df565b60405160208183030381529060405280519060200120610e1d565b600080516020612946833981519152610886813361171b565b61089160cb8461177f565b156108cd5760405162461bcd60e51b81526020600482015260076024820152662165786973747360c81b60448201526064015b60405180910390fd5b6108d860cb84611797565b50600083815260cd6020908152604080832080546001600160a01b0319166001600160a01b03871690811790915580845260ce909252808320805460ff1916600117905551909185917ff971fd948b9be62bcf3cb3a7a663e95857b2eb95ac8a7478b0362d9583a691fe9190a3505050565b61095482826117a3565b600082815260976020526040902061096c90826117c9565b505050565b61097b82826117de565b600082815260976020526040902061096c9082611858565b6000805160206129668339815191526109ac813361171b565b6109b760cb8761177f565b610a035760405162461bcd60e51b815260206004820152601760248201527f21737472617465677954797065206e6f7420666f756e6400000000000000000060448201526064016108c4565b6000610a1060cf8961177f565b600089815260d1602090815260408083208b905560d29091529020909150610a39908787611e8c565b50600088815260d360205260409020610a53908585611e8c565b5080151587897f128dde6be881a1aa689e72df1389c8775dc0db31307d824dc7c5d4013e42d72060405160405180910390a45050505050505050565b600054610100900460ff1680610aa8575060005460ff16155b610ac45760405162461bcd60e51b81526004016108c490612783565b600054610100900460ff16158015610ae6576000805461ffff19166101011790555b610aee61186d565b60c980546001600160a01b038086166001600160a01b0319928316811790935560ca8054918616919092161790556040805163040f1f6d60e11b8152905163081e3eda91600480820192602092909190829003018186803b158015610b5257600080fd5b505afa158015610b66573d6000803e3d6000fd5b505050506040513d601f19601f82011682018060405250810190610b8a919061259a565b50610b966000336118f9565b610bae600080516020612946833981519152336118f9565b610bc6600080516020612966833981519152336118f9565b610bde600080516020612926833981519152336118f9565b801561096c576000805461ff0019169055505050565b600080516020612946833981519152610c0d813361171b565b610c3f8484604051602001610c239291906125df565b604051602081830303815290604052805190602001208361086d565b50505050565b6001600160a01b038316600090815260da60205260409020606090610796908484611903565b600083815260d460205260409020606090610796908484611903565b606061079960cb8484611903565b600061075c60d5836119e7565b6060610cd78585604051602001610cba9291906125df565b604051602081830303815290604052805190602001208484610c6b565b95945050505050565b600061075c60cb836119e7565b600081815260d46020526040812061075c906119f3565b600082815260976020526040812061079990836119e7565b60009182526065602090815260408084206001600160a01b0393909316845291905290205460ff1690565b6000610d5360cb6119f3565b905090565b6000610d5360d56119f3565b606061079960cf8484611903565b606061079960d58484611903565b600080600080516020612926833981519152610d9c813361171b565b610dfc8d8d604051602001610db29291906125df565b604051602081830303815290604052805190602001208c8c604051602001610ddb9291906125df565b604051602081830303815290604052805190602001208b8b8b8b8b8b610e2a565b92509250509a509a98505050505050505050565b600061075c60cf836119e7565b600061075c60cb8361177f565b600080600080516020612926833981519152610e46813361171b565b6040805160a0810182526000808252602082018190529181018290526060808201929092526080810191909152610ea48c8c604080516020808201949094528082019290925280518083038201815260609092019052805191012090565b808252610eb39060d59061177f565b151560208083019190915260008d815260d2909152604090208054610ed790612862565b80601f0160208091040260200160405190810160405280929190818152602001828054610f0390612862565b8015610f505780601f10610f2557610100808354040283529160200191610f50565b820191906000526020600020905b815481529060010190602001808311610f3357829003601f168201915b50505050506080820190815260008d815260d16020908152604080832054835260cd909152908190205460c954925191516303555d2760e41b81526001600160a01b0391821693633555d27093610fb493909116918f91908f908f90600401612722565b602060405180830381600087803b158015610fce57600080fd5b505af1158015610fe2573d6000803e3d6000fd5b505050506040513d601f19601f820116820180604052508101906110069190611fad565b6001600160a01b0390811660408084019190915260c954815163040f1f6d60e11b8152915192169163081e3eda91600480820192602092909190829003018186803b15801561105457600080fd5b505afa158015611068573d6000803e3d6000fd5b505050506040513d601f19601f8201168201806040525081019061108c919061259a565b606082015260c95460408051638da5cb5b60e01b815290516001600160a01b0390921691638da5cb5b91600480820192602092909190829003018186803b1580156110d657600080fd5b505afa1580156110ea573d6000803e3d6000fd5b505050506040513d601f19601f8201168201806040525081019061110e9190611fad565b604080830151905163ce192fc960e01b81526001600160a01b03918216600482015261ffff8816602482015291169063ce192fc990604401600060405180830381600087803b15801561116057600080fd5b505af1158015611174573d6000803e3d6000fd5b50508251600090815260d760205260409020611194925090508888611e8c565b50805160008d815260d4602052604090206111ae91611797565b508051606082018051600090815260d9602090815260408083209490945591518451825260d88352838220558351838501518451632495a59960e01b8152945161127c95929460da94936001600160a01b0390931692632495a5999260048083019392829003018186803b15801561122557600080fd5b505afa158015611239573d6000803e3d6000fd5b505050506040513d601f19601f8201168201806040525081019061125d9190611fad565b6001600160a01b03168152602081019190915260400160002090611797565b508a8c82606001517f05ff921a9f275cc75949cb0c8357b8866efe3e3bbd520b19b8cf59bf53c1a92584602001516040516112bb911515815260200190565b60405180910390a4806060015181604001519350935050509850989650505050505050565b6000610d5360cf6119f3565b600081815260976020526040812061075c906119f3565b60d360205260009081526040902080546107b990612862565b600061079983836040516020016113349291906125df565b60405160208183030381529060405280519060200120610ced565b61097b82826119fd565b6001600160a01b038216600090815260da6020526040812061079990836119e7565b6001600160a01b038116600090815260da6020526040812061075c906119f3565b33600090815260ce602052604090205460ff166113e95760405162461bcd60e51b815260206004820152600b60248201526a21737562666163746f727960a81b60448201526064016108c4565b801561163a57600082826000818110611404576114046128e4565b90506020020160208101906114199190611f90565b90506000838361142a600182612808565b818110611439576114396128e4565b905060200201602081019061144e9190611f90565b9050600060ca60009054906101000a90046001600160a01b03166001600160a01b0316635c60da1b6040518163ffffffff1660e01b815260040160206040518083038186803b1580156114a057600080fd5b505afa1580156114b4573d6000803e3d6000fd5b505050506040513d601f19601f820116820180604052508101906114d89190611fad565b6001600160a01b0316638da5cb5b6040518163ffffffff1660e01b815260040160206040518083038186803b15801561151057600080fd5b505afa158015611524573d6000803e3d6000fd5b505050506040513d601f19601f820116820180604052508101906115489190611fad565b6040516331e376fd60e11b81526001600160a01b0385811660048301528481166024830152919250908216906363c6edfa9060440160206040518083038186803b15801561159557600080fd5b505afa1580156115a9573d6000803e3d6000fd5b505050506040513d601f19601f820116820180604052508101906115cd919061259a565b6116365760405163131a049360e11b81526001600160a01b0382169063263409269061160390869086908a908a906004016126bb565b600060405180830381600087803b15801561161d57600080fd5b505af1158015611631573d6000803e3d6000fd5b505050505b5050505b5050565b600082815260d46020526040812061079990836119e7565b60008051602061296683398151915261166f813361171b565b61163189896040516020016116859291906125df565b6040516020818303038152906040528051906020012088886040516020016116ae9291906125df565b6040516020818303038152906040528051906020012087878787610993565b60d260205260009081526040902080546107b990612862565b60006001600160e01b03198216637965db0b60e01b148061075c57506301ffc9a760e01b6001600160e01b031983161461075c565b6117258282610d1c565b61163a5761173d816001600160a01b03166014611a23565b611748836020611a23565b6040516020016117599291906125ef565b60408051601f198184030181529082905262461bcd60e51b82526108c4916004016126a8565b60008181526001830160205260408120541515610799565b60006107998383611bbf565b6000828152606560205260409020600101546117bf813361171b565b61096c8383611c0e565b6000610799836001600160a01b038416611bbf565b6001600160a01b038116331461184e5760405162461bcd60e51b815260206004820152602f60248201527f416363657373436f6e74726f6c3a2063616e206f6e6c792072656e6f756e636560448201526e103937b632b9903337b91039b2b63360891b60648201526084016108c4565b61163a8282611c94565b6000610799836001600160a01b038416611cfb565b600054610100900460ff1680611886575060005460ff16155b6118a25760405162461bcd60e51b81526004016108c490612783565b600054610100900460ff161580156118c4576000805461ffff19166101011790555b6118cc611dee565b6118d4611dee565b6118dc611dee565b6118e4611dee565b80156118f6576000805461ff00191690555b50565b6109548282611e58565b60606000611910856119f3565b905080841061192f575050604080516000815260208101909152610799565b8061193a84866127d1565b111561194d5761194a8482612808565b92505b60008367ffffffffffffffff811115611968576119686128fa565b604051908082528060200260200182016040528015611991578160200160208202803683370190505b50905060005b848110156119dd576119b46119ac82886127d1565b60cb906119e7565b8282815181106119c6576119c66128e4565b508291506119d590508161289d565b915050611997565b5095945050505050565b60006107998383611e62565b600061075c825490565b600082815260656020526040902060010154611a19813361171b565b61096c8383611c94565b60606000611a328360026127e9565b611a3d9060026127d1565b67ffffffffffffffff811115611a5557611a556128fa565b6040519080825280601f01601f191660200182016040528015611a7f576020820181803683370190505b509050600360fc1b81600081518110611a9a57611a9a6128e4565b60200101906001600160f81b031916908160001a905350600f60fb1b81600181518110611ac957611ac96128e4565b60200101906001600160f81b031916908160001a9053506000611aed8460026127e9565b611af89060016127d1565b90505b6001811115611b70576f181899199a1a9b1b9c1cb0b131b232b360811b85600f1660108110611b2c57611b2c6128e4565b1a60f81b828281518110611b4257611b426128e4565b60200101906001600160f81b031916908160001a90535060049490941c93611b698161284b565b9050611afb565b5083156107995760405162461bcd60e51b815260206004820181905260248201527f537472696e67733a20686578206c656e67746820696e73756666696369656e7460448201526064016108c4565b6000818152600183016020526040812054611c065750815460018181018455600084815260208082209093018490558454848252828601909352604090209190915561075c565b50600061075c565b611c188282610d1c565b61163a5760008281526065602090815260408083206001600160a01b03851684529091529020805460ff19166001179055611c503390565b6001600160a01b0316816001600160a01b0316837f2f8788117e7eff1d82e926ec794901d17c78024a50270940304540a733656f0d60405160405180910390a45050565b611c9e8282610d1c565b1561163a5760008281526065602090815260408083206001600160a01b0385168085529252808320805460ff1916905551339285917ff6391f5c32d9c69d2a47ea670b442974b53935d1edc7fd64eb21e047a839171b9190a45050565b60008181526001830160205260408120548015611de4576000611d1f600183612808565b8554909150600090611d3390600190612808565b9050818114611d98576000866000018281548110611d5357611d536128e4565b9060005260206000200154905080876000018481548110611d7657611d766128e4565b6000918252602080832090910192909255918252600188019052604090208390555b8554869080611da957611da96128ce565b60019003818190600052602060002001600090559055856001016000868152602001908152602001600020600090556001935050505061075c565b600091505061075c565b600054610100900460ff1680611e07575060005460ff16155b611e235760405162461bcd60e51b81526004016108c490612783565b600054610100900460ff161580156118e4576000805461ffff191661010117905580156118f6576000805461ff001916905550565b61163a8282611c0e565b6000826000018281548110611e7957611e796128e4565b9060005260206000200154905092915050565b828054611e9890612862565b90600052602060002090601f016020900481019282611eba5760008555611f00565b82601f10611ed35782800160ff19823516178555611f00565b82800160010185558215611f00579182015b82811115611f00578235825591602001919060010190611ee5565b50611f0c929150611f10565b5090565b5b80821115611f0c5760008155600101611f11565b60008083601f840112611f3757600080fd5b50813567ffffffffffffffff811115611f4f57600080fd5b602083019150836020828501011115611f6757600080fd5b9250929050565b8035611f7981612910565b919050565b803561ffff81168114611f7957600080fd5b600060208284031215611fa257600080fd5b813561079981612910565b600060208284031215611fbf57600080fd5b815161079981612910565b60008060208385031215611fdd57600080fd5b823567ffffffffffffffff80821115611ff557600080fd5b818501915085601f83011261200957600080fd5b81358181111561201857600080fd5b8660208260051b850101111561202d57600080fd5b60209290920196919550909350505050565b60006020828403121561205157600080fd5b5035919050565b6000806040838503121561206b57600080fd5b82359150602083013561207d81612910565b809150509250929050565b600080600080600080608087890312156120a157600080fd5b8635955060208701359450604087013567ffffffffffffffff808211156120c757600080fd5b6120d38a838b01611f25565b909650945060608901359150808211156120ec57600080fd5b506120f989828a01611f25565b979a9699509497509295939492505050565b60008060008060008060008060c0898b03121561212757600080fd5b8835975060208901359650604089013561214081612910565b9550606089013567ffffffffffffffff8082111561215d57600080fd5b6121698c838d01611f25565b909750955060808b013591508082111561218257600080fd5b5061218f8b828c01611f25565b90945092506121a2905060a08a01611f7e565b90509295985092959890939650565b600080604083850312156121c457600080fd5b50508035926020909101359150565b6000806000606084860312156121e857600080fd5b505081359360208301359350604090920135919050565b60006020828403121561221157600080fd5b81356001600160e01b03198116811461079957600080fd5b6000806040838503121561223c57600080fd5b823561224781612910565b946020939093013593505050565b60008060006060848603121561226a57600080fd5b833561227581612910565b95602085013595506040909401359392505050565b6000806040838503121561229d57600080fd5b82356122a881612910565b9150602083013561207d81612910565b600080602083850312156122cb57600080fd5b823567ffffffffffffffff8111156122e257600080fd5b6122ee85828601611f25565b90969095509350505050565b60008060006040848603121561230f57600080fd5b833567ffffffffffffffff81111561232657600080fd5b61233286828701611f25565b909450925050602084013561234681612910565b809150509250925092565b6000806000806000806000806080898b03121561236d57600080fd5b883567ffffffffffffffff8082111561238557600080fd5b6123918c838d01611f25565b909a50985060208b01359150808211156123aa57600080fd5b6123b68c838d01611f25565b909850965060408b01359150808211156123cf57600080fd5b6123db8c838d01611f25565b909650945060608b01359150808211156123f457600080fd5b506124018b828c01611f25565b999c989b5096995094979396929594505050565b60008060008060008060008060008060c08b8d03121561243457600080fd5b8a3567ffffffffffffffff8082111561244c57600080fd5b6124588e838f01611f25565b909c509a5060208d013591508082111561247157600080fd5b61247d8e838f01611f25565b909a50985088915061249160408e01611f6e565b975060608d01359150808211156124a757600080fd5b6124b38e838f01611f25565b909750955060808d01359150808211156124cc57600080fd5b506124d98d828e01611f25565b90945092506124ec905060a08c01611f7e565b90509295989b9194979a5092959850565b60008060006040848603121561251257600080fd5b833567ffffffffffffffff81111561252957600080fd5b61253586828701611f25565b909790965060209590950135949350505050565b6000806000806060858703121561255f57600080fd5b843567ffffffffffffffff81111561257657600080fd5b61258287828801611f25565b90989097506020870135966040013595509350505050565b6000602082840312156125ac57600080fd5b5051919050565b600081518084526125cb81602086016020860161281f565b601f01601f19169290920160200192915050565b8183823760009101908152919050565b7f416363657373436f6e74726f6c3a206163636f756e742000000000000000000081526000835161262781601785016020880161281f565b7001034b99036b4b9b9b4b733903937b6329607d1b601791840191820152835161265881602884016020880161281f565b01602801949350505050565b6020808252825182820181905260009190848201906040850190845b8181101561269c57835183529284019291840191600101612680565b50909695505050505050565b60208152600061079960208301846125b3565b6001600160a01b0385811682528481166020808401919091526060604084018190528301849052600091859160808501845b8781101561271457843561270081612910565b8416825293820193908201906001016126ed565b509998505050505050505050565b6001600160a01b0386811682528516602082015260806040820181905260009061274e908301866125b3565b8281036060840152838152838560208301376000602085830101526020601f19601f8601168201019150509695505050505050565b6020808252602e908201527f496e697469616c697a61626c653a20636f6e747261637420697320616c72656160408201526d191e481a5b9a5d1a585b1a5e995960921b606082015260800190565b600082198211156127e4576127e46128b8565b500190565b6000816000190483118215151615612803576128036128b8565b500290565b60008282101561281a5761281a6128b8565b500390565b60005b8381101561283a578181015183820152602001612822565b83811115610c3f5750506000910152565b60008161285a5761285a6128b8565b506000190190565b600181811c9082168061287657607f821691505b6020821081141561289757634e487b7160e01b600052602260045260246000fd5b50919050565b60006000198214156128b1576128b16128b8565b5060010190565b634e487b7160e01b600052601160045260246000fd5b634e487b7160e01b600052603160045260246000fd5b634e487b7160e01b600052603260045260246000fd5b634e487b7160e01b600052604160045260246000fd5b6001600160a01b03811681146118f657600080fdfedf8db4b3f0e355fdb17cbf7574c8af9d27ce4756db4efb6006ec8d3f04f391c4e71ec9665f24fd34c984715bd779a0519d33e9ab5ea271286986ff1d631504cf2346b08f6a458a95934836936988f77c5b147e7700d817767c56316d1a6f469ca2646970667358221220e7534eea0a986a6e5e00872517d20732fa25ae9e052ab1f2277e2b36d79043f164736f6c63430008060033",
  "devdoc": {
    "kind": "dev",
    "methods": {
      "getRoleAdmin(bytes32)": {
        "details": "Returns the admin role that controls `role`. See {grantRole} and {revokeRole}. To change a role's admin, use {_setRoleAdmin}."
      },
      "getRoleMember(bytes32,uint256)": {
        "details": "Returns one of the accounts that have `role`. `index` must be a value between 0 and {getRoleMemberCount}, non-inclusive. Role bearers are not sorted in any particular way, and their ordering may change at any point. WARNING: When using {getRoleMember} and {getRoleMemberCount}, make sure you perform all queries on the same block. See the following https://forum.openzeppelin.com/t/iterating-over-elements-on-enumerableset-in-openzeppelin-contracts/2296[forum post] for more information."
      },
      "getRoleMemberCount(bytes32)": {
        "details": "Returns the number of accounts that have `role`. Can be used together with {getRoleMember} to enumerate all bearers of a role."
      },
      "grantRole(bytes32,address)": {
        "details": "Overload {grantRole} to track enumerable memberships"
      },
      "hasRole(bytes32,address)": {
        "details": "Returns `true` if `account` has been granted `role`."
      },
      "renounceRole(bytes32,address)": {
        "details": "Overload {renounceRole} to track enumerable memberships"
      },
      "revokeRole(bytes32,address)": {
        "details": "Overload {revokeRole} to track enumerable memberships"
      },
      "supportsInterface(bytes4)": {
        "details": "See {IERC165-supportsInterface}."
      }
    },
    "stateVariables": {
      "strategies": {
        "details": "These are identified as keccak256(abi.encodePacked(keccak256(projectId), keccak256(strategyId)))."
      }
    },
    "version": 1
  },
  "userdoc": {
    "kind": "user",
    "methods": {
      "getProjectAt(uint256)": {
        "notice": "Gets the project hash at a specific index in the listing."
      },
      "getProjectStrategies(string,uint256,uint256)": {
        "notice": "Lists the project's strategy hashes within a specific range in the listing."
      },
      "getProjectStrategiesLength(string)": {
        "notice": "Gets the length (number) of strategies of a project listing."
      },
      "getProjectStrategiesLengthRaw(bytes32)": {
        "notice": "Gets the length (number) of strategies of a project listing."
      },
      "getProjectStrategiesRaw(bytes32,uint256,uint256)": {
        "notice": "Lists the project's strategy hashes within a specific range in the listing."
      },
      "getProjectStrategyAt(string,uint256)": {
        "notice": "Gets the project's strategy hash at a specific index in the listing."
      },
      "getProjectStrategyAtRaw(bytes32,uint256)": {
        "notice": "Gets the project's strategy hash at a specific index in the listing."
      },
      "getProjects(uint256,uint256)": {
        "notice": "Lists the project hashes within a specific range in the listing."
      },
      "getProjectsLength()": {
        "notice": "Gets the length of the projects listing."
      },
      "getStrategies(uint256,uint256)": {
        "notice": "Lists the strategy hashes within a specific range in the listing."
      },
      "getStrategiesLength()": {
        "notice": "Gets the length (number) of strategies of a project listing."
      },
      "getStrategyAt(uint256)": {
        "notice": "Gets the strategy hash at a specific index in the listing."
      },
      "getStrategyTypeAt(uint256)": {
        "notice": "Gets the strategyType hash at a specific index in the listing."
      },
      "getStrategyTypeLength()": {
        "notice": "Gets the length of the strategyType listing."
      },
      "getStrategyTypes(uint256,uint256)": {
        "notice": "Lists the strategyType hashes within a specific range in the listing."
      },
      "getUnderlyingStrategies(address,uint256,uint256)": {
        "notice": "Lists the underlying tokens's strategy hashes within a specific range in the listing."
      },
      "getUnderlyingStrategiesLength(address)": {
        "notice": "Gets the length (number) of strategies of a project listing."
      },
      "getUnderlyingStrategyAt(address,uint256)": {
        "notice": "Gets the underlying tokens's strategy hash at a specific index in the listing."
      },
      "isProject(string)": {
        "notice": "Returns whether the unhashed `projectId` is registered."
      },
      "isProjectRaw(bytes32)": {
        "notice": "Returns whether the hashed `projectId` is registered."
      },
      "isStrategyType(string)": {
        "notice": "Returns whether the unhashed `strategyType` is registered."
      },
      "isStrategyTypeRaw(bytes32)": {
        "notice": "Returns whether the hashed `strategyType` is registered."
      },
      "projectMetadata(bytes32)": {
        "notice": "Metadata associated with the project that can be used on the frontend, expected to be encoded in UTF-8 JSON.Even though not ideomatic, this is a cheap solution to avoid infrastructure downtime within the first months after launch."
      },
      "projectParams(bytes32)": {
        "notice": "Generic parameters that will always be forwarded to the subfactory. This could for example be the native token."
      },
      "projectStrategyType(bytes32)": {
        "notice": "The associated strategy type hash of the project. All strategies under the project will thus be deployed using the subfactory of this strategy type."
      },
      "strategyMetadata(bytes32)": {
        "notice": "Metadata associated with the strategy that can be used on the frontend, expected to be encoded in UTF-8 JSON.Even though not ideomatic, this is a cheap solution to avoid infrastructure downtime within the first months after launch."
      },
      "subfactoryByType(bytes32)": {
        "notice": "Returns the registered subfactory of the strategy type. The subfactory is responsible for instantiating factories."
      },
      "vaultChef()": {
        "notice": "The instance of the vaultChef to deploy strategies to."
      },
      "vaultIdToStrategy(uint256)": {
        "notice": "Gets the strategy id associated with the vaultId."
      },
      "zap()": {
        "notice": "The zapper"
      }
    },
    "notice": "TODO: There is no createVault function!",
    "version": 1
  },
  "storageLayout": {
    "storage": [
      {
        "astId": 648,
        "contract": "contracts/factories/StrategyFactory.sol:StrategyFactory",
        "label": "_initialized",
        "offset": 0,
        "slot": "0",
        "type": "t_bool"
      },
      {
        "astId": 651,
        "contract": "contracts/factories/StrategyFactory.sol:StrategyFactory",
        "label": "_initializing",
        "offset": 1,
        "slot": "0",
        "type": "t_bool"
      },
      {
        "astId": 731,
        "contract": "contracts/factories/StrategyFactory.sol:StrategyFactory",
        "label": "__gap",
        "offset": 0,
        "slot": "1",
        "type": "t_array(t_uint256)50_storage"
      },
      {
        "astId": 980,
        "contract": "contracts/factories/StrategyFactory.sol:StrategyFactory",
        "label": "__gap",
        "offset": 0,
        "slot": "51",
        "type": "t_array(t_uint256)50_storage"
      },
      {
        "astId": 258,
        "contract": "contracts/factories/StrategyFactory.sol:StrategyFactory",
        "label": "_roles",
        "offset": 0,
        "slot": "101",
        "type": "t_mapping(t_bytes32,t_struct(RoleData)253_storage)"
      },
      {
        "astId": 543,
        "contract": "contracts/factories/StrategyFactory.sol:StrategyFactory",
        "label": "__gap",
        "offset": 0,
        "slot": "102",
        "type": "t_array(t_uint256)49_storage"
      },
      {
        "astId": 45,
        "contract": "contracts/factories/StrategyFactory.sol:StrategyFactory",
        "label": "_roleMembers",
        "offset": 0,
        "slot": "151",
        "type": "t_mapping(t_bytes32,t_struct(AddressSet)1305_storage)"
      },
      {
        "astId": 208,
        "contract": "contracts/factories/StrategyFactory.sol:StrategyFactory",
        "label": "__gap",
        "offset": 0,
        "slot": "152",
        "type": "t_array(t_uint256)49_storage"
      },
      {
        "astId": 3525,
        "contract": "contracts/factories/StrategyFactory.sol:StrategyFactory",
        "label": "vaultChef",
        "offset": 0,
        "slot": "201",
        "type": "t_contract(IVaultChef)5079"
      },
      {
        "astId": 3529,
        "contract": "contracts/factories/StrategyFactory.sol:StrategyFactory",
        "label": "zap",
        "offset": 0,
        "slot": "202",
        "type": "t_contract(IZap)5348"
      },
      {
        "astId": 3533,
        "contract": "contracts/factories/StrategyFactory.sol:StrategyFactory",
        "label": "strategyTypes",
        "offset": 0,
        "slot": "203",
        "type": "t_struct(Bytes32Set)1198_storage"
      },
      {
        "astId": 3539,
        "contract": "contracts/factories/StrategyFactory.sol:StrategyFactory",
        "label": "subfactoryByType",
        "offset": 0,
        "slot": "205",
        "type": "t_mapping(t_bytes32,t_contract(ISubFactory)5064)"
      },
      {
        "astId": 3543,
        "contract": "contracts/factories/StrategyFactory.sol:StrategyFactory",
        "label": "isSubfactory",
        "offset": 0,
        "slot": "206",
        "type": "t_mapping(t_address,t_bool)"
      },
      {
        "astId": 3547,
        "contract": "contracts/factories/StrategyFactory.sol:StrategyFactory",
        "label": "projects",
        "offset": 0,
        "slot": "207",
        "type": "t_struct(Bytes32Set)1198_storage"
      },
      {
        "astId": 3552,
        "contract": "contracts/factories/StrategyFactory.sol:StrategyFactory",
        "label": "projectStrategyType",
        "offset": 0,
        "slot": "209",
        "type": "t_mapping(t_bytes32,t_bytes32)"
      },
      {
        "astId": 3557,
        "contract": "contracts/factories/StrategyFactory.sol:StrategyFactory",
        "label": "projectParams",
        "offset": 0,
        "slot": "210",
        "type": "t_mapping(t_bytes32,t_bytes_storage)"
      },
      {
        "astId": 3562,
        "contract": "contracts/factories/StrategyFactory.sol:StrategyFactory",
        "label": "projectMetadata",
        "offset": 0,
        "slot": "211",
        "type": "t_mapping(t_bytes32,t_bytes_storage)"
      },
      {
        "astId": 3568,
        "contract": "contracts/factories/StrategyFactory.sol:StrategyFactory",
        "label": "projectStrategies",
        "offset": 0,
        "slot": "212",
        "type": "t_mapping(t_bytes32,t_struct(Bytes32Set)1198_storage)"
      },
      {
        "astId": 3572,
        "contract": "contracts/factories/StrategyFactory.sol:StrategyFactory",
        "label": "strategies",
        "offset": 0,
        "slot": "213",
        "type": "t_struct(Bytes32Set)1198_storage"
      },
      {
        "astId": 3577,
        "contract": "contracts/factories/StrategyFactory.sol:StrategyFactory",
        "label": "strategyMetadata",
        "offset": 0,
        "slot": "215",
        "type": "t_mapping(t_bytes32,t_bytes_storage)"
      },
      {
        "astId": 3582,
        "contract": "contracts/factories/StrategyFactory.sol:StrategyFactory",
        "label": "strategyToVaultId",
        "offset": 0,
        "slot": "216",
        "type": "t_mapping(t_bytes32,t_uint256)"
      },
      {
        "astId": 3587,
        "contract": "contracts/factories/StrategyFactory.sol:StrategyFactory",
        "label": "vaultIdToStrategy",
        "offset": 0,
        "slot": "217",
        "type": "t_mapping(t_uint256,t_bytes32)"
      },
      {
        "astId": 3594,
        "contract": "contracts/factories/StrategyFactory.sol:StrategyFactory",
        "label": "underlyingToStrategies",
        "offset": 0,
        "slot": "218",
        "type": "t_mapping(t_contract(IERC20)2338,t_struct(Bytes32Set)1198_storage)"
      }
    ],
    "types": {
      "t_address": {
        "encoding": "inplace",
        "label": "address",
        "numberOfBytes": "20"
      },
      "t_array(t_bytes32)dyn_storage": {
        "base": "t_bytes32",
        "encoding": "dynamic_array",
        "label": "bytes32[]",
        "numberOfBytes": "32"
      },
      "t_array(t_uint256)49_storage": {
        "base": "t_uint256",
        "encoding": "inplace",
        "label": "uint256[49]",
        "numberOfBytes": "1568"
      },
      "t_array(t_uint256)50_storage": {
        "base": "t_uint256",
        "encoding": "inplace",
        "label": "uint256[50]",
        "numberOfBytes": "1600"
      },
      "t_bool": {
        "encoding": "inplace",
        "label": "bool",
        "numberOfBytes": "1"
      },
      "t_bytes32": {
        "encoding": "inplace",
        "label": "bytes32",
        "numberOfBytes": "32"
      },
      "t_bytes_storage": {
        "encoding": "bytes",
        "label": "bytes",
        "numberOfBytes": "32"
      },
      "t_contract(IERC20)2338": {
        "encoding": "inplace",
        "label": "contract IERC20",
        "numberOfBytes": "20"
      },
      "t_contract(ISubFactory)5064": {
        "encoding": "inplace",
        "label": "contract ISubFactory",
        "numberOfBytes": "20"
      },
      "t_contract(IVaultChef)5079": {
        "encoding": "inplace",
        "label": "contract IVaultChef",
        "numberOfBytes": "20"
      },
      "t_contract(IZap)5348": {
        "encoding": "inplace",
        "label": "contract IZap",
        "numberOfBytes": "20"
      },
      "t_mapping(t_address,t_bool)": {
        "encoding": "mapping",
        "key": "t_address",
        "label": "mapping(address => bool)",
        "numberOfBytes": "32",
        "value": "t_bool"
      },
      "t_mapping(t_bytes32,t_bytes32)": {
        "encoding": "mapping",
        "key": "t_bytes32",
        "label": "mapping(bytes32 => bytes32)",
        "numberOfBytes": "32",
        "value": "t_bytes32"
      },
      "t_mapping(t_bytes32,t_bytes_storage)": {
        "encoding": "mapping",
        "key": "t_bytes32",
        "label": "mapping(bytes32 => bytes)",
        "numberOfBytes": "32",
        "value": "t_bytes_storage"
      },
      "t_mapping(t_bytes32,t_contract(ISubFactory)5064)": {
        "encoding": "mapping",
        "key": "t_bytes32",
        "label": "mapping(bytes32 => contract ISubFactory)",
        "numberOfBytes": "32",
        "value": "t_contract(ISubFactory)5064"
      },
      "t_mapping(t_bytes32,t_struct(AddressSet)1305_storage)": {
        "encoding": "mapping",
        "key": "t_bytes32",
        "label": "mapping(bytes32 => struct EnumerableSetUpgradeable.AddressSet)",
        "numberOfBytes": "32",
        "value": "t_struct(AddressSet)1305_storage"
      },
      "t_mapping(t_bytes32,t_struct(Bytes32Set)1198_storage)": {
        "encoding": "mapping",
        "key": "t_bytes32",
        "label": "mapping(bytes32 => struct EnumerableSetUpgradeable.Bytes32Set)",
        "numberOfBytes": "32",
        "value": "t_struct(Bytes32Set)1198_storage"
      },
      "t_mapping(t_bytes32,t_struct(RoleData)253_storage)": {
        "encoding": "mapping",
        "key": "t_bytes32",
        "label": "mapping(bytes32 => struct AccessControlUpgradeable.RoleData)",
        "numberOfBytes": "32",
        "value": "t_struct(RoleData)253_storage"
      },
      "t_mapping(t_bytes32,t_uint256)": {
        "encoding": "mapping",
        "key": "t_bytes32",
        "label": "mapping(bytes32 => uint256)",
        "numberOfBytes": "32",
        "value": "t_uint256"
      },
      "t_mapping(t_contract(IERC20)2338,t_struct(Bytes32Set)1198_storage)": {
        "encoding": "mapping",
        "key": "t_contract(IERC20)2338",
        "label": "mapping(contract IERC20 => struct EnumerableSetUpgradeable.Bytes32Set)",
        "numberOfBytes": "32",
        "value": "t_struct(Bytes32Set)1198_storage"
      },
      "t_mapping(t_uint256,t_bytes32)": {
        "encoding": "mapping",
        "key": "t_uint256",
        "label": "mapping(uint256 => bytes32)",
        "numberOfBytes": "32",
        "value": "t_bytes32"
      },
      "t_struct(AddressSet)1305_storage": {
        "encoding": "inplace",
        "label": "struct EnumerableSetUpgradeable.AddressSet",
        "members": [
          {
            "astId": 1304,
            "contract": "contracts/factories/StrategyFactory.sol:StrategyFactory",
            "label": "_inner",
            "offset": 0,
            "slot": "0",
            "type": "t_struct(Set)1004_storage"
          }
        ],
        "numberOfBytes": "64"
      },
      "t_struct(Bytes32Set)1198_storage": {
        "encoding": "inplace",
        "label": "struct EnumerableSetUpgradeable.Bytes32Set",
        "members": [
          {
            "astId": 1197,
            "contract": "contracts/factories/StrategyFactory.sol:StrategyFactory",
            "label": "_inner",
            "offset": 0,
            "slot": "0",
            "type": "t_struct(Set)1004_storage"
          }
        ],
        "numberOfBytes": "64"
      },
      "t_struct(RoleData)253_storage": {
        "encoding": "inplace",
        "label": "struct AccessControlUpgradeable.RoleData",
        "members": [
          {
            "astId": 250,
            "contract": "contracts/factories/StrategyFactory.sol:StrategyFactory",
            "label": "members",
            "offset": 0,
            "slot": "0",
            "type": "t_mapping(t_address,t_bool)"
          },
          {
            "astId": 252,
            "contract": "contracts/factories/StrategyFactory.sol:StrategyFactory",
            "label": "adminRole",
            "offset": 0,
            "slot": "1",
            "type": "t_bytes32"
          }
        ],
        "numberOfBytes": "64"
      },
      "t_struct(Set)1004_storage": {
        "encoding": "inplace",
        "label": "struct EnumerableSetUpgradeable.Set",
        "members": [
          {
            "astId": 999,
            "contract": "contracts/factories/StrategyFactory.sol:StrategyFactory",
            "label": "_values",
            "offset": 0,
            "slot": "0",
            "type": "t_array(t_bytes32)dyn_storage"
          },
          {
            "astId": 1003,
            "contract": "contracts/factories/StrategyFactory.sol:StrategyFactory",
            "label": "_indexes",
            "offset": 0,
            "slot": "1",
            "type": "t_mapping(t_bytes32,t_uint256)"
          }
        ],
        "numberOfBytes": "64"
      },
      "t_uint256": {
        "encoding": "inplace",
        "label": "uint256",
        "numberOfBytes": "32"
      }
    }
  }
}