{
  "address": "0x49FD82d8faBD0359DcD0A5fD408873532D8E733B",
  "abi": [
    {
      "inputs": [
        {
          "internalType": "contract StrategyFactory",
          "name": "_strategyFactory",
          "type": "address"
        },
        {
          "internalType": "contract IZap",
          "name": "_zap",
          "type": "address"
        }
      ],
      "stateMutability": "nonpayable",
      "type": "constructor"
    },
    {
      "inputs": [
        {
          "internalType": "contract IVaultChef",
          "name": "vaultChef",
          "type": "address"
        },
        {
          "internalType": "contract IERC20",
          "name": "underlyingToken",
          "type": "address"
        },
        {
          "internalType": "bytes",
          "name": "projectData",
          "type": "bytes"
        },
        {
          "internalType": "bytes",
          "name": "strategyData",
          "type": "bytes"
        }
      ],
      "name": "deployStrategy",
      "outputs": [
        {
          "internalType": "contract IStrategy",
          "name": "",
          "type": "address"
        }
      ],
      "stateMutability": "nonpayable",
      "type": "function"
    },
    {
      "inputs": [],
      "name": "strategyFactory",
      "outputs": [
        {
          "internalType": "contract StrategyFactory",
          "name": "",
          "type": "address"
        }
      ],
      "stateMutability": "view",
      "type": "function"
    },
    {
      "inputs": [],
      "name": "zap",
      "outputs": [
        {
          "internalType": "contract IZap",
          "name": "",
          "type": "address"
        }
      ],
      "stateMutability": "view",
      "type": "function"
    }
  ],
  "transactionHash": "0xb911d826b6f5204f7a439d8ad76d126f95595802a1610cfe133d49feef0409ac",
  "args": [
    "0x53635b33A3F52A7E71c0970e0Ba5c35E08070d92",
    "0xAfEf94984f3C3665e72F1a8d4634659621dA18A0"
  ],
  "solcInputHash": "70605475fab0997a48c2c4d21162e4d2",
  "bytecode": "0x60a060405234801561001057600080fd5b50604051611c23380380611c2383398101604081905261002f91610066565b60609190911b6001600160601b031916608052600080546001600160a01b0319166001600160a01b039092169190911790556100b8565b6000806040838503121561007957600080fd5b8251610084816100a0565b6020840151909250610095816100a0565b809150509250929050565b6001600160a01b03811681146100b557600080fd5b50565b60805160601c611b486100db60003960008181608d015260bc0152611b486000f3fe608060405234801561001057600080fd5b50600436106100415760003560e01c8063262d6152146100465780633555d270146100755780639ef3571014610088575b600080fd5b600054610059906001600160a01b031681565b6040516001600160a01b03909116815260200160405180910390f35b61005961008336600461053c565b6100af565b6100597f000000000000000000000000000000000000000000000000000000000000000081565b6000336001600160a01b037f000000000000000000000000000000000000000000000000000000000000000016146100e657600080fd5b60006100f48587018761051f565b905060006101048486018661051f565b90506101118189846101cb565b600060405161011f906104a5565b604051809103906000f08015801561013b573d6000803e3d6000fd5b50600054604051630a2ca2bd60e11b81526001600160a01b038d8116600483015291821660248201528b8216604482015285821660648201528482166084820152919250821690631459457a9060a401600060405180830381600087803b1580156101a557600080fd5b505af11580156101b9573d6000803e3d6000fd5b50929c9b505050505050505050505050565b826001600160a01b031663cb3992be6040518163ffffffff1660e01b815260040160206040518083038186803b15801561020457600080fd5b505afa925050508015610234575060408051601f3d908101601f19168201909252610231918101906104fb565b60015b6102785760405162461bcd60e51b815260206004820152601060248201526f10b737903932bbb0b93239aa37b5b2b760811b60448201526064015b60405180910390fd5b806001600160a01b0316826001600160a01b0316146102d95760405162461bcd60e51b815260206004820152601760248201527f21696e636f72726563742072657761726473546f6b656e000000000000000000604482015260640161026f565b50826001600160a01b03166333a00bb86040518163ffffffff1660e01b815260040160206040518083038186803b15801561031357600080fd5b505afa925050508015610343575060408051601f3d908101601f19168201909252610340918101906104fb565b60015b6103825760405162461bcd60e51b815260206004820152601060248201526f10b7379039ba30b5b4b733aa37b5b2b760811b604482015260640161026f565b806001600160a01b0316836001600160a01b0316146103e35760405162461bcd60e51b815260206004820152601760248201527f21696e636f7272656374207374616b696e67546f6b656e000000000000000000604482015260640161026f565b50604051630d774cdd60e41b81523060048201526001600160a01b0384169063d774cdd09060240160206040518083038186803b15801561042357600080fd5b505afa925050508015610453575060408051601f3d908101601f19168201909252610450918101906105d1565b60015b61049f5760405162461bcd60e51b815260206004820152601b60248201527f21696e636f72726563742062616c616e63652066756e6374696f6e0000000000604482015260640161026f565b50505050565b6115108061060383390190565b60008083601f8401126104c457600080fd5b50813567ffffffffffffffff8111156104dc57600080fd5b6020830191508360208285010111156104f457600080fd5b9250929050565b60006020828403121561050d57600080fd5b8151610518816105ea565b9392505050565b60006020828403121561053157600080fd5b8135610518816105ea565b6000806000806000806080878903121561055557600080fd5b8635610560816105ea565b95506020870135610570816105ea565b9450604087013567ffffffffffffffff8082111561058d57600080fd5b6105998a838b016104b2565b909650945060608901359150808211156105b257600080fd5b506105bf89828a016104b2565b979a9699509497509295939492505050565b6000602082840312156105e357600080fd5b5051919050565b6001600160a01b03811681146105ff57600080fd5b5056fe608060405234801561001057600080fd5b50600580546001600160a01b031916331790556114de806100326000396000f3fe608060405234801561001057600080fd5b50600436106100ea5760003560e01c80634cf088d91161008c578063c70920bc11610066578063c70920bc146101c0578063e1dfb5c0146101d6578063f3fef3a3146101ee578063f7c618c11461020157600080fd5b80634cf088d91461018757806367206d401461019a578063b6b55f25146101ad57600080fd5b8063432b05cc116100c8578063432b05cc1461014757806345941ee0146101645780634641257d146101775780634700d3051461017f57600080fd5b80631459457a146100ef5780632495a59914610104578063262d615214610134575b600080fd5b6101026100fd3660046112cb565b610214565b005b600254610117906001600160a01b031681565b6040516001600160a01b0390911681526020015b60405180910390f35b600154610117906001600160a01b031681565b61014f6102ed565b6040805192835260208301919091520161012b565b610102610172366004611176565b61038c565b610102610698565b6101026108fa565b600454610117906001600160a01b031681565b6101026101a83660046111f7565b610933565b6101026101bb36600461133c565b6109e3565b6101c8610a1b565b60405190815260200161012b565b6000546101179061010090046001600160a01b031681565b6101026101fc3660046111b0565b610aaf565b600354610117906001600160a01b031681565b60005460ff16156102635760405162461bcd60e51b815260206004820152601460248201527308585b1c9958591e481a5b9a5d1a585b1a5e995960621b60448201526064015b60405180910390fd5b6005546001600160a01b0316331461027a57600080fd5b61028685858585610c16565b600480546001600160a01b0319166001600160a01b03831617905560005460ff166102e65760405162461bcd60e51b815260206004820152601060248201526f085b9bdd081a5b9a5d1a585b1a5e995960821b604482015260640161025a565b5050505050565b60008060006102fa610c85565b6002546040516370a0823160e01b815230600482015291925082916001600160a01b03909116906370a082319060240160206040518083038186803b15801561034257600080fd5b505afa158015610356573d6000803e3d6000fd5b505050506040513d601f19601f8201168201806040525081019061037a9190611355565b61038491906113e1565b939092509050565b600060019054906101000a90046001600160a01b03166001600160a01b0316638da5cb5b6040518163ffffffff1660e01b815260040160206040518083038186803b1580156103da57600080fd5b505afa1580156103ee573d6000803e3d6000fd5b505050506040513d601f19601f820116820180604052508101906104129190611193565b6001600160a01b0316336001600160a01b0316146104815760405162461bcd60e51b815260206004820152602660248201527f6d7573742062652063616c6c6564206279207661756c746368656620676f7665604482015265726e616e636560d01b606482015260840161025a565b60008054604051637ae3780d60e01b81523060048201526101009091046001600160a01b031690637ae3780d9060240160206040518083038186803b1580156104c957600080fd5b505afa1580156104dd573d6000803e3d6000fd5b505050506040513d601f19601f820116820180604052508101906105019190611355565b600080546040516312520c1b60e31b81526004810184905292935090916101009091046001600160a01b03169063929060d89060240160c06040518083038186803b15801561054f57600080fd5b505afa158015610563573d6000803e3d6000fd5b505050506040513d601f19601f820116820180604052508101906105879190611239565b5050505091505080624f1a0061059d91906113f9565b6001600160601b0316421161060c5760405162461bcd60e51b815260206004820152602f60248201527f7661756c74206d757374206e6f74206861766520686164206465706f7369747360448201526e20666f722074776f206d6f6e74687360881b606482015260840161025a565b6040516000906001600160a01b0385169082818181855af49150503d8060008114610653576040519150601f19603f3d011682016040523d82523d6000602084013e610658565b606091505b50509050806106925760405162461bcd60e51b815260206004820152600660248201526519985a5b195960d21b604482015260640161025a565b50505050565b60005461010090046001600160a01b031633146106c75760405162461bcd60e51b815260040161025a906113bd565b6106cf610d06565b6002546003546001600160a01b0390811691161461086a576003546040516370a0823160e01b81523060048201526000916001600160a01b0316906370a082319060240160206040518083038186803b15801561072b57600080fd5b505afa15801561073f573d6000803e3d6000fd5b505050506040513d601f19601f820116820180604052508101906107639190611355565b905080156108685760035460015460405163095ea7b360e01b81526001600160a01b0391821660048201526024810184905291169063095ea7b390604401602060405180830381600087803b1580156107bb57600080fd5b505af11580156107cf573d6000803e3d6000fd5b505050506040513d601f19601f820116820180604052508101906107f391906111dc565b50600154600354600254604051630ea0c74360e21b81526001600160a01b039283166004820152908216602482015260448101849052911690633a831d0c90606401600060405180830381600087803b15801561084f57600080fd5b505af1158015610863573d6000803e3d6000fd5b505050505b505b6002546040516370a0823160e01b81523060048201526000916001600160a01b0316906370a082319060240160206040518083038186803b1580156108ae57600080fd5b505afa1580156108c2573d6000803e3d6000fd5b505050506040513d601f19601f820116820180604052508101906108e69190611355565b905080156108f7576108f781610d5d565b50565b60005461010090046001600160a01b031633146109295760405162461bcd60e51b815260040161025a906113bd565b610931610e43565b565b60005461010090046001600160a01b031633146109625760405162461bcd60e51b815260040161025a906113bd565b6002546001600160a01b0384811691161480159061098e57506003546001600160a01b03848116911614155b6109ca5760405162461bcd60e51b815260206004820152600d60248201526c34b73b30b634b2103a37b5b2b760991b604482015260640161025a565b6109de6001600160a01b0384168284610e94565b505050565b60005461010090046001600160a01b03163314610a125760405162461bcd60e51b815260040161025a906113bd565b6108f781610d5d565b6000610a25610c85565b6002546040516370a0823160e01b81523060048201526001600160a01b03909116906370a082319060240160206040518083038186803b158015610a6857600080fd5b505afa158015610a7c573d6000803e3d6000fd5b505050506040513d601f19601f82011682018060405250810190610aa09190611355565b610aaa91906113e1565b905090565b60005461010090046001600160a01b03163314610ade5760405162461bcd60e51b815260040161025a906113bd565b6002546040516370a0823160e01b81523060048201526000916001600160a01b0316906370a082319060240160206040518083038186803b158015610b2257600080fd5b505afa158015610b36573d6000803e3d6000fd5b505050506040513d601f19601f82011682018060405250810190610b5a9190611355565b905081811015610b7657610b76610b718284611424565b610ee6565b6002546040516370a0823160e01b81523060048201526000916001600160a01b0316906370a082319060240160206040518083038186803b158015610bba57600080fd5b505afa158015610bce573d6000803e3d6000fd5b505050506040513d601f19601f82011682018060405250810190610bf29190611355565b905080831015610bff5750815b600254610692906001600160a01b03168583610e94565b60005460ff1615610c2957610c29611467565b600080546001600160a01b03958616610100026001600160a81b031990911617600190811790915580549385166001600160a01b0319948516179055600280549285169284169290921790915560038054919093169116179055565b60048054604051630d774cdd60e41b815230928101929092526000916001600160a01b039091169063d774cdd09060240160206040518083038186803b158015610cce57600080fd5b505afa158015610ce2573d6000803e3d6000fd5b505050506040513d601f19601f82011682018060405250810190610aaa9190611355565b600480546040805163015cac3360e21b815290516001600160a01b0390921692630572b0cc92828201926000929082900301818387803b158015610d4957600080fd5b505af1158015610692573d6000803e3d6000fd5b6002546004805460405163095ea7b360e01b81526001600160a01b0391821692810192909252602482018490529091169063095ea7b390604401602060405180830381600087803b158015610db157600080fd5b505af1158015610dc5573d6000803e3d6000fd5b505050506040513d601f19601f82011682018060405250810190610de991906111dc565b5060048054604051630dfb6ed760e11b81529182018390526001600160a01b031690631bf6ddae906024015b600060405180830381600087803b158015610e2f57600080fd5b505af11580156102e6573d6000803e3d6000fd5b6004546001600160a01b031663012ce501610e5c610c85565b6040518263ffffffff1660e01b8152600401610e7a91815260200190565b600060405180830381600087803b158015610d4957600080fd5b604080516001600160a01b038416602482015260448082018490528251808303909101815260649091019091526020810180516001600160e01b031663a9059cbb60e01b1790526109de908490610f15565b6004805460405163939624ab60e01b81529182018390526001600160a01b03169063939624ab90602401610e15565b6000610f6a826040518060400160405280602081526020017f5361666545524332303a206c6f772d6c6576656c2063616c6c206661696c6564815250856001600160a01b0316610fe79092919063ffffffff16565b8051909150156109de5780806020019051810190610f8891906111dc565b6109de5760405162461bcd60e51b815260206004820152602a60248201527f5361666545524332303a204552433230206f7065726174696f6e20646964206e6044820152691bdd081cdd58d8d9595960b21b606482015260840161025a565b6060610ff68484600085611000565b90505b9392505050565b6060824710156110615760405162461bcd60e51b815260206004820152602660248201527f416464726573733a20696e73756666696369656e742062616c616e636520666f6044820152651c8818d85b1b60d21b606482015260840161025a565b843b6110af5760405162461bcd60e51b815260206004820152601d60248201527f416464726573733a2063616c6c20746f206e6f6e2d636f6e7472616374000000604482015260640161025a565b600080866001600160a01b031685876040516110cb919061136e565b60006040518083038185875af1925050503d8060008114611108576040519150601f19603f3d011682016040523d82523d6000602084013e61110d565b606091505b509150915061111d828286611128565b979650505050505050565b60608315611137575081610ff9565b8251156111475782518084602001fd5b8160405162461bcd60e51b815260040161025a919061138a565b8051801515811461117157600080fd5b919050565b60006020828403121561118857600080fd5b8135610ff981611493565b6000602082840312156111a557600080fd5b8151610ff981611493565b600080604083850312156111c357600080fd5b82356111ce81611493565b946020939093013593505050565b6000602082840312156111ee57600080fd5b610ff982611161565b60008060006060848603121561120c57600080fd5b833561121781611493565b925060208401359150604084013561122e81611493565b809150509250925092565b60008060008060008060c0878903121561125257600080fd5b865161125d81611493565b60208801519096506001600160601b038116811461127a57600080fd5b604088015190955061128b81611493565b606088015190945061ffff811681146112a357600080fd5b92506112b160808801611161565b91506112bf60a08801611161565b90509295509295509295565b600080600080600060a086880312156112e357600080fd5b85356112ee81611493565b945060208601356112fe81611493565b9350604086013561130e81611493565b9250606086013561131e81611493565b9150608086013561132e81611493565b809150509295509295909350565b60006020828403121561134e57600080fd5b5035919050565b60006020828403121561136757600080fd5b5051919050565b6000825161138081846020870161143b565b9190910192915050565b60208152600082518060208401526113a981604085016020870161143b565b601f01601f19169190910160400192915050565b6020808252600a908201526910bb30bab63a31b432b360b11b604082015260600190565b600082198211156113f4576113f461147d565b500190565b60006001600160601b0380831681851680830382111561141b5761141b61147d565b01949350505050565b6000828210156114365761143661147d565b500390565b60005b8381101561145657818101518382015260200161143e565b838111156106925750506000910152565b634e487b7160e01b600052600160045260246000fd5b634e487b7160e01b600052601160045260246000fd5b6001600160a01b03811681146108f757600080fdfea2646970667358221220b615e6f81857d6bce6850133e2a7f6a207021ddc22d50883d1672b2e75794fc264736f6c63430008060033a2646970667358221220ffc539b91f8b8b77fa20801e140bfb0a16dece515b3476cdf46b329609ffd6db64736f6c63430008060033",
  "devdoc": {
    "kind": "dev",
    "methods": {},
    "version": 1
  },
  "userdoc": {
    "kind": "user",
    "methods": {},
    "notice": "Project data: (address masterchef, address rewardToken) Strategy data: (uint256 pid)",
    "version": 1
  },
  "storageLayout": {
    "storage": [
      {
        "astId": 3998,
        "contract": "contracts/factories/CryptoRaidersFactory.sol:CryptoRaidersFactory",
        "label": "zap",
        "offset": 0,
        "slot": "0",
        "type": "t_contract(IZap)7755"
      }
    ],
    "types": {
      "t_contract(IZap)7755": {
        "encoding": "inplace",
        "label": "contract IZap",
        "numberOfBytes": "20"
      }
    }
  }
}