{
  "address": "0xbd9B135Bdc8912f5d0510874a7410614D47FEBfa",
  "abi": [
    {
      "anonymous": false,
      "inputs": [
        {
          "indexed": true,
          "internalType": "bytes32",
          "name": "projectId",
          "type": "bytes32"
        },
        {
          "indexed": true,
          "internalType": "bytes32",
          "name": "strategyType",
          "type": "bytes32"
        },
        {
          "indexed": true,
          "internalType": "bool",
          "name": "isUpdate",
          "type": "bool"
        }
      ],
      "name": "ProjectRegistered",
      "type": "event"
    },
    {
      "anonymous": false,
      "inputs": [
        {
          "indexed": true,
          "internalType": "bytes32",
          "name": "role",
          "type": "bytes32"
        },
        {
          "indexed": true,
          "internalType": "bytes32",
          "name": "previousAdminRole",
          "type": "bytes32"
        },
        {
          "indexed": true,
          "internalType": "bytes32",
          "name": "newAdminRole",
          "type": "bytes32"
        }
      ],
      "name": "RoleAdminChanged",
      "type": "event"
    },
    {
      "anonymous": false,
      "inputs": [
        {
          "indexed": true,
          "internalType": "bytes32",
          "name": "role",
          "type": "bytes32"
        },
        {
          "indexed": true,
          "internalType": "address",
          "name": "account",
          "type": "address"
        },
        {
          "indexed": true,
          "internalType": "address",
          "name": "sender",
          "type": "address"
        }
      ],
      "name": "RoleGranted",
      "type": "event"
    },
    {
      "anonymous": false,
      "inputs": [
        {
          "indexed": true,
          "internalType": "bytes32",
          "name": "role",
          "type": "bytes32"
        },
        {
          "indexed": true,
          "internalType": "address",
          "name": "account",
          "type": "address"
        },
        {
          "indexed": true,
          "internalType": "address",
          "name": "sender",
          "type": "address"
        }
      ],
      "name": "RoleRevoked",
      "type": "event"
    },
    {
      "anonymous": false,
      "inputs": [
        {
          "indexed": true,
          "internalType": "bytes32",
          "name": "strategyType",
          "type": "bytes32"
        },
        {
          "indexed": true,
          "internalType": "contract ISubFactory",
          "name": "subfactory",
          "type": "address"
        }
      ],
      "name": "StrategyTypeAdded",
      "type": "event"
    },
    {
      "anonymous": false,
      "inputs": [
        {
          "indexed": true,
          "internalType": "uint256",
          "name": "vaultId",
          "type": "uint256"
        },
        {
          "indexed": true,
          "internalType": "bytes32",
          "name": "projectId",
          "type": "bytes32"
        },
        {
          "indexed": true,
          "internalType": "bytes32",
          "name": "strategyId",
          "type": "bytes32"
        },
        {
          "indexed": false,
          "internalType": "bool",
          "name": "isUpdate",
          "type": "bool"
        }
      ],
      "name": "VaultRegistered",
      "type": "event"
    },
    {
      "inputs": [],
      "name": "CREATE_VAULT_ROLE",
      "outputs": [
        {
          "internalType": "bytes32",
          "name": "",
          "type": "bytes32"
        }
      ],
      "stateMutability": "view",
      "type": "function"
    },
    {
      "inputs": [],
      "name": "DEFAULT_ADMIN_ROLE",
      "outputs": [
        {
          "internalType": "bytes32",
          "name": "",
          "type": "bytes32"
        }
      ],
      "stateMutability": "view",
      "type": "function"
    },
    {
      "inputs": [],
      "name": "REGISTER_PROJECT_ROLE",
      "outputs": [
        {
          "internalType": "bytes32",
          "name": "",
          "type": "bytes32"
        }
      ],
      "stateMutability": "view",
      "type": "function"
    },
    {
      "inputs": [],
      "name": "REGISTER_STRATEGY_ROLE",
      "outputs": [
        {
          "internalType": "bytes32",
          "name": "",
          "type": "bytes32"
        }
      ],
      "stateMutability": "view",
      "type": "function"
    },
    {
      "inputs": [
        {
          "internalType": "bytes32",
          "name": "projectId",
          "type": "bytes32"
        },
        {
          "internalType": "bytes32",
          "name": "strategyId",
          "type": "bytes32"
        },
        {
          "internalType": "bytes",
          "name": "params",
          "type": "bytes"
        },
        {
          "internalType": "bytes",
          "name": "metadata",
          "type": "bytes"
        },
        {
          "internalType": "uint16",
          "name": "performanceFee",
          "type": "uint16"
        }
      ],
      "name": "createVaultRaw",
      "outputs": [
        {
          "internalType": "uint256",
          "name": "",
          "type": "uint256"
        },
        {
          "internalType": "contract IStrategy",
          "name": "",
          "type": "address"
        }
      ],
      "stateMutability": "nonpayable",
      "type": "function"
    },
    {
      "inputs": [
        {
          "internalType": "uint256",
          "name": "index",
          "type": "uint256"
        }
      ],
      "name": "getProjectAt",
      "outputs": [
        {
          "internalType": "bytes32",
          "name": "",
          "type": "bytes32"
        }
      ],
      "stateMutability": "view",
      "type": "function"
    },
    {
      "inputs": [
        {
          "internalType": "string",
          "name": "projectId",
          "type": "string"
        },
        {
          "internalType": "uint256",
          "name": "from",
          "type": "uint256"
        },
        {
          "internalType": "uint256",
          "name": "amount",
          "type": "uint256"
        }
      ],
      "name": "getProjectStrategies",
      "outputs": [
        {
          "internalType": "bytes32[]",
          "name": "",
          "type": "bytes32[]"
        }
      ],
      "stateMutability": "view",
      "type": "function"
    },
    {
      "inputs": [
        {
          "internalType": "string",
          "name": "projectId",
          "type": "string"
        }
      ],
      "name": "getProjectStrategiesLength",
      "outputs": [
        {
          "internalType": "uint256",
          "name": "",
          "type": "uint256"
        }
      ],
      "stateMutability": "view",
      "type": "function"
    },
    {
      "inputs": [
        {
          "internalType": "bytes32",
          "name": "projectId",
          "type": "bytes32"
        }
      ],
      "name": "getProjectStrategiesLengthRaw",
      "outputs": [
        {
          "internalType": "uint256",
          "name": "",
          "type": "uint256"
        }
      ],
      "stateMutability": "view",
      "type": "function"
    },
    {
      "inputs": [
        {
          "internalType": "bytes32",
          "name": "projectId",
          "type": "bytes32"
        },
        {
          "internalType": "uint256",
          "name": "from",
          "type": "uint256"
        },
        {
          "internalType": "uint256",
          "name": "amount",
          "type": "uint256"
        }
      ],
      "name": "getProjectStrategiesRaw",
      "outputs": [
        {
          "internalType": "bytes32[]",
          "name": "",
          "type": "bytes32[]"
        }
      ],
      "stateMutability": "view",
      "type": "function"
    },
    {
      "inputs": [
        {
          "internalType": "string",
          "name": "projectId",
          "type": "string"
        },
        {
          "internalType": "uint256",
          "name": "index",
          "type": "uint256"
        }
      ],
      "name": "getProjectStrategyAt",
      "outputs": [
        {
          "internalType": "bytes32",
          "name": "",
          "type": "bytes32"
        }
      ],
      "stateMutability": "view",
      "type": "function"
    },
    {
      "inputs": [
        {
          "internalType": "bytes32",
          "name": "projectId",
          "type": "bytes32"
        },
        {
          "internalType": "uint256",
          "name": "index",
          "type": "uint256"
        }
      ],
      "name": "getProjectStrategyAtRaw",
      "outputs": [
        {
          "internalType": "bytes32",
          "name": "",
          "type": "bytes32"
        }
      ],
      "stateMutability": "view",
      "type": "function"
    },
    {
      "inputs": [
        {
          "internalType": "uint256",
          "name": "from",
          "type": "uint256"
        },
        {
          "internalType": "uint256",
          "name": "amount",
          "type": "uint256"
        }
      ],
      "name": "getProjects",
      "outputs": [
        {
          "internalType": "bytes32[]",
          "name": "",
          "type": "bytes32[]"
        }
      ],
      "stateMutability": "view",
      "type": "function"
    },
    {
      "inputs": [],
      "name": "getProjectsLength",
      "outputs": [
        {
          "internalType": "uint256",
          "name": "",
          "type": "uint256"
        }
      ],
      "stateMutability": "view",
      "type": "function"
    },
    {
      "inputs": [
        {
          "internalType": "bytes32",
          "name": "role",
          "type": "bytes32"
        }
      ],
      "name": "getRoleAdmin",
      "outputs": [
        {
          "internalType": "bytes32",
          "name": "",
          "type": "bytes32"
        }
      ],
      "stateMutability": "view",
      "type": "function"
    },
    {
      "inputs": [
        {
          "internalType": "bytes32",
          "name": "role",
          "type": "bytes32"
        },
        {
          "internalType": "uint256",
          "name": "index",
          "type": "uint256"
        }
      ],
      "name": "getRoleMember",
      "outputs": [
        {
          "internalType": "address",
          "name": "",
          "type": "address"
        }
      ],
      "stateMutability": "view",
      "type": "function"
    },
    {
      "inputs": [
        {
          "internalType": "bytes32",
          "name": "role",
          "type": "bytes32"
        }
      ],
      "name": "getRoleMemberCount",
      "outputs": [
        {
          "internalType": "uint256",
          "name": "",
          "type": "uint256"
        }
      ],
      "stateMutability": "view",
      "type": "function"
    },
    {
      "inputs": [
        {
          "internalType": "uint256",
          "name": "from",
          "type": "uint256"
        },
        {
          "internalType": "uint256",
          "name": "amount",
          "type": "uint256"
        }
      ],
      "name": "getStrategies",
      "outputs": [
        {
          "internalType": "bytes32[]",
          "name": "",
          "type": "bytes32[]"
        }
      ],
      "stateMutability": "view",
      "type": "function"
    },
    {
      "inputs": [],
      "name": "getStrategiesLength",
      "outputs": [
        {
          "internalType": "uint256",
          "name": "",
          "type": "uint256"
        }
      ],
      "stateMutability": "view",
      "type": "function"
    },
    {
      "inputs": [
        {
          "internalType": "uint256",
          "name": "index",
          "type": "uint256"
        }
      ],
      "name": "getStrategyAt",
      "outputs": [
        {
          "internalType": "bytes32",
          "name": "",
          "type": "bytes32"
        }
      ],
      "stateMutability": "view",
      "type": "function"
    },
    {
      "inputs": [
        {
          "internalType": "uint256",
          "name": "index",
          "type": "uint256"
        }
      ],
      "name": "getStrategyTypeAt",
      "outputs": [
        {
          "internalType": "bytes32",
          "name": "",
          "type": "bytes32"
        }
      ],
      "stateMutability": "view",
      "type": "function"
    },
    {
      "inputs": [],
      "name": "getStrategyTypeLength",
      "outputs": [
        {
          "internalType": "uint256",
          "name": "",
          "type": "uint256"
        }
      ],
      "stateMutability": "view",
      "type": "function"
    },
    {
      "inputs": [
        {
          "internalType": "uint256",
          "name": "from",
          "type": "uint256"
        },
        {
          "internalType": "uint256",
          "name": "amount",
          "type": "uint256"
        }
      ],
      "name": "getStrategyTypes",
      "outputs": [
        {
          "internalType": "bytes32[]",
          "name": "",
          "type": "bytes32[]"
        }
      ],
      "stateMutability": "view",
      "type": "function"
    },
    {
      "inputs": [
        {
          "internalType": "contract IERC20",
          "name": "token",
          "type": "address"
        },
        {
          "internalType": "uint256",
          "name": "from",
          "type": "uint256"
        },
        {
          "internalType": "uint256",
          "name": "amount",
          "type": "uint256"
        }
      ],
      "name": "getUnderlyingStrategies",
      "outputs": [
        {
          "internalType": "bytes32[]",
          "name": "",
          "type": "bytes32[]"
        }
      ],
      "stateMutability": "view",
      "type": "function"
    },
    {
      "inputs": [
        {
          "internalType": "contract IERC20",
          "name": "token",
          "type": "address"
        }
      ],
      "name": "getUnderlyingStrategiesLength",
      "outputs": [
        {
          "internalType": "uint256",
          "name": "",
          "type": "uint256"
        }
      ],
      "stateMutability": "view",
      "type": "function"
    },
    {
      "inputs": [
        {
          "internalType": "contract IERC20",
          "name": "token",
          "type": "address"
        },
        {
          "internalType": "uint256",
          "name": "index",
          "type": "uint256"
        }
      ],
      "name": "getUnderlyingStrategyAt",
      "outputs": [
        {
          "internalType": "bytes32",
          "name": "",
          "type": "bytes32"
        }
      ],
      "stateMutability": "view",
      "type": "function"
    },
    {
      "inputs": [
        {
          "internalType": "bytes32",
          "name": "role",
          "type": "bytes32"
        },
        {
          "internalType": "address",
          "name": "account",
          "type": "address"
        }
      ],
      "name": "grantRole",
      "outputs": [],
      "stateMutability": "nonpayable",
      "type": "function"
    },
    {
      "inputs": [
        {
          "internalType": "bytes32",
          "name": "role",
          "type": "bytes32"
        },
        {
          "internalType": "address",
          "name": "account",
          "type": "address"
        }
      ],
      "name": "hasRole",
      "outputs": [
        {
          "internalType": "bool",
          "name": "",
          "type": "bool"
        }
      ],
      "stateMutability": "view",
      "type": "function"
    },
    {
      "inputs": [
        {
          "internalType": "contract IVaultChef",
          "name": "_vaultChef",
          "type": "address"
        }
      ],
      "name": "initialize",
      "outputs": [],
      "stateMutability": "nonpayable",
      "type": "function"
    },
    {
      "inputs": [
        {
          "internalType": "string",
          "name": "projectId",
          "type": "string"
        }
      ],
      "name": "isProject",
      "outputs": [
        {
          "internalType": "bool",
          "name": "",
          "type": "bool"
        }
      ],
      "stateMutability": "view",
      "type": "function"
    },
    {
      "inputs": [
        {
          "internalType": "bytes32",
          "name": "projectId",
          "type": "bytes32"
        }
      ],
      "name": "isProjectRaw",
      "outputs": [
        {
          "internalType": "bool",
          "name": "",
          "type": "bool"
        }
      ],
      "stateMutability": "view",
      "type": "function"
    },
    {
      "inputs": [
        {
          "internalType": "string",
          "name": "strategyType",
          "type": "string"
        }
      ],
      "name": "isStrategyType",
      "outputs": [
        {
          "internalType": "bool",
          "name": "",
          "type": "bool"
        }
      ],
      "stateMutability": "view",
      "type": "function"
    },
    {
      "inputs": [
        {
          "internalType": "bytes32",
          "name": "strategyType",
          "type": "bytes32"
        }
      ],
      "name": "isStrategyTypeRaw",
      "outputs": [
        {
          "internalType": "bool",
          "name": "",
          "type": "bool"
        }
      ],
      "stateMutability": "view",
      "type": "function"
    },
    {
      "inputs": [
        {
          "internalType": "bytes32",
          "name": "",
          "type": "bytes32"
        }
      ],
      "name": "projectMetadata",
      "outputs": [
        {
          "internalType": "bytes",
          "name": "",
          "type": "bytes"
        }
      ],
      "stateMutability": "view",
      "type": "function"
    },
    {
      "inputs": [
        {
          "internalType": "bytes32",
          "name": "",
          "type": "bytes32"
        }
      ],
      "name": "projectParams",
      "outputs": [
        {
          "internalType": "bytes",
          "name": "",
          "type": "bytes"
        }
      ],
      "stateMutability": "view",
      "type": "function"
    },
    {
      "inputs": [
        {
          "internalType": "bytes32",
          "name": "",
          "type": "bytes32"
        }
      ],
      "name": "projectStrategyType",
      "outputs": [
        {
          "internalType": "bytes32",
          "name": "",
          "type": "bytes32"
        }
      ],
      "stateMutability": "view",
      "type": "function"
    },
    {
      "inputs": [
        {
          "internalType": "string",
          "name": "projectId",
          "type": "string"
        },
        {
          "internalType": "string",
          "name": "strategyType",
          "type": "string"
        },
        {
          "internalType": "bytes",
          "name": "params",
          "type": "bytes"
        },
        {
          "internalType": "bytes",
          "name": "metadata",
          "type": "bytes"
        }
      ],
      "name": "registerProject",
      "outputs": [],
      "stateMutability": "nonpayable",
      "type": "function"
    },
    {
      "inputs": [
        {
          "internalType": "bytes32",
          "name": "projectId",
          "type": "bytes32"
        },
        {
          "internalType": "bytes32",
          "name": "strategyType",
          "type": "bytes32"
        },
        {
          "internalType": "bytes",
          "name": "params",
          "type": "bytes"
        },
        {
          "internalType": "bytes",
          "name": "metadata",
          "type": "bytes"
        }
      ],
      "name": "registerProjectRaw",
      "outputs": [],
      "stateMutability": "nonpayable",
      "type": "function"
    },
    {
      "inputs": [
        {
          "internalType": "string",
          "name": "strategyType",
          "type": "string"
        },
        {
          "internalType": "contract ISubFactory",
          "name": "subfactory",
          "type": "address"
        }
      ],
      "name": "registerStrategyType",
      "outputs": [],
      "stateMutability": "nonpayable",
      "type": "function"
    },
    {
      "inputs": [
        {
          "internalType": "bytes32",
          "name": "strategyType",
          "type": "bytes32"
        },
        {
          "internalType": "contract ISubFactory",
          "name": "subfactory",
          "type": "address"
        }
      ],
      "name": "registerStrategyTypeRaw",
      "outputs": [],
      "stateMutability": "nonpayable",
      "type": "function"
    },
    {
      "inputs": [
        {
          "internalType": "bytes32",
          "name": "role",
          "type": "bytes32"
        },
        {
          "internalType": "address",
          "name": "account",
          "type": "address"
        }
      ],
      "name": "renounceRole",
      "outputs": [],
      "stateMutability": "nonpayable",
      "type": "function"
    },
    {
      "inputs": [
        {
          "internalType": "bytes32",
          "name": "role",
          "type": "bytes32"
        },
        {
          "internalType": "address",
          "name": "account",
          "type": "address"
        }
      ],
      "name": "revokeRole",
      "outputs": [],
      "stateMutability": "nonpayable",
      "type": "function"
    },
    {
      "inputs": [
        {
          "internalType": "bytes32",
          "name": "",
          "type": "bytes32"
        }
      ],
      "name": "strategyMetadata",
      "outputs": [
        {
          "internalType": "bytes",
          "name": "",
          "type": "bytes"
        }
      ],
      "stateMutability": "view",
      "type": "function"
    },
    {
      "inputs": [
        {
          "internalType": "bytes32",
          "name": "",
          "type": "bytes32"
        }
      ],
      "name": "subfactoryByType",
      "outputs": [
        {
          "internalType": "contract ISubFactory",
          "name": "",
          "type": "address"
        }
      ],
      "stateMutability": "view",
      "type": "function"
    },
    {
      "inputs": [
        {
          "internalType": "bytes4",
          "name": "interfaceId",
          "type": "bytes4"
        }
      ],
      "name": "supportsInterface",
      "outputs": [
        {
          "internalType": "bool",
          "name": "",
          "type": "bool"
        }
      ],
      "stateMutability": "view",
      "type": "function"
    },
    {
      "inputs": [],
      "name": "vaultChef",
      "outputs": [
        {
          "internalType": "contract IVaultChef",
          "name": "",
          "type": "address"
        }
      ],
      "stateMutability": "view",
      "type": "function"
    },
    {
      "inputs": [
        {
          "internalType": "uint256",
          "name": "",
          "type": "uint256"
        }
      ],
      "name": "vaultIdToStrategy",
      "outputs": [
        {
          "internalType": "bytes32",
          "name": "",
          "type": "bytes32"
        }
      ],
      "stateMutability": "view",
      "type": "function"
    }
  ],
  "transactionHash": "0x3725166dc32e97ea24415f4b5e85b85ccba552bf1b380441bd4e69a6c24f947d",
  "args": [],
  "solcInputHash": "6d5259ca2eaa0a7e66b02d9cb5da65ee",
  "bytecode": "0x608060405234801561001057600080fd5b50612319806100206000396000f3fe608060405234801561001057600080fd5b50600436106102955760003560e01c80639010d07c11610167578063ca15c873116100ce578063e4f3fb4b11610087578063e4f3fb4b14610630578063e74fc3d714610643578063f787a80314610658578063fad316a21461066b578063fe6e018b14610590578063ff95bbcd1461067e57600080fd5b8063ca15c873146105be578063cdfdea4c146105d1578063d14cde9b146105e4578063d547741f146105f7578063d8cb6b9e1461060a578063db59f3c81461061d57600080fd5b8063a84ce2b511610120578063a84ce2b514610557578063ac893d901461056a578063b108365a1461057d578063b860bcec14610590578063c4d66de8146105a3578063c6bdc0a2146105b657600080fd5b80639010d07c1461050457806391d1485414610517578063941bdd5b1461052a5780639666b83b146105325780639998b8771461053a578063a217fddf1461054f57600080fd5b8063467fcc871161020b5780636f98dd7d116101c45780636f98dd7d1461048557806373994d9f1461049857806376977aa1146104ab5780637786da9e146104cb578063807170cf146104de57806380dc6167146104f157600080fd5b8063467fcc87146103ef57806352d147291461040f57806357a5472c1461043f5780635ada6acb146104525780636383b24d1461047257806369b015c41461032a57600080fd5b8063248a9ca31161025d578063248a9ca31461033d57806327b3cc3d146103605780632dbeed5d146103a15780632f2ff15d146103b657806336568abe146103c9578063372aa0eb146103dc57600080fd5b806301ffc9a71461029a57806308f3cf00146102c257806315e41c75146102e35780631645cdb814610303578063172358721461032a575b600080fd5b6102ad6102a8366004611c2a565b610691565b60405190151581526020015b60405180910390f35b6102d56102d0366004611e4c565b6106bc565b6040519081526020016102b9565b6102f66102f1366004611a72565b6106fa565b6040516102b99190612020565b6102d57fdf8db4b3f0e355fdb17cbf7574c8af9d27ce4756db4efb6006ec8d3f04f391c481565b6102ad610338366004611cef565b610794565b6102d561034b366004611a72565b60009081526065602052604090206001015490565b61038961036e366004611a72565b60cc602052600090815260409020546001600160a01b031681565b6040516001600160a01b0390911681526020016102b9565b6103b46103af366004611a8b565b6107c7565b005b6103b46103c4366004611a8b565b61088d565b6103b46103d7366004611a8b565b6108b4565b6103b46103ea366004611abb565b6108d6565b6102d56103fd366004611a72565b60d76020526000908152604090205481565b61042261041d366004611b3e565b6109d2565b604080519283526001600160a01b039091166020830152016102b9565b6103b461044d366004611d31565b610d6e565b610465610460366004611cba565b610dbf565b6040516102b99190611fdc565b610465610480366004611bfe565b610de5565b610465610493366004611bdc565b610e01565b6102d56104a6366004611a72565b610e0f565b6102d56104b9366004611a72565b60cf6020526000908152604090205481565b6104656104d9366004611e98565b610e1c565b6102d56104ec366004611a72565b610e5a565b6102d56104ff366004611a72565b610e67565b610389610512366004611bdc565b610e7e565b6102ad610525366004611a8b565b610e96565b6102d5610ec1565b6102d5610ed2565b6102d56000805160206122c483398151915281565b6102d5600081565b610465610565366004611bdc565b610ede565b610465610578366004611bdc565b610eec565b6102d561058b366004611a72565b610efa565b6102ad61059e366004611a72565b610f07565b6103b46105b1366004611c54565b610f14565b6102d561107b565b6102d56105cc366004611a72565b611087565b6102f66105df366004611a72565b61109e565b6102d56105f2366004611cef565b6110b7565b6103b4610605366004611a8b565b6110ea565b6102d5610618366004611c8e565b6110f4565b6102d561062b366004611c54565b611116565b60c954610389906001600160a01b031681565b6102d56000805160206122a483398151915281565b6102d5610666366004611bdc565b611137565b6103b4610679366004611d88565b61114f565b6102f661068c366004611a72565b6111d1565b60006001600160e01b03198216635a05180f60e01b14806106b657506106b6826111ea565b92915050565b60006106f084846040516020016106d4929190611f57565b6040516020818303038152906040528051906020012083611137565b90505b9392505050565b60d56020526000908152604090208054610713906121e0565b80601f016020809104026020016040519081016040528092919081815260200182805461073f906121e0565b801561078c5780601f106107615761010080835404028352916020019161078c565b820191906000526020600020905b81548152906001019060200180831161076f57829003601f168201915b505050505081565b60006106f383836040516020016107ac929190611f57565b60405160208183030381529060405280519060200120610f07565b6000805160206122a48339815191526107e0813361121f565b6107eb60ca84611283565b156108275760405162461bcd60e51b81526020600482015260076024820152662165786973747360c81b60448201526064015b60405180910390fd5b61083260ca8461129b565b50600083815260cc602052604080822080546001600160a01b0319166001600160a01b0386169081179091559051909185917ff971fd948b9be62bcf3cb3a7a663e95857b2eb95ac8a7478b0362d9583a691fe9190a3505050565b61089782826112a7565b60008281526097602052604090206108af90826112cd565b505050565b6108be82826112e2565b60008281526097602052604090206108af908261135c565b6000805160206122c48339815191526108ef813361121f565b6108fa60ca87611283565b6109465760405162461bcd60e51b815260206004820152601760248201527f21737472617465677954797065206e6f7420666f756e64000000000000000000604482015260640161081e565b600061095360cd89611283565b600089815260cf602090815260408083208b905560d0909152902090915061097c908787611990565b50600088815260d160205260409020610996908585611990565b5080151587897f128dde6be881a1aa689e72df1389c8775dc0db31307d824dc7c5d4013e42d72060405160405180910390a45050505050505050565b6000807fdf8db4b3f0e355fdb17cbf7574c8af9d27ce4756db4efb6006ec8d3f04f391c4610a00813361121f565b604080516080810182526000808252602080830182905282840182905260608084019290925283518082018f90528085018e905284518082038601815292019093528051920191909120808252610a599060d390611283565b151560208083019190915260008c815260cf8252604080822054825260cc83528082205460c9548f845260d090945291819020905163782ef8e160e01b81526001600160a01b039283169363782ef8e193610abd939116918e908e90600401612033565b602060405180830381600087803b158015610ad757600080fd5b505af1158015610aeb573d6000803e3d6000fd5b505050506040513d601f19601f82011682018060405250810190610b0f9190611c71565b6001600160a01b0390811660408084019190915260c954815163040f1f6d60e11b8152915192169163081e3eda91600480820192602092909190829003018186803b158015610b5d57600080fd5b505afa158015610b71573d6000803e3d6000fd5b505050506040513d601f19601f82011682018060405250810190610b959190611ee9565b606082015260c95460408083015190516331b96fb560e11b81526001600160a01b03918216600482015261ffff88166024820152911690636372df6a90604401600060405180830381600087803b158015610bef57600080fd5b505af1158015610c03573d6000803e3d6000fd5b50508251600090815260d560205260409020610c23925090508888611990565b50805160008c815260d260205260409020610c3d9161129b565b508051606082018051600090815260d7602090815260408083209490945591518451825260d68352838220558351838501518451632495a59960e01b81529451610d0b95929460d894936001600160a01b0390931692632495a5999260048083019392829003018186803b158015610cb457600080fd5b505afa158015610cc8573d6000803e3d6000fd5b505050506040513d601f19601f82011682018060405250810190610cec9190611c71565b6001600160a01b0316815260208101919091526040016000209061129b565b50898b82606001517f05ff921a9f275cc75949cb0c8357b8866efe3e3bbd520b19b8cf59bf53c1a9258460200151604051610d4a911515815260200190565b60405180910390a48060600151816040015193509350505097509795505050505050565b6000805160206122a4833981519152610d87813361121f565b610db98484604051602001610d9d929190611f57565b60405160208183030381529060405280519060200120836107c7565b50505050565b6001600160a01b038316600090815260d8602052604090206060906106f0908484611371565b600083815260d2602052604090206060906106f0908484611371565b60606106f360ca8484611371565b60006106b660d383611455565b6060610e518585604051602001610e34929190611f57565b604051602081830303815290604052805190602001208484610de5565b95945050505050565b60006106b660ca83611455565b600081815260d2602052604081206106b690611461565b60008281526097602052604081206106f39083611455565b60009182526065602090815260408084206001600160a01b0393909316845291905290205460ff1690565b6000610ecd60ca611461565b905090565b6000610ecd60d3611461565b60606106f360cd8484611371565b60606106f360d38484611371565b60006106b660cd83611455565b60006106b660ca83611283565b600054610100900460ff1680610f2d575060005460ff16155b610f495760405162461bcd60e51b815260040161081e90612101565b600054610100900460ff16158015610f6b576000805461ffff19166101011790555b610f7361146b565b60c980546001600160a01b0319166001600160a01b0384169081179091556040805163040f1f6d60e11b8152905163081e3eda91600480820192602092909190829003018186803b158015610fc757600080fd5b505afa158015610fdb573d6000803e3d6000fd5b505050506040513d601f19601f82011682018060405250810190610fff9190611ee9565b5061100b6000336114f7565b6110236000805160206122a4833981519152336114f7565b61103b6000805160206122c4833981519152336114f7565b6110657fdf8db4b3f0e355fdb17cbf7574c8af9d27ce4756db4efb6006ec8d3f04f391c4336114f7565b8015611077576000805461ff00191690555b5050565b6000610ecd60cd611461565b60008181526097602052604081206106b690611461565b60d16020526000908152604090208054610713906121e0565b60006106f383836040516020016110cf929190611f57565b60405160208183030381529060405280519060200120610e67565b6108be8282611501565b6001600160a01b038216600090815260d8602052604081206106f39083611455565b6001600160a01b038116600090815260d8602052604081206106b690611461565b600082815260d2602052604081206106f39083611455565b6000805160206122c4833981519152611168813361121f565b6111c6898960405160200161117e929190611f57565b6040516020818303038152906040528051906020012088886040516020016111a7929190611f57565b60405160208183030381529060405280519060200120878787876108d6565b505050505050505050565b60d06020526000908152604090208054610713906121e0565b60006001600160e01b03198216637965db0b60e01b14806106b657506301ffc9a760e01b6001600160e01b03198316146106b6565b6112298282610e96565b61107757611241816001600160a01b03166014611527565b61124c836020611527565b60405160200161125d929190611f67565b60408051601f198184030181529082905262461bcd60e51b825261081e91600401612020565b600081815260018301602052604081205415156106f3565b60006106f383836116c3565b6000828152606560205260409020600101546112c3813361121f565b6108af8383611712565b60006106f3836001600160a01b0384166116c3565b6001600160a01b03811633146113525760405162461bcd60e51b815260206004820152602f60248201527f416363657373436f6e74726f6c3a2063616e206f6e6c792072656e6f756e636560448201526e103937b632b9903337b91039b2b63360891b606482015260840161081e565b6110778282611798565b60006106f3836001600160a01b0384166117ff565b6060600061137e85611461565b905080841061139d5750506040805160008152602081019091526106f3565b806113a8848661214f565b11156113bb576113b88482612186565b92505b60008367ffffffffffffffff8111156113d6576113d6612278565b6040519080825280602002602001820160405280156113ff578160200160208202803683370190505b50905060005b8481101561144b5761142261141a828861214f565b60ca90611455565b82828151811061143457611434612262565b5082915061144390508161221b565b915050611405565b5095945050505050565b60006106f383836118f2565b60006106b6825490565b600054610100900460ff1680611484575060005460ff16155b6114a05760405162461bcd60e51b815260040161081e90612101565b600054610100900460ff161580156114c2576000805461ffff19166101011790555b6114ca61191c565b6114d261191c565b6114da61191c565b6114e261191c565b80156114f4576000805461ff00191690555b50565b6108978282611986565b60008281526065602052604090206001015461151d813361121f565b6108af8383611798565b60606000611536836002612167565b61154190600261214f565b67ffffffffffffffff81111561155957611559612278565b6040519080825280601f01601f191660200182016040528015611583576020820181803683370190505b509050600360fc1b8160008151811061159e5761159e612262565b60200101906001600160f81b031916908160001a905350600f60fb1b816001815181106115cd576115cd612262565b60200101906001600160f81b031916908160001a90535060006115f1846002612167565b6115fc90600161214f565b90505b6001811115611674576f181899199a1a9b1b9c1cb0b131b232b360811b85600f166010811061163057611630612262565b1a60f81b82828151811061164657611646612262565b60200101906001600160f81b031916908160001a90535060049490941c9361166d816121c9565b90506115ff565b5083156106f35760405162461bcd60e51b815260206004820181905260248201527f537472696e67733a20686578206c656e67746820696e73756666696369656e74604482015260640161081e565b600081815260018301602052604081205461170a575081546001818101845560008481526020808220909301849055845484825282860190935260409020919091556106b6565b5060006106b6565b61171c8282610e96565b6110775760008281526065602090815260408083206001600160a01b03851684529091529020805460ff191660011790556117543390565b6001600160a01b0316816001600160a01b0316837f2f8788117e7eff1d82e926ec794901d17c78024a50270940304540a733656f0d60405160405180910390a45050565b6117a28282610e96565b156110775760008281526065602090815260408083206001600160a01b0385168085529252808320805460ff1916905551339285917ff6391f5c32d9c69d2a47ea670b442974b53935d1edc7fd64eb21e047a839171b9190a45050565b600081815260018301602052604081205480156118e8576000611823600183612186565b855490915060009061183790600190612186565b905081811461189c57600086600001828154811061185757611857612262565b906000526020600020015490508087600001848154811061187a5761187a612262565b6000918252602080832090910192909255918252600188019052604090208390555b85548690806118ad576118ad61224c565b6001900381819060005260206000200160009055905585600101600086815260200190815260200160002060009055600193505050506106b6565b60009150506106b6565b600082600001828154811061190957611909612262565b9060005260206000200154905092915050565b600054610100900460ff1680611935575060005460ff16155b6119515760405162461bcd60e51b815260040161081e90612101565b600054610100900460ff161580156114e2576000805461ffff191661010117905580156114f4576000805461ff001916905550565b6110778282611712565b82805461199c906121e0565b90600052602060002090601f0160209004810192826119be5760008555611a04565b82601f106119d75782800160ff19823516178555611a04565b82800160010185558215611a04579182015b82811115611a045782358255916020019190600101906119e9565b50611a10929150611a14565b5090565b5b80821115611a105760008155600101611a15565b60008083601f840112611a3b57600080fd5b50813567ffffffffffffffff811115611a5357600080fd5b602083019150836020828501011115611a6b57600080fd5b9250929050565b600060208284031215611a8457600080fd5b5035919050565b60008060408385031215611a9e57600080fd5b823591506020830135611ab08161228e565b809150509250929050565b60008060008060008060808789031215611ad457600080fd5b8635955060208701359450604087013567ffffffffffffffff80821115611afa57600080fd5b611b068a838b01611a29565b90965094506060890135915080821115611b1f57600080fd5b50611b2c89828a01611a29565b979a9699509497509295939492505050565b600080600080600080600060a0888a031215611b5957600080fd5b8735965060208801359550604088013567ffffffffffffffff80821115611b7f57600080fd5b611b8b8b838c01611a29565b909750955060608a0135915080821115611ba457600080fd5b50611bb18a828b01611a29565b909450925050608088013561ffff81168114611bcc57600080fd5b8091505092959891949750929550565b60008060408385031215611bef57600080fd5b50508035926020909101359150565b600080600060608486031215611c1357600080fd5b505081359360208301359350604090920135919050565b600060208284031215611c3c57600080fd5b81356001600160e01b0319811681146106f357600080fd5b600060208284031215611c6657600080fd5b81356106f38161228e565b600060208284031215611c8357600080fd5b81516106f38161228e565b60008060408385031215611ca157600080fd5b8235611cac8161228e565b946020939093013593505050565b600080600060608486031215611ccf57600080fd5b8335611cda8161228e565b95602085013595506040909401359392505050565b60008060208385031215611d0257600080fd5b823567ffffffffffffffff811115611d1957600080fd5b611d2585828601611a29565b90969095509350505050565b600080600060408486031215611d4657600080fd5b833567ffffffffffffffff811115611d5d57600080fd5b611d6986828701611a29565b9094509250506020840135611d7d8161228e565b809150509250925092565b6000806000806000806000806080898b031215611da457600080fd5b883567ffffffffffffffff80821115611dbc57600080fd5b611dc88c838d01611a29565b909a50985060208b0135915080821115611de157600080fd5b611ded8c838d01611a29565b909850965060408b0135915080821115611e0657600080fd5b611e128c838d01611a29565b909650945060608b0135915080821115611e2b57600080fd5b50611e388b828c01611a29565b999c989b5096995094979396929594505050565b600080600060408486031215611e6157600080fd5b833567ffffffffffffffff811115611e7857600080fd5b611e8486828701611a29565b909790965060209590950135949350505050565b60008060008060608587031215611eae57600080fd5b843567ffffffffffffffff811115611ec557600080fd5b611ed187828801611a29565b90989097506020870135966040013595509350505050565b600060208284031215611efb57600080fd5b5051919050565b81835281816020850137506000828201602090810191909152601f909101601f19169091010190565b60008151808452611f4381602086016020860161219d565b601f01601f19169290920160200192915050565b8183823760009101908152919050565b7f416363657373436f6e74726f6c3a206163636f756e7420000000000000000000815260008351611f9f81601785016020880161219d565b7001034b99036b4b9b9b4b733903937b6329607d1b6017918401918201528351611fd081602884016020880161219d565b01602801949350505050565b6020808252825182820181905260009190848201906040850190845b8181101561201457835183529284019291840191600101611ff8565b50909695505050505050565b6020815260006106f36020830184611f2b565b60018060a01b0385168152600060206060818401526000865481600182811c91508083168061206357607f831692505b85831081141561208157634e487b7160e01b85526022600452602485fd5b60608801839052608088018180156120a057600181146120b1576120dc565b60ff198616825287820196506120dc565b60008d81526020902060005b868110156120d6578154848201529085019089016120bd565b83019750505b50505050505083810360408501526120f5818688611f02565b98975050505050505050565b6020808252602e908201527f496e697469616c697a61626c653a20636f6e747261637420697320616c72656160408201526d191e481a5b9a5d1a585b1a5e995960921b606082015260800190565b6000821982111561216257612162612236565b500190565b600081600019048311821515161561218157612181612236565b500290565b60008282101561219857612198612236565b500390565b60005b838110156121b85781810151838201526020016121a0565b83811115610db95750506000910152565b6000816121d8576121d8612236565b506000190190565b600181811c908216806121f457607f821691505b6020821081141561221557634e487b7160e01b600052602260045260246000fd5b50919050565b600060001982141561222f5761222f612236565b5060010190565b634e487b7160e01b600052601160045260246000fd5b634e487b7160e01b600052603160045260246000fd5b634e487b7160e01b600052603260045260246000fd5b634e487b7160e01b600052604160045260246000fd5b6001600160a01b03811681146114f457600080fdfee71ec9665f24fd34c984715bd779a0519d33e9ab5ea271286986ff1d631504cf2346b08f6a458a95934836936988f77c5b147e7700d817767c56316d1a6f469ca2646970667358221220c7bd563e8ac8f7d0b1bea52cd95c71dbfe964cc9961348fd9a2501bec3822aeb64736f6c63430008060033",
  "devdoc": {
    "details": "All strategy types, projects and individual strategies are stored as keccak256 hashes. The deployed strategies are identified by keccak256(keccak256(projectId), keccak256(strategyId)).VAULTCHEF AUTH: The StrategyFactory must have the ADD_VAULT_ROLE on the governor.",
    "kind": "dev",
    "methods": {
      "getRoleAdmin(bytes32)": {
        "details": "Returns the admin role that controls `role`. See {grantRole} and {revokeRole}. To change a role's admin, use {_setRoleAdmin}."
      },
      "getRoleMember(bytes32,uint256)": {
        "details": "Returns one of the accounts that have `role`. `index` must be a value between 0 and {getRoleMemberCount}, non-inclusive. Role bearers are not sorted in any particular way, and their ordering may change at any point. WARNING: When using {getRoleMember} and {getRoleMemberCount}, make sure you perform all queries on the same block. See the following https://forum.openzeppelin.com/t/iterating-over-elements-on-enumerableset-in-openzeppelin-contracts/2296[forum post] for more information."
      },
      "getRoleMemberCount(bytes32)": {
        "details": "Returns the number of accounts that have `role`. Can be used together with {getRoleMember} to enumerate all bearers of a role."
      },
      "grantRole(bytes32,address)": {
        "details": "Overload {grantRole} to track enumerable memberships"
      },
      "hasRole(bytes32,address)": {
        "details": "Returns `true` if `account` has been granted `role`."
      },
      "renounceRole(bytes32,address)": {
        "details": "Overload {renounceRole} to track enumerable memberships"
      },
      "revokeRole(bytes32,address)": {
        "details": "Overload {revokeRole} to track enumerable memberships"
      },
      "supportsInterface(bytes4)": {
        "details": "See {IERC165-supportsInterface}."
      }
    },
    "stateVariables": {
      "strategies": {
        "details": "These are identified as keccak256(abi.encodePacked(keccak256(projectId), keccak256(strategyId)))."
      }
    },
    "version": 1
  },
  "userdoc": {
    "kind": "user",
    "methods": {
      "getProjectAt(uint256)": {
        "notice": "Gets the project hash at a specific index in the listing."
      },
      "getProjectStrategies(string,uint256,uint256)": {
        "notice": "Lists the project's strategy hashes within a specific range in the listing."
      },
      "getProjectStrategiesLength(string)": {
        "notice": "Gets the length (number) of strategies of a project listing."
      },
      "getProjectStrategiesLengthRaw(bytes32)": {
        "notice": "Gets the length (number) of strategies of a project listing."
      },
      "getProjectStrategiesRaw(bytes32,uint256,uint256)": {
        "notice": "Lists the project's strategy hashes within a specific range in the listing."
      },
      "getProjectStrategyAt(string,uint256)": {
        "notice": "Gets the project's strategy hash at a specific index in the listing."
      },
      "getProjectStrategyAtRaw(bytes32,uint256)": {
        "notice": "Gets the project's strategy hash at a specific index in the listing."
      },
      "getProjects(uint256,uint256)": {
        "notice": "Lists the project hashes within a specific range in the listing."
      },
      "getProjectsLength()": {
        "notice": "Gets the length of the projects listing."
      },
      "getStrategies(uint256,uint256)": {
        "notice": "Lists the strategy hashes within a specific range in the listing."
      },
      "getStrategiesLength()": {
        "notice": "Gets the length (number) of strategies of a project listing."
      },
      "getStrategyAt(uint256)": {
        "notice": "Gets the strategy hash at a specific index in the listing."
      },
      "getStrategyTypeAt(uint256)": {
        "notice": "Gets the strategyType hash at a specific index in the listing."
      },
      "getStrategyTypeLength()": {
        "notice": "Gets the length of the strategyType listing."
      },
      "getStrategyTypes(uint256,uint256)": {
        "notice": "Lists the strategyType hashes within a specific range in the listing."
      },
      "getUnderlyingStrategies(address,uint256,uint256)": {
        "notice": "Lists the underlying tokens's strategy hashes within a specific range in the listing."
      },
      "getUnderlyingStrategiesLength(address)": {
        "notice": "Gets the length (number) of strategies of a project listing."
      },
      "getUnderlyingStrategyAt(address,uint256)": {
        "notice": "Gets the underlying tokens's strategy hash at a specific index in the listing."
      },
      "isProject(string)": {
        "notice": "Returns whether the unhashed `projectId` is registered."
      },
      "isProjectRaw(bytes32)": {
        "notice": "Returns whether the hashed `projectId` is registered."
      },
      "isStrategyType(string)": {
        "notice": "Returns whether the unhashed `strategyType` is registered."
      },
      "isStrategyTypeRaw(bytes32)": {
        "notice": "Returns whether the hashed `strategyType` is registered."
      },
      "projectMetadata(bytes32)": {
        "notice": "Metadata associated with the project that can be used on the frontend, expected to be encoded in UTF-8 JSON.Even though not ideomatic, this is a cheap solution to avoid infrastructure downtime within the first months after launch."
      },
      "projectParams(bytes32)": {
        "notice": "Generic parameters that will always be forwarded to the subfactory. This could for example be the native token."
      },
      "projectStrategyType(bytes32)": {
        "notice": "The associated strategy type hash of the project. All strategies under the project will thus be deployed using the subfactory of this strategy type."
      },
      "strategyMetadata(bytes32)": {
        "notice": "Metadata associated with the strategy that can be used on the frontend, expected to be encoded in UTF-8 JSON.Even though not ideomatic, this is a cheap solution to avoid infrastructure downtime within the first months after launch."
      },
      "subfactoryByType(bytes32)": {
        "notice": "Returns the registered subfactory of the strategy type. The subfactory is responsible for instantiating factories."
      },
      "vaultChef()": {
        "notice": "The instance of the vaultChef to deploy strategies to."
      },
      "vaultIdToStrategy(uint256)": {
        "notice": "Gets the strategy id associated with the vaultId."
      }
    },
    "notice": "The strategy factory is a utility contracts used by Violin to deploy new strategies more swiftly and securely.The admin can register strategy types together with a SubFactory that creates instances of the relevant strategy type.Examples of strategy types are MC_PCS_V1, MC_GOOSE_V1, MC_PANTHER_V1...Once a few types are registered, new strategies can be easily deployed by registering the relevant project and then instantiating strategies on that project.",
    "version": 1
  },
  "storageLayout": {
    "storage": [
      {
        "astId": 648,
        "contract": "contracts/factories/StrategyFactory.sol:StrategyFactory",
        "label": "_initialized",
        "offset": 0,
        "slot": "0",
        "type": "t_bool"
      },
      {
        "astId": 651,
        "contract": "contracts/factories/StrategyFactory.sol:StrategyFactory",
        "label": "_initializing",
        "offset": 1,
        "slot": "0",
        "type": "t_bool"
      },
      {
        "astId": 731,
        "contract": "contracts/factories/StrategyFactory.sol:StrategyFactory",
        "label": "__gap",
        "offset": 0,
        "slot": "1",
        "type": "t_array(t_uint256)50_storage"
      },
      {
        "astId": 980,
        "contract": "contracts/factories/StrategyFactory.sol:StrategyFactory",
        "label": "__gap",
        "offset": 0,
        "slot": "51",
        "type": "t_array(t_uint256)50_storage"
      },
      {
        "astId": 258,
        "contract": "contracts/factories/StrategyFactory.sol:StrategyFactory",
        "label": "_roles",
        "offset": 0,
        "slot": "101",
        "type": "t_mapping(t_bytes32,t_struct(RoleData)253_storage)"
      },
      {
        "astId": 543,
        "contract": "contracts/factories/StrategyFactory.sol:StrategyFactory",
        "label": "__gap",
        "offset": 0,
        "slot": "102",
        "type": "t_array(t_uint256)49_storage"
      },
      {
        "astId": 45,
        "contract": "contracts/factories/StrategyFactory.sol:StrategyFactory",
        "label": "_roleMembers",
        "offset": 0,
        "slot": "151",
        "type": "t_mapping(t_bytes32,t_struct(AddressSet)1305_storage)"
      },
      {
        "astId": 208,
        "contract": "contracts/factories/StrategyFactory.sol:StrategyFactory",
        "label": "__gap",
        "offset": 0,
        "slot": "152",
        "type": "t_array(t_uint256)49_storage"
      },
      {
        "astId": 3082,
        "contract": "contracts/factories/StrategyFactory.sol:StrategyFactory",
        "label": "vaultChef",
        "offset": 0,
        "slot": "201",
        "type": "t_contract(IVaultChef)4153"
      },
      {
        "astId": 3086,
        "contract": "contracts/factories/StrategyFactory.sol:StrategyFactory",
        "label": "strategyTypes",
        "offset": 0,
        "slot": "202",
        "type": "t_struct(Bytes32Set)1198_storage"
      },
      {
        "astId": 3092,
        "contract": "contracts/factories/StrategyFactory.sol:StrategyFactory",
        "label": "subfactoryByType",
        "offset": 0,
        "slot": "204",
        "type": "t_mapping(t_bytes32,t_contract(ISubFactory)4143)"
      },
      {
        "astId": 3096,
        "contract": "contracts/factories/StrategyFactory.sol:StrategyFactory",
        "label": "projects",
        "offset": 0,
        "slot": "205",
        "type": "t_struct(Bytes32Set)1198_storage"
      },
      {
        "astId": 3101,
        "contract": "contracts/factories/StrategyFactory.sol:StrategyFactory",
        "label": "projectStrategyType",
        "offset": 0,
        "slot": "207",
        "type": "t_mapping(t_bytes32,t_bytes32)"
      },
      {
        "astId": 3106,
        "contract": "contracts/factories/StrategyFactory.sol:StrategyFactory",
        "label": "projectParams",
        "offset": 0,
        "slot": "208",
        "type": "t_mapping(t_bytes32,t_bytes_storage)"
      },
      {
        "astId": 3111,
        "contract": "contracts/factories/StrategyFactory.sol:StrategyFactory",
        "label": "projectMetadata",
        "offset": 0,
        "slot": "209",
        "type": "t_mapping(t_bytes32,t_bytes_storage)"
      },
      {
        "astId": 3117,
        "contract": "contracts/factories/StrategyFactory.sol:StrategyFactory",
        "label": "projectStrategies",
        "offset": 0,
        "slot": "210",
        "type": "t_mapping(t_bytes32,t_struct(Bytes32Set)1198_storage)"
      },
      {
        "astId": 3121,
        "contract": "contracts/factories/StrategyFactory.sol:StrategyFactory",
        "label": "strategies",
        "offset": 0,
        "slot": "211",
        "type": "t_struct(Bytes32Set)1198_storage"
      },
      {
        "astId": 3126,
        "contract": "contracts/factories/StrategyFactory.sol:StrategyFactory",
        "label": "strategyMetadata",
        "offset": 0,
        "slot": "213",
        "type": "t_mapping(t_bytes32,t_bytes_storage)"
      },
      {
        "astId": 3131,
        "contract": "contracts/factories/StrategyFactory.sol:StrategyFactory",
        "label": "strategyToVaultId",
        "offset": 0,
        "slot": "214",
        "type": "t_mapping(t_bytes32,t_uint256)"
      },
      {
        "astId": 3136,
        "contract": "contracts/factories/StrategyFactory.sol:StrategyFactory",
        "label": "vaultIdToStrategy",
        "offset": 0,
        "slot": "215",
        "type": "t_mapping(t_uint256,t_bytes32)"
      },
      {
        "astId": 3143,
        "contract": "contracts/factories/StrategyFactory.sol:StrategyFactory",
        "label": "underlyingToStrategies",
        "offset": 0,
        "slot": "216",
        "type": "t_mapping(t_contract(IERC20)2338,t_struct(Bytes32Set)1198_storage)"
      }
    ],
    "types": {
      "t_address": {
        "encoding": "inplace",
        "label": "address",
        "numberOfBytes": "20"
      },
      "t_array(t_bytes32)dyn_storage": {
        "base": "t_bytes32",
        "encoding": "dynamic_array",
        "label": "bytes32[]",
        "numberOfBytes": "32"
      },
      "t_array(t_uint256)49_storage": {
        "base": "t_uint256",
        "encoding": "inplace",
        "label": "uint256[49]",
        "numberOfBytes": "1568"
      },
      "t_array(t_uint256)50_storage": {
        "base": "t_uint256",
        "encoding": "inplace",
        "label": "uint256[50]",
        "numberOfBytes": "1600"
      },
      "t_bool": {
        "encoding": "inplace",
        "label": "bool",
        "numberOfBytes": "1"
      },
      "t_bytes32": {
        "encoding": "inplace",
        "label": "bytes32",
        "numberOfBytes": "32"
      },
      "t_bytes_storage": {
        "encoding": "bytes",
        "label": "bytes",
        "numberOfBytes": "32"
      },
      "t_contract(IERC20)2338": {
        "encoding": "inplace",
        "label": "contract IERC20",
        "numberOfBytes": "20"
      },
      "t_contract(ISubFactory)4143": {
        "encoding": "inplace",
        "label": "contract ISubFactory",
        "numberOfBytes": "20"
      },
      "t_contract(IVaultChef)4153": {
        "encoding": "inplace",
        "label": "contract IVaultChef",
        "numberOfBytes": "20"
      },
      "t_mapping(t_address,t_bool)": {
        "encoding": "mapping",
        "key": "t_address",
        "label": "mapping(address => bool)",
        "numberOfBytes": "32",
        "value": "t_bool"
      },
      "t_mapping(t_bytes32,t_bytes32)": {
        "encoding": "mapping",
        "key": "t_bytes32",
        "label": "mapping(bytes32 => bytes32)",
        "numberOfBytes": "32",
        "value": "t_bytes32"
      },
      "t_mapping(t_bytes32,t_bytes_storage)": {
        "encoding": "mapping",
        "key": "t_bytes32",
        "label": "mapping(bytes32 => bytes)",
        "numberOfBytes": "32",
        "value": "t_bytes_storage"
      },
      "t_mapping(t_bytes32,t_contract(ISubFactory)4143)": {
        "encoding": "mapping",
        "key": "t_bytes32",
        "label": "mapping(bytes32 => contract ISubFactory)",
        "numberOfBytes": "32",
        "value": "t_contract(ISubFactory)4143"
      },
      "t_mapping(t_bytes32,t_struct(AddressSet)1305_storage)": {
        "encoding": "mapping",
        "key": "t_bytes32",
        "label": "mapping(bytes32 => struct EnumerableSetUpgradeable.AddressSet)",
        "numberOfBytes": "32",
        "value": "t_struct(AddressSet)1305_storage"
      },
      "t_mapping(t_bytes32,t_struct(Bytes32Set)1198_storage)": {
        "encoding": "mapping",
        "key": "t_bytes32",
        "label": "mapping(bytes32 => struct EnumerableSetUpgradeable.Bytes32Set)",
        "numberOfBytes": "32",
        "value": "t_struct(Bytes32Set)1198_storage"
      },
      "t_mapping(t_bytes32,t_struct(RoleData)253_storage)": {
        "encoding": "mapping",
        "key": "t_bytes32",
        "label": "mapping(bytes32 => struct AccessControlUpgradeable.RoleData)",
        "numberOfBytes": "32",
        "value": "t_struct(RoleData)253_storage"
      },
      "t_mapping(t_bytes32,t_uint256)": {
        "encoding": "mapping",
        "key": "t_bytes32",
        "label": "mapping(bytes32 => uint256)",
        "numberOfBytes": "32",
        "value": "t_uint256"
      },
      "t_mapping(t_contract(IERC20)2338,t_struct(Bytes32Set)1198_storage)": {
        "encoding": "mapping",
        "key": "t_contract(IERC20)2338",
        "label": "mapping(contract IERC20 => struct EnumerableSetUpgradeable.Bytes32Set)",
        "numberOfBytes": "32",
        "value": "t_struct(Bytes32Set)1198_storage"
      },
      "t_mapping(t_uint256,t_bytes32)": {
        "encoding": "mapping",
        "key": "t_uint256",
        "label": "mapping(uint256 => bytes32)",
        "numberOfBytes": "32",
        "value": "t_bytes32"
      },
      "t_struct(AddressSet)1305_storage": {
        "encoding": "inplace",
        "label": "struct EnumerableSetUpgradeable.AddressSet",
        "members": [
          {
            "astId": 1304,
            "contract": "contracts/factories/StrategyFactory.sol:StrategyFactory",
            "label": "_inner",
            "offset": 0,
            "slot": "0",
            "type": "t_struct(Set)1004_storage"
          }
        ],
        "numberOfBytes": "64"
      },
      "t_struct(Bytes32Set)1198_storage": {
        "encoding": "inplace",
        "label": "struct EnumerableSetUpgradeable.Bytes32Set",
        "members": [
          {
            "astId": 1197,
            "contract": "contracts/factories/StrategyFactory.sol:StrategyFactory",
            "label": "_inner",
            "offset": 0,
            "slot": "0",
            "type": "t_struct(Set)1004_storage"
          }
        ],
        "numberOfBytes": "64"
      },
      "t_struct(RoleData)253_storage": {
        "encoding": "inplace",
        "label": "struct AccessControlUpgradeable.RoleData",
        "members": [
          {
            "astId": 250,
            "contract": "contracts/factories/StrategyFactory.sol:StrategyFactory",
            "label": "members",
            "offset": 0,
            "slot": "0",
            "type": "t_mapping(t_address,t_bool)"
          },
          {
            "astId": 252,
            "contract": "contracts/factories/StrategyFactory.sol:StrategyFactory",
            "label": "adminRole",
            "offset": 0,
            "slot": "1",
            "type": "t_bytes32"
          }
        ],
        "numberOfBytes": "64"
      },
      "t_struct(Set)1004_storage": {
        "encoding": "inplace",
        "label": "struct EnumerableSetUpgradeable.Set",
        "members": [
          {
            "astId": 999,
            "contract": "contracts/factories/StrategyFactory.sol:StrategyFactory",
            "label": "_values",
            "offset": 0,
            "slot": "0",
            "type": "t_array(t_bytes32)dyn_storage"
          },
          {
            "astId": 1003,
            "contract": "contracts/factories/StrategyFactory.sol:StrategyFactory",
            "label": "_indexes",
            "offset": 0,
            "slot": "1",
            "type": "t_mapping(t_bytes32,t_uint256)"
          }
        ],
        "numberOfBytes": "64"
      },
      "t_uint256": {
        "encoding": "inplace",
        "label": "uint256",
        "numberOfBytes": "32"
      }
    }
  }
}