{
  "address": "0xFde3df42E6Ada57Dae27C7CDEF21a16301795Dd9",
  "abi": [
    {
      "anonymous": false,
      "inputs": [
        {
          "indexed": true,
          "internalType": "bytes32",
          "name": "projectId",
          "type": "bytes32"
        },
        {
          "indexed": true,
          "internalType": "bytes32",
          "name": "strategyType",
          "type": "bytes32"
        },
        {
          "indexed": true,
          "internalType": "bool",
          "name": "isUpdate",
          "type": "bool"
        }
      ],
      "name": "ProjectRegistered",
      "type": "event"
    },
    {
      "anonymous": false,
      "inputs": [
        {
          "indexed": true,
          "internalType": "bytes32",
          "name": "role",
          "type": "bytes32"
        },
        {
          "indexed": true,
          "internalType": "bytes32",
          "name": "previousAdminRole",
          "type": "bytes32"
        },
        {
          "indexed": true,
          "internalType": "bytes32",
          "name": "newAdminRole",
          "type": "bytes32"
        }
      ],
      "name": "RoleAdminChanged",
      "type": "event"
    },
    {
      "anonymous": false,
      "inputs": [
        {
          "indexed": true,
          "internalType": "bytes32",
          "name": "role",
          "type": "bytes32"
        },
        {
          "indexed": true,
          "internalType": "address",
          "name": "account",
          "type": "address"
        },
        {
          "indexed": true,
          "internalType": "address",
          "name": "sender",
          "type": "address"
        }
      ],
      "name": "RoleGranted",
      "type": "event"
    },
    {
      "anonymous": false,
      "inputs": [
        {
          "indexed": true,
          "internalType": "bytes32",
          "name": "role",
          "type": "bytes32"
        },
        {
          "indexed": true,
          "internalType": "address",
          "name": "account",
          "type": "address"
        },
        {
          "indexed": true,
          "internalType": "address",
          "name": "sender",
          "type": "address"
        }
      ],
      "name": "RoleRevoked",
      "type": "event"
    },
    {
      "anonymous": false,
      "inputs": [
        {
          "indexed": true,
          "internalType": "bytes32",
          "name": "strategyType",
          "type": "bytes32"
        },
        {
          "indexed": true,
          "internalType": "contract ISubFactory",
          "name": "subfactory",
          "type": "address"
        }
      ],
      "name": "StrategyTypeAdded",
      "type": "event"
    },
    {
      "anonymous": false,
      "inputs": [
        {
          "indexed": true,
          "internalType": "uint256",
          "name": "vaultId",
          "type": "uint256"
        },
        {
          "indexed": true,
          "internalType": "bytes32",
          "name": "projectId",
          "type": "bytes32"
        },
        {
          "indexed": true,
          "internalType": "bytes32",
          "name": "strategyId",
          "type": "bytes32"
        },
        {
          "indexed": false,
          "internalType": "bool",
          "name": "isUpdate",
          "type": "bool"
        }
      ],
      "name": "VaultRegistered",
      "type": "event"
    },
    {
      "inputs": [],
      "name": "CREATE_VAULT_ROLE",
      "outputs": [
        {
          "internalType": "bytes32",
          "name": "",
          "type": "bytes32"
        }
      ],
      "stateMutability": "view",
      "type": "function"
    },
    {
      "inputs": [],
      "name": "DEFAULT_ADMIN_ROLE",
      "outputs": [
        {
          "internalType": "bytes32",
          "name": "",
          "type": "bytes32"
        }
      ],
      "stateMutability": "view",
      "type": "function"
    },
    {
      "inputs": [],
      "name": "REGISTER_PROJECT_ROLE",
      "outputs": [
        {
          "internalType": "bytes32",
          "name": "",
          "type": "bytes32"
        }
      ],
      "stateMutability": "view",
      "type": "function"
    },
    {
      "inputs": [],
      "name": "REGISTER_STRATEGY_ROLE",
      "outputs": [
        {
          "internalType": "bytes32",
          "name": "",
          "type": "bytes32"
        }
      ],
      "stateMutability": "view",
      "type": "function"
    },
    {
      "inputs": [
        {
          "internalType": "string",
          "name": "projectId",
          "type": "string"
        },
        {
          "internalType": "string",
          "name": "strategyId",
          "type": "string"
        },
        {
          "internalType": "contract IERC20",
          "name": "underlyingToken",
          "type": "address"
        },
        {
          "internalType": "bytes",
          "name": "params",
          "type": "bytes"
        },
        {
          "internalType": "bytes",
          "name": "metadata",
          "type": "bytes"
        },
        {
          "internalType": "uint16",
          "name": "performanceFee",
          "type": "uint16"
        }
      ],
      "name": "createVault",
      "outputs": [
        {
          "internalType": "uint256",
          "name": "",
          "type": "uint256"
        },
        {
          "internalType": "contract IStrategy",
          "name": "",
          "type": "address"
        }
      ],
      "stateMutability": "nonpayable",
      "type": "function"
    },
    {
      "inputs": [
        {
          "internalType": "bytes32",
          "name": "projectId",
          "type": "bytes32"
        },
        {
          "internalType": "bytes32",
          "name": "strategyId",
          "type": "bytes32"
        },
        {
          "internalType": "contract IERC20",
          "name": "underlyingToken",
          "type": "address"
        },
        {
          "internalType": "bytes",
          "name": "params",
          "type": "bytes"
        },
        {
          "internalType": "bytes",
          "name": "metadata",
          "type": "bytes"
        },
        {
          "internalType": "uint16",
          "name": "performanceFee",
          "type": "uint16"
        }
      ],
      "name": "createVaultRaw",
      "outputs": [
        {
          "internalType": "uint256",
          "name": "",
          "type": "uint256"
        },
        {
          "internalType": "contract IStrategy",
          "name": "",
          "type": "address"
        }
      ],
      "stateMutability": "nonpayable",
      "type": "function"
    },
    {
      "inputs": [
        {
          "internalType": "uint256",
          "name": "index",
          "type": "uint256"
        }
      ],
      "name": "getProjectAt",
      "outputs": [
        {
          "internalType": "bytes32",
          "name": "",
          "type": "bytes32"
        }
      ],
      "stateMutability": "view",
      "type": "function"
    },
    {
      "inputs": [
        {
          "internalType": "string",
          "name": "projectId",
          "type": "string"
        },
        {
          "internalType": "uint256",
          "name": "from",
          "type": "uint256"
        },
        {
          "internalType": "uint256",
          "name": "amount",
          "type": "uint256"
        }
      ],
      "name": "getProjectStrategies",
      "outputs": [
        {
          "internalType": "bytes32[]",
          "name": "",
          "type": "bytes32[]"
        }
      ],
      "stateMutability": "view",
      "type": "function"
    },
    {
      "inputs": [
        {
          "internalType": "string",
          "name": "projectId",
          "type": "string"
        }
      ],
      "name": "getProjectStrategiesLength",
      "outputs": [
        {
          "internalType": "uint256",
          "name": "",
          "type": "uint256"
        }
      ],
      "stateMutability": "view",
      "type": "function"
    },
    {
      "inputs": [
        {
          "internalType": "bytes32",
          "name": "projectId",
          "type": "bytes32"
        }
      ],
      "name": "getProjectStrategiesLengthRaw",
      "outputs": [
        {
          "internalType": "uint256",
          "name": "",
          "type": "uint256"
        }
      ],
      "stateMutability": "view",
      "type": "function"
    },
    {
      "inputs": [
        {
          "internalType": "bytes32",
          "name": "projectId",
          "type": "bytes32"
        },
        {
          "internalType": "uint256",
          "name": "from",
          "type": "uint256"
        },
        {
          "internalType": "uint256",
          "name": "amount",
          "type": "uint256"
        }
      ],
      "name": "getProjectStrategiesRaw",
      "outputs": [
        {
          "internalType": "bytes32[]",
          "name": "",
          "type": "bytes32[]"
        }
      ],
      "stateMutability": "view",
      "type": "function"
    },
    {
      "inputs": [
        {
          "internalType": "string",
          "name": "projectId",
          "type": "string"
        },
        {
          "internalType": "uint256",
          "name": "index",
          "type": "uint256"
        }
      ],
      "name": "getProjectStrategyAt",
      "outputs": [
        {
          "internalType": "bytes32",
          "name": "",
          "type": "bytes32"
        }
      ],
      "stateMutability": "view",
      "type": "function"
    },
    {
      "inputs": [
        {
          "internalType": "bytes32",
          "name": "projectId",
          "type": "bytes32"
        },
        {
          "internalType": "uint256",
          "name": "index",
          "type": "uint256"
        }
      ],
      "name": "getProjectStrategyAtRaw",
      "outputs": [
        {
          "internalType": "bytes32",
          "name": "",
          "type": "bytes32"
        }
      ],
      "stateMutability": "view",
      "type": "function"
    },
    {
      "inputs": [
        {
          "internalType": "uint256",
          "name": "from",
          "type": "uint256"
        },
        {
          "internalType": "uint256",
          "name": "amount",
          "type": "uint256"
        }
      ],
      "name": "getProjects",
      "outputs": [
        {
          "internalType": "bytes32[]",
          "name": "",
          "type": "bytes32[]"
        }
      ],
      "stateMutability": "view",
      "type": "function"
    },
    {
      "inputs": [],
      "name": "getProjectsLength",
      "outputs": [
        {
          "internalType": "uint256",
          "name": "",
          "type": "uint256"
        }
      ],
      "stateMutability": "view",
      "type": "function"
    },
    {
      "inputs": [
        {
          "internalType": "bytes32",
          "name": "role",
          "type": "bytes32"
        }
      ],
      "name": "getRoleAdmin",
      "outputs": [
        {
          "internalType": "bytes32",
          "name": "",
          "type": "bytes32"
        }
      ],
      "stateMutability": "view",
      "type": "function"
    },
    {
      "inputs": [
        {
          "internalType": "bytes32",
          "name": "role",
          "type": "bytes32"
        },
        {
          "internalType": "uint256",
          "name": "index",
          "type": "uint256"
        }
      ],
      "name": "getRoleMember",
      "outputs": [
        {
          "internalType": "address",
          "name": "",
          "type": "address"
        }
      ],
      "stateMutability": "view",
      "type": "function"
    },
    {
      "inputs": [
        {
          "internalType": "bytes32",
          "name": "role",
          "type": "bytes32"
        }
      ],
      "name": "getRoleMemberCount",
      "outputs": [
        {
          "internalType": "uint256",
          "name": "",
          "type": "uint256"
        }
      ],
      "stateMutability": "view",
      "type": "function"
    },
    {
      "inputs": [
        {
          "internalType": "uint256",
          "name": "from",
          "type": "uint256"
        },
        {
          "internalType": "uint256",
          "name": "amount",
          "type": "uint256"
        }
      ],
      "name": "getStrategies",
      "outputs": [
        {
          "internalType": "bytes32[]",
          "name": "",
          "type": "bytes32[]"
        }
      ],
      "stateMutability": "view",
      "type": "function"
    },
    {
      "inputs": [],
      "name": "getStrategiesLength",
      "outputs": [
        {
          "internalType": "uint256",
          "name": "",
          "type": "uint256"
        }
      ],
      "stateMutability": "view",
      "type": "function"
    },
    {
      "inputs": [
        {
          "internalType": "uint256",
          "name": "index",
          "type": "uint256"
        }
      ],
      "name": "getStrategyAt",
      "outputs": [
        {
          "internalType": "bytes32",
          "name": "",
          "type": "bytes32"
        }
      ],
      "stateMutability": "view",
      "type": "function"
    },
    {
      "inputs": [
        {
          "internalType": "uint256",
          "name": "index",
          "type": "uint256"
        }
      ],
      "name": "getStrategyTypeAt",
      "outputs": [
        {
          "internalType": "bytes32",
          "name": "",
          "type": "bytes32"
        }
      ],
      "stateMutability": "view",
      "type": "function"
    },
    {
      "inputs": [],
      "name": "getStrategyTypeLength",
      "outputs": [
        {
          "internalType": "uint256",
          "name": "",
          "type": "uint256"
        }
      ],
      "stateMutability": "view",
      "type": "function"
    },
    {
      "inputs": [
        {
          "internalType": "uint256",
          "name": "from",
          "type": "uint256"
        },
        {
          "internalType": "uint256",
          "name": "amount",
          "type": "uint256"
        }
      ],
      "name": "getStrategyTypes",
      "outputs": [
        {
          "internalType": "bytes32[]",
          "name": "",
          "type": "bytes32[]"
        }
      ],
      "stateMutability": "view",
      "type": "function"
    },
    {
      "inputs": [
        {
          "internalType": "contract IERC20",
          "name": "token",
          "type": "address"
        },
        {
          "internalType": "uint256",
          "name": "from",
          "type": "uint256"
        },
        {
          "internalType": "uint256",
          "name": "amount",
          "type": "uint256"
        }
      ],
      "name": "getUnderlyingStrategies",
      "outputs": [
        {
          "internalType": "bytes32[]",
          "name": "",
          "type": "bytes32[]"
        }
      ],
      "stateMutability": "view",
      "type": "function"
    },
    {
      "inputs": [
        {
          "internalType": "contract IERC20",
          "name": "token",
          "type": "address"
        }
      ],
      "name": "getUnderlyingStrategiesLength",
      "outputs": [
        {
          "internalType": "uint256",
          "name": "",
          "type": "uint256"
        }
      ],
      "stateMutability": "view",
      "type": "function"
    },
    {
      "inputs": [
        {
          "internalType": "contract IERC20",
          "name": "token",
          "type": "address"
        },
        {
          "internalType": "uint256",
          "name": "index",
          "type": "uint256"
        }
      ],
      "name": "getUnderlyingStrategyAt",
      "outputs": [
        {
          "internalType": "bytes32",
          "name": "",
          "type": "bytes32"
        }
      ],
      "stateMutability": "view",
      "type": "function"
    },
    {
      "inputs": [
        {
          "internalType": "bytes32",
          "name": "role",
          "type": "bytes32"
        },
        {
          "internalType": "address",
          "name": "account",
          "type": "address"
        }
      ],
      "name": "grantRole",
      "outputs": [],
      "stateMutability": "nonpayable",
      "type": "function"
    },
    {
      "inputs": [
        {
          "internalType": "bytes32",
          "name": "role",
          "type": "bytes32"
        },
        {
          "internalType": "address",
          "name": "account",
          "type": "address"
        }
      ],
      "name": "hasRole",
      "outputs": [
        {
          "internalType": "bool",
          "name": "",
          "type": "bool"
        }
      ],
      "stateMutability": "view",
      "type": "function"
    },
    {
      "inputs": [
        {
          "internalType": "contract IVaultChef",
          "name": "_vaultChef",
          "type": "address"
        },
        {
          "internalType": "contract IZap",
          "name": "_zap",
          "type": "address"
        },
        {
          "internalType": "address",
          "name": "owner",
          "type": "address"
        }
      ],
      "name": "initialize",
      "outputs": [],
      "stateMutability": "nonpayable",
      "type": "function"
    },
    {
      "inputs": [
        {
          "internalType": "string",
          "name": "projectId",
          "type": "string"
        }
      ],
      "name": "isProject",
      "outputs": [
        {
          "internalType": "bool",
          "name": "",
          "type": "bool"
        }
      ],
      "stateMutability": "view",
      "type": "function"
    },
    {
      "inputs": [
        {
          "internalType": "bytes32",
          "name": "projectId",
          "type": "bytes32"
        }
      ],
      "name": "isProjectRaw",
      "outputs": [
        {
          "internalType": "bool",
          "name": "",
          "type": "bool"
        }
      ],
      "stateMutability": "view",
      "type": "function"
    },
    {
      "inputs": [
        {
          "internalType": "string",
          "name": "strategyType",
          "type": "string"
        }
      ],
      "name": "isStrategyType",
      "outputs": [
        {
          "internalType": "bool",
          "name": "",
          "type": "bool"
        }
      ],
      "stateMutability": "view",
      "type": "function"
    },
    {
      "inputs": [
        {
          "internalType": "bytes32",
          "name": "strategyType",
          "type": "bytes32"
        }
      ],
      "name": "isStrategyTypeRaw",
      "outputs": [
        {
          "internalType": "bool",
          "name": "",
          "type": "bool"
        }
      ],
      "stateMutability": "view",
      "type": "function"
    },
    {
      "inputs": [
        {
          "internalType": "address",
          "name": "",
          "type": "address"
        }
      ],
      "name": "isSubfactory",
      "outputs": [
        {
          "internalType": "bool",
          "name": "",
          "type": "bool"
        }
      ],
      "stateMutability": "view",
      "type": "function"
    },
    {
      "inputs": [
        {
          "internalType": "bytes32",
          "name": "",
          "type": "bytes32"
        }
      ],
      "name": "projectMetadata",
      "outputs": [
        {
          "internalType": "bytes",
          "name": "",
          "type": "bytes"
        }
      ],
      "stateMutability": "view",
      "type": "function"
    },
    {
      "inputs": [
        {
          "internalType": "bytes32",
          "name": "",
          "type": "bytes32"
        }
      ],
      "name": "projectParams",
      "outputs": [
        {
          "internalType": "bytes",
          "name": "",
          "type": "bytes"
        }
      ],
      "stateMutability": "view",
      "type": "function"
    },
    {
      "inputs": [
        {
          "internalType": "bytes32",
          "name": "",
          "type": "bytes32"
        }
      ],
      "name": "projectStrategyType",
      "outputs": [
        {
          "internalType": "bytes32",
          "name": "",
          "type": "bytes32"
        }
      ],
      "stateMutability": "view",
      "type": "function"
    },
    {
      "inputs": [
        {
          "internalType": "string",
          "name": "projectId",
          "type": "string"
        },
        {
          "internalType": "string",
          "name": "strategyType",
          "type": "string"
        },
        {
          "internalType": "bytes",
          "name": "params",
          "type": "bytes"
        },
        {
          "internalType": "bytes",
          "name": "metadata",
          "type": "bytes"
        }
      ],
      "name": "registerProject",
      "outputs": [],
      "stateMutability": "nonpayable",
      "type": "function"
    },
    {
      "inputs": [
        {
          "internalType": "bytes32",
          "name": "projectId",
          "type": "bytes32"
        },
        {
          "internalType": "bytes32",
          "name": "strategyType",
          "type": "bytes32"
        },
        {
          "internalType": "bytes",
          "name": "params",
          "type": "bytes"
        },
        {
          "internalType": "bytes",
          "name": "metadata",
          "type": "bytes"
        }
      ],
      "name": "registerProjectRaw",
      "outputs": [],
      "stateMutability": "nonpayable",
      "type": "function"
    },
    {
      "inputs": [
        {
          "internalType": "string",
          "name": "strategyType",
          "type": "string"
        },
        {
          "internalType": "contract ISubFactory",
          "name": "subfactory",
          "type": "address"
        }
      ],
      "name": "registerStrategyType",
      "outputs": [],
      "stateMutability": "nonpayable",
      "type": "function"
    },
    {
      "inputs": [
        {
          "internalType": "bytes32",
          "name": "strategyType",
          "type": "bytes32"
        },
        {
          "internalType": "contract ISubFactory",
          "name": "subfactory",
          "type": "address"
        }
      ],
      "name": "registerStrategyTypeRaw",
      "outputs": [],
      "stateMutability": "nonpayable",
      "type": "function"
    },
    {
      "inputs": [
        {
          "internalType": "bytes32",
          "name": "role",
          "type": "bytes32"
        },
        {
          "internalType": "address",
          "name": "account",
          "type": "address"
        }
      ],
      "name": "renounceRole",
      "outputs": [],
      "stateMutability": "nonpayable",
      "type": "function"
    },
    {
      "inputs": [
        {
          "internalType": "bytes32",
          "name": "role",
          "type": "bytes32"
        },
        {
          "internalType": "address",
          "name": "account",
          "type": "address"
        }
      ],
      "name": "revokeRole",
      "outputs": [],
      "stateMutability": "nonpayable",
      "type": "function"
    },
    {
      "inputs": [
        {
          "internalType": "address[]",
          "name": "route",
          "type": "address[]"
        }
      ],
      "name": "setRoute",
      "outputs": [],
      "stateMutability": "nonpayable",
      "type": "function"
    },
    {
      "inputs": [
        {
          "internalType": "contract IVaultChef",
          "name": "newVaultChef",
          "type": "address"
        }
      ],
      "name": "setVaulchef",
      "outputs": [],
      "stateMutability": "nonpayable",
      "type": "function"
    },
    {
      "inputs": [
        {
          "internalType": "bytes32",
          "name": "",
          "type": "bytes32"
        }
      ],
      "name": "strategyMetadata",
      "outputs": [
        {
          "internalType": "bytes",
          "name": "",
          "type": "bytes"
        }
      ],
      "stateMutability": "view",
      "type": "function"
    },
    {
      "inputs": [
        {
          "internalType": "bytes32",
          "name": "",
          "type": "bytes32"
        }
      ],
      "name": "subfactoryByType",
      "outputs": [
        {
          "internalType": "contract ISubFactory",
          "name": "",
          "type": "address"
        }
      ],
      "stateMutability": "view",
      "type": "function"
    },
    {
      "inputs": [
        {
          "internalType": "bytes4",
          "name": "interfaceId",
          "type": "bytes4"
        }
      ],
      "name": "supportsInterface",
      "outputs": [
        {
          "internalType": "bool",
          "name": "",
          "type": "bool"
        }
      ],
      "stateMutability": "view",
      "type": "function"
    },
    {
      "inputs": [],
      "name": "vaultChef",
      "outputs": [
        {
          "internalType": "contract IVaultChef",
          "name": "",
          "type": "address"
        }
      ],
      "stateMutability": "view",
      "type": "function"
    },
    {
      "inputs": [
        {
          "internalType": "uint256",
          "name": "",
          "type": "uint256"
        }
      ],
      "name": "vaultIdToStrategy",
      "outputs": [
        {
          "internalType": "bytes32",
          "name": "",
          "type": "bytes32"
        }
      ],
      "stateMutability": "view",
      "type": "function"
    },
    {
      "inputs": [],
      "name": "zap",
      "outputs": [
        {
          "internalType": "contract IZap",
          "name": "",
          "type": "address"
        }
      ],
      "stateMutability": "view",
      "type": "function"
    }
  ],
  "transactionHash": "0xd3c488a06672914bda74ed4f80f98f7109132479ad73fc595f08dd1a2aed1368",
  "args": [],
  "solcInputHash": "3117c980e5d7f6baf2e8a44c0bf49ea4",
  "bytecode": "0x608060405234801561001057600080fd5b50612a2b806100206000396000f3fe608060405234801561001057600080fd5b506004361061030c5760003560e01c806391d148541161019d578063ca15c873116100e9578063db84b46e116100a2578063f787a8031161007c578063f787a8031461072c578063fad316a21461073f578063fe6e018b1461063e578063ff95bbcd1461075257600080fd5b8063db84b46e146106f1578063e4f3fb4b14610704578063e74fc3d71461071757600080fd5b8063ca15c8731461067f578063cdfdea4c14610692578063d14cde9b146106a5578063d547741f146106b8578063d8cb6b9e146106cb578063db59f3c8146106de57600080fd5b8063ac893d9011610156578063b860bcec11610130578063b860bcec1461063e578063c022c01314610651578063c0c53b8b14610664578063c6bdc0a21461067757600080fd5b8063ac893d90146105e8578063b0327821146105fb578063b108365a1461062b57600080fd5b806391d1485414610595578063941bdd5b146105a85780639666b83b146105b05780639998b877146105b8578063a217fddf146105cd578063a84ce2b5146105d557600080fd5b8063467fcc871161025c5780636f98dd7d116102155780637786da9e116101ef5780637786da9e14610549578063807170cf1461055c57806380dc61671461056f5780639010d07c1461058257600080fd5b80636f98dd7d1461050357806373994d9f1461051657806376977aa11461052957600080fd5b8063467fcc871461047a57806355a8a4661461049a57806357a5472c146104bd5780635ada6acb146104d05780636383b24d146104f057806369b015c41461038f57600080fd5b8063248a9ca3116102c95780632dbeed5d116102a35780632dbeed5d1461042e5780632f2ff15d1461044157806336568abe14610454578063372aa0eb1461046757600080fd5b8063248a9ca3146103b7578063262d6152146103da57806327b3cc3d1461040557600080fd5b806301ffc9a71461031157806308f3cf001461033957806315e41c751461035a5780631645cdb81461037a578063172358721461038f5780631fbd4c1e146103a2575b600080fd5b61032461031f36600461225d565b610765565b60405190151581526020015b60405180910390f35b61034c61034736600461256d565b610790565b604051908152602001610330565b61036d61036836600461209d565b6107ce565b6040516103309190612718565b61034c60008051602061299683398151915281565b61032461039d366004612333565b610868565b6103b56103b0366004611fee565b61089b565b005b61034c6103c536600461209d565b60009081526065602052604090206001015490565b60ca546103ed906001600160a01b031681565b6040516001600160a01b039091168152602001610330565b6103ed61041336600461209d565b60cd602052600090815260409020546001600160a01b031681565b6103b561043c3660046120b6565b6108ca565b6103b561044f3660046120b6565b6109a7565b6103b56104623660046120b6565b6109ce565b6103b56104753660046120e6565b6109f0565b61034c61048836600461209d565b60d96020526000908152604090205481565b6103246104a8366004611fee565b60ce6020526000908152604090205460ff1681565b6103b56104cb366004612375565b610aec565b6104e36104de3660046122b3565b610b3d565b60405161033091906126d4565b6104e36104fe366004612231565b610b63565b6104e361051136600461220f565b610b7f565b61034c61052436600461209d565b610b8d565b61034c61053736600461209d565b60d16020526000908152604090205481565b6104e36105573660046125b9565b610b9a565b61034c61056a36600461209d565b610bd8565b61034c61057d36600461209d565b610be5565b6103ed61059036600461220f565b610bfc565b6103246105a33660046120b6565b610c14565b61034c610c3f565b61034c610c50565b61034c6000805160206129d683398151915281565b61034c600081565b6104e36105e336600461220f565b610c5c565b6104e36105f636600461220f565b610c6a565b61060e610609366004612485565b610c78565b604080519283526001600160a01b03909116602083015201610330565b61034c61063936600461209d565b610d08565b61032461064c36600461209d565b610d15565b61060e61065f366004612169565b610d22565b6103b56106723660046122e8565b6111d8565b61034c61133e565b61034c61068d36600461209d565b61134a565b61036d6106a036600461209d565b611361565b61034c6106b3366004612333565b61137a565b6103b56106c63660046120b6565b6113ad565b61034c6106d9366004612287565b6113b7565b61034c6106ec366004611fee565b6113d9565b6103b56106ff366004612028565b6113fa565b60c9546103ed906001600160a01b031681565b61034c6000805160206129b683398151915281565b61034c61073a36600461220f565b61169c565b6103b561074d3660046123c1565b6116b4565b61036d61076036600461209d565b61172b565b60006001600160e01b03198216635a05180f60e01b148061078a575061078a82611744565b92915050565b60006107c484846040516020016107a892919061264f565b604051602081830303815290604052805190602001208361169c565b90505b9392505050565b60d760205260009081526040902080546107e7906128d2565b80601f0160208091040260200160405190810160405280929190818152602001828054610813906128d2565b80156108605780601f1061083557610100808354040283529160200191610860565b820191906000526020600020905b81548152906001019060200180831161084357829003601f168201915b505050505081565b60006107c7838360405160200161088092919061264f565b60405160208183030381529060405280519060200120610d15565b60006108a78133611779565b5060c980546001600160a01b0319166001600160a01b0392909216919091179055565b6000805160206129b68339815191526108e38133611779565b6108ee60cb846117dd565b1561092a5760405162461bcd60e51b81526020600482015260076024820152662165786973747360c81b60448201526064015b60405180910390fd5b61093560cb846117f5565b50600083815260cd6020908152604080832080546001600160a01b0319166001600160a01b03871690811790915580845260ce909252808320805460ff1916600117905551909185917ff971fd948b9be62bcf3cb3a7a663e95857b2eb95ac8a7478b0362d9583a691fe9190a3505050565b6109b18282611801565b60008281526097602052604090206109c99082611827565b505050565b6109d8828261183c565b60008281526097602052604090206109c990826118b6565b6000805160206129d6833981519152610a098133611779565b610a1460cb876117dd565b610a605760405162461bcd60e51b815260206004820152601760248201527f21737472617465677954797065206e6f7420666f756e640000000000000000006044820152606401610921565b6000610a6d60cf896117dd565b600089815260d1602090815260408083208b905560d29091529020909150610a96908787611eea565b50600088815260d360205260409020610ab0908585611eea565b5080151587897f128dde6be881a1aa689e72df1389c8775dc0db31307d824dc7c5d4013e42d72060405160405180910390a45050505050505050565b6000805160206129b6833981519152610b058133611779565b610b378484604051602001610b1b92919061264f565b60405160208183030381529060405280519060200120836108ca565b50505050565b6001600160a01b038316600090815260da602052604090206060906107c49084846118cb565b600083815260d4602052604090206060906107c49084846118cb565b60606107c760cb84846118cb565b600061078a60d5836119af565b6060610bcf8585604051602001610bb292919061264f565b604051602081830303815290604052805190602001208484610b63565b95945050505050565b600061078a60cb836119af565b600081815260d46020526040812061078a906119bb565b60008281526097602052604081206107c790836119af565b60009182526065602090815260408084206001600160a01b0393909316845291905290205460ff1690565b6000610c4b60cb6119bb565b905090565b6000610c4b60d56119bb565b60606107c760cf84846118cb565b60606107c760d584846118cb565b600080600080516020612996833981519152610c948133611779565b610cf48d8d604051602001610caa92919061264f565b604051602081830303815290604052805190602001208c8c604051602001610cd392919061264f565b604051602081830303815290604052805190602001208b8b8b8b8b8b610d22565b92509250509a509a98505050505050505050565b600061078a60cf836119af565b600061078a60cb836117dd565b600080600080516020612996833981519152610d3e8133611779565b6040805160a0810182526000808252602082018190529181018290526060808201929092526080810191909152610d9c8c8c604080516020808201949094528082019290925280518083038201815260609092019052805191012090565b808252610dab9060d5906117dd565b151560208083019190915260008d815260d2909152604090208054610dcf906128d2565b80601f0160208091040260200160405190810160405280929190818152602001828054610dfb906128d2565b8015610e485780601f10610e1d57610100808354040283529160200191610e48565b820191906000526020600020905b815481529060010190602001808311610e2b57829003601f168201915b50505050506080820190815260008d815260d16020908152604080832054835260cd909152908190205460c954925191516303555d2760e41b81526001600160a01b0391821693633555d27093610eac93909116918f91908f908f90600401612792565b602060405180830381600087803b158015610ec657600080fd5b505af1158015610eda573d6000803e3d6000fd5b505050506040513d601f19601f82011682018060405250810190610efe919061200b565b6001600160a01b0390811660408084019190915260c954815163040f1f6d60e11b8152915192169163081e3eda91600480820192602092909190829003018186803b158015610f4c57600080fd5b505afa158015610f60573d6000803e3d6000fd5b505050506040513d601f19601f82011682018060405250810190610f84919061260a565b606082015260c95460408051638da5cb5b60e01b815290516001600160a01b0390921691638da5cb5b91600480820192602092909190829003018186803b158015610fce57600080fd5b505afa158015610fe2573d6000803e3d6000fd5b505050506040513d601f19601f82011682018060405250810190611006919061200b565b604080830151905163ce192fc960e01b81526001600160a01b03918216600482015261ffff8816602482015291169063ce192fc990604401600060405180830381600087803b15801561105857600080fd5b505af115801561106c573d6000803e3d6000fd5b50508251600090815260d76020526040902061108c925090508888611eea565b50805160008d815260d4602052604090206110a6916117f5565b508051606082018051600090815260d9602090815260408083209490945591518451825260d88352838220558351838501518451632495a59960e01b8152945161117495929460da94936001600160a01b0390931692632495a5999260048083019392829003018186803b15801561111d57600080fd5b505afa158015611131573d6000803e3d6000fd5b505050506040513d601f19601f82011682018060405250810190611155919061200b565b6001600160a01b031681526020810191909152604001600020906117f5565b508a8c82606001517f05ff921a9f275cc75949cb0c8357b8866efe3e3bbd520b19b8cf59bf53c1a92584602001516040516111b3911515815260200190565b60405180910390a4806060015181604001519350935050509850989650505050505050565b600054610100900460ff16806111f1575060005460ff16155b61120d5760405162461bcd60e51b8152600401610921906127f3565b600054610100900460ff1615801561122f576000805461ffff19166101011790555b6112376119c5565b60c980546001600160a01b038087166001600160a01b0319928316811790935560ca8054918716919092161790556040805163040f1f6d60e11b8152905163081e3eda91600480820192602092909190829003018186803b15801561129b57600080fd5b505afa1580156112af573d6000803e3d6000fd5b505050506040513d601f19601f820116820180604052508101906112d3919061260a565b506112df600083611a51565b6112f76000805160206129b683398151915283611a51565b61130f6000805160206129d683398151915283611a51565b61132760008051602061299683398151915283611a51565b8015610b37576000805461ff001916905550505050565b6000610c4b60cf6119bb565b600081815260976020526040812061078a906119bb565b60d360205260009081526040902080546107e7906128d2565b60006107c7838360405160200161139292919061264f565b60405160208183030381529060405280519060200120610be5565b6109d88282611a5b565b6001600160a01b038216600090815260da602052604081206107c790836119af565b6001600160a01b038116600090815260da6020526040812061078a906119bb565b33600090815260ce602052604090205460ff166114475760405162461bcd60e51b815260206004820152600b60248201526a21737562666163746f727960a81b6044820152606401610921565b80156116985760008282600081811061146257611462612954565b90506020020160208101906114779190611fee565b905060008383611488600182612878565b81811061149757611497612954565b90506020020160208101906114ac9190611fee565b9050600060ca60009054906101000a90046001600160a01b03166001600160a01b0316635c60da1b6040518163ffffffff1660e01b815260040160206040518083038186803b1580156114fe57600080fd5b505afa158015611512573d6000803e3d6000fd5b505050506040513d601f19601f82011682018060405250810190611536919061200b565b6001600160a01b0316638da5cb5b6040518163ffffffff1660e01b815260040160206040518083038186803b15801561156e57600080fd5b505afa158015611582573d6000803e3d6000fd5b505050506040513d601f19601f820116820180604052508101906115a6919061200b565b6040516331e376fd60e11b81526001600160a01b0385811660048301528481166024830152919250908216906363c6edfa9060440160206040518083038186803b1580156115f357600080fd5b505afa158015611607573d6000803e3d6000fd5b505050506040513d601f19601f8201168201806040525081019061162b919061260a565b6116945760405163131a049360e11b81526001600160a01b0382169063263409269061166190869086908a908a9060040161272b565b600060405180830381600087803b15801561167b57600080fd5b505af115801561168f573d6000803e3d6000fd5b505050505b5050505b5050565b600082815260d4602052604081206107c790836119af565b6000805160206129d68339815191526116cd8133611779565b61168f89896040516020016116e392919061264f565b60405160208183030381529060405280519060200120888860405160200161170c92919061264f565b60405160208183030381529060405280519060200120878787876109f0565b60d260205260009081526040902080546107e7906128d2565b60006001600160e01b03198216637965db0b60e01b148061078a57506301ffc9a760e01b6001600160e01b031983161461078a565b6117838282610c14565b6116985761179b816001600160a01b03166014611a81565b6117a6836020611a81565b6040516020016117b792919061265f565b60408051601f198184030181529082905262461bcd60e51b825261092191600401612718565b600081815260018301602052604081205415156107c7565b60006107c78383611c1d565b60008281526065602052604090206001015461181d8133611779565b6109c98383611c6c565b60006107c7836001600160a01b038416611c1d565b6001600160a01b03811633146118ac5760405162461bcd60e51b815260206004820152602f60248201527f416363657373436f6e74726f6c3a2063616e206f6e6c792072656e6f756e636560448201526e103937b632b9903337b91039b2b63360891b6064820152608401610921565b6116988282611cf2565b60006107c7836001600160a01b038416611d59565b606060006118d8856119bb565b90508084106118f75750506040805160008152602081019091526107c7565b806119028486612841565b1115611915576119128482612878565b92505b60008367ffffffffffffffff8111156119305761193061296a565b604051908082528060200260200182016040528015611959578160200160208202803683370190505b50905060005b848110156119a55761197c6119748288612841565b60cb906119af565b82828151811061198e5761198e612954565b5082915061199d90508161290d565b91505061195f565b5095945050505050565b60006107c78383611e4c565b600061078a825490565b600054610100900460ff16806119de575060005460ff16155b6119fa5760405162461bcd60e51b8152600401610921906127f3565b600054610100900460ff16158015611a1c576000805461ffff19166101011790555b611a24611e76565b611a2c611e76565b611a34611e76565b611a3c611e76565b8015611a4e576000805461ff00191690555b50565b6109b18282611ee0565b600082815260656020526040902060010154611a778133611779565b6109c98383611cf2565b60606000611a90836002612859565b611a9b906002612841565b67ffffffffffffffff811115611ab357611ab361296a565b6040519080825280601f01601f191660200182016040528015611add576020820181803683370190505b509050600360fc1b81600081518110611af857611af8612954565b60200101906001600160f81b031916908160001a905350600f60fb1b81600181518110611b2757611b27612954565b60200101906001600160f81b031916908160001a9053506000611b4b846002612859565b611b56906001612841565b90505b6001811115611bce576f181899199a1a9b1b9c1cb0b131b232b360811b85600f1660108110611b8a57611b8a612954565b1a60f81b828281518110611ba057611ba0612954565b60200101906001600160f81b031916908160001a90535060049490941c93611bc7816128bb565b9050611b59565b5083156107c75760405162461bcd60e51b815260206004820181905260248201527f537472696e67733a20686578206c656e67746820696e73756666696369656e746044820152606401610921565b6000818152600183016020526040812054611c645750815460018181018455600084815260208082209093018490558454848252828601909352604090209190915561078a565b50600061078a565b611c768282610c14565b6116985760008281526065602090815260408083206001600160a01b03851684529091529020805460ff19166001179055611cae3390565b6001600160a01b0316816001600160a01b0316837f2f8788117e7eff1d82e926ec794901d17c78024a50270940304540a733656f0d60405160405180910390a45050565b611cfc8282610c14565b156116985760008281526065602090815260408083206001600160a01b0385168085529252808320805460ff1916905551339285917ff6391f5c32d9c69d2a47ea670b442974b53935d1edc7fd64eb21e047a839171b9190a45050565b60008181526001830160205260408120548015611e42576000611d7d600183612878565b8554909150600090611d9190600190612878565b9050818114611df6576000866000018281548110611db157611db1612954565b9060005260206000200154905080876000018481548110611dd457611dd4612954565b6000918252602080832090910192909255918252600188019052604090208390555b8554869080611e0757611e0761293e565b60019003818190600052602060002001600090559055856001016000868152602001908152602001600020600090556001935050505061078a565b600091505061078a565b6000826000018281548110611e6357611e63612954565b9060005260206000200154905092915050565b600054610100900460ff1680611e8f575060005460ff16155b611eab5760405162461bcd60e51b8152600401610921906127f3565b600054610100900460ff16158015611a3c576000805461ffff19166101011790558015611a4e576000805461ff001916905550565b6116988282611c6c565b828054611ef6906128d2565b90600052602060002090601f016020900481019282611f185760008555611f5e565b82601f10611f315782800160ff19823516178555611f5e565b82800160010185558215611f5e579182015b82811115611f5e578235825591602001919060010190611f43565b50611f6a929150611f6e565b5090565b5b80821115611f6a5760008155600101611f6f565b60008083601f840112611f9557600080fd5b50813567ffffffffffffffff811115611fad57600080fd5b602083019150836020828501011115611fc557600080fd5b9250929050565b8035611fd781612980565b919050565b803561ffff81168114611fd757600080fd5b60006020828403121561200057600080fd5b81356107c781612980565b60006020828403121561201d57600080fd5b81516107c781612980565b6000806020838503121561203b57600080fd5b823567ffffffffffffffff8082111561205357600080fd5b818501915085601f83011261206757600080fd5b81358181111561207657600080fd5b8660208260051b850101111561208b57600080fd5b60209290920196919550909350505050565b6000602082840312156120af57600080fd5b5035919050565b600080604083850312156120c957600080fd5b8235915060208301356120db81612980565b809150509250929050565b600080600080600080608087890312156120ff57600080fd5b8635955060208701359450604087013567ffffffffffffffff8082111561212557600080fd5b6121318a838b01611f83565b9096509450606089013591508082111561214a57600080fd5b5061215789828a01611f83565b979a9699509497509295939492505050565b60008060008060008060008060c0898b03121561218557600080fd5b8835975060208901359650604089013561219e81612980565b9550606089013567ffffffffffffffff808211156121bb57600080fd5b6121c78c838d01611f83565b909750955060808b01359150808211156121e057600080fd5b506121ed8b828c01611f83565b9094509250612200905060a08a01611fdc565b90509295985092959890939650565b6000806040838503121561222257600080fd5b50508035926020909101359150565b60008060006060848603121561224657600080fd5b505081359360208301359350604090920135919050565b60006020828403121561226f57600080fd5b81356001600160e01b0319811681146107c757600080fd5b6000806040838503121561229a57600080fd5b82356122a581612980565b946020939093013593505050565b6000806000606084860312156122c857600080fd5b83356122d381612980565b95602085013595506040909401359392505050565b6000806000606084860312156122fd57600080fd5b833561230881612980565b9250602084013561231881612980565b9150604084013561232881612980565b809150509250925092565b6000806020838503121561234657600080fd5b823567ffffffffffffffff81111561235d57600080fd5b61236985828601611f83565b90969095509350505050565b60008060006040848603121561238a57600080fd5b833567ffffffffffffffff8111156123a157600080fd5b6123ad86828701611f83565b909450925050602084013561232881612980565b6000806000806000806000806080898b0312156123dd57600080fd5b883567ffffffffffffffff808211156123f557600080fd5b6124018c838d01611f83565b909a50985060208b013591508082111561241a57600080fd5b6124268c838d01611f83565b909850965060408b013591508082111561243f57600080fd5b61244b8c838d01611f83565b909650945060608b013591508082111561246457600080fd5b506124718b828c01611f83565b999c989b5096995094979396929594505050565b60008060008060008060008060008060c08b8d0312156124a457600080fd5b8a3567ffffffffffffffff808211156124bc57600080fd5b6124c88e838f01611f83565b909c509a5060208d01359150808211156124e157600080fd5b6124ed8e838f01611f83565b909a50985088915061250160408e01611fcc565b975060608d013591508082111561251757600080fd5b6125238e838f01611f83565b909750955060808d013591508082111561253c57600080fd5b506125498d828e01611f83565b909450925061255c905060a08c01611fdc565b90509295989b9194979a5092959850565b60008060006040848603121561258257600080fd5b833567ffffffffffffffff81111561259957600080fd5b6125a586828701611f83565b909790965060209590950135949350505050565b600080600080606085870312156125cf57600080fd5b843567ffffffffffffffff8111156125e657600080fd5b6125f287828801611f83565b90989097506020870135966040013595509350505050565b60006020828403121561261c57600080fd5b5051919050565b6000815180845261263b81602086016020860161288f565b601f01601f19169290920160200192915050565b8183823760009101908152919050565b7f416363657373436f6e74726f6c3a206163636f756e742000000000000000000081526000835161269781601785016020880161288f565b7001034b99036b4b9b9b4b733903937b6329607d1b60179184019182015283516126c881602884016020880161288f565b01602801949350505050565b6020808252825182820181905260009190848201906040850190845b8181101561270c578351835292840192918401916001016126f0565b50909695505050505050565b6020815260006107c76020830184612623565b6001600160a01b0385811682528481166020808401919091526060604084018190528301849052600091859160808501845b8781101561278457843561277081612980565b84168252938201939082019060010161275d565b509998505050505050505050565b6001600160a01b038681168252851660208201526080604082018190526000906127be90830186612623565b8281036060840152838152838560208301376000602085830101526020601f19601f8601168201019150509695505050505050565b6020808252602e908201527f496e697469616c697a61626c653a20636f6e747261637420697320616c72656160408201526d191e481a5b9a5d1a585b1a5e995960921b606082015260800190565b6000821982111561285457612854612928565b500190565b600081600019048311821515161561287357612873612928565b500290565b60008282101561288a5761288a612928565b500390565b60005b838110156128aa578181015183820152602001612892565b83811115610b375750506000910152565b6000816128ca576128ca612928565b506000190190565b600181811c908216806128e657607f821691505b6020821081141561290757634e487b7160e01b600052602260045260246000fd5b50919050565b600060001982141561292157612921612928565b5060010190565b634e487b7160e01b600052601160045260246000fd5b634e487b7160e01b600052603160045260246000fd5b634e487b7160e01b600052603260045260246000fd5b634e487b7160e01b600052604160045260246000fd5b6001600160a01b0381168114611a4e57600080fdfedf8db4b3f0e355fdb17cbf7574c8af9d27ce4756db4efb6006ec8d3f04f391c4e71ec9665f24fd34c984715bd779a0519d33e9ab5ea271286986ff1d631504cf2346b08f6a458a95934836936988f77c5b147e7700d817767c56316d1a6f469ca2646970667358221220e85c6936afea04b18170d1098a7b274e5abb5a6842c5bd31090fb6f2fd408b5164736f6c63430008060033",
  "devdoc": {
    "kind": "dev",
    "methods": {
      "getRoleAdmin(bytes32)": {
        "details": "Returns the admin role that controls `role`. See {grantRole} and {revokeRole}. To change a role's admin, use {_setRoleAdmin}."
      },
      "getRoleMember(bytes32,uint256)": {
        "details": "Returns one of the accounts that have `role`. `index` must be a value between 0 and {getRoleMemberCount}, non-inclusive. Role bearers are not sorted in any particular way, and their ordering may change at any point. WARNING: When using {getRoleMember} and {getRoleMemberCount}, make sure you perform all queries on the same block. See the following https://forum.openzeppelin.com/t/iterating-over-elements-on-enumerableset-in-openzeppelin-contracts/2296[forum post] for more information."
      },
      "getRoleMemberCount(bytes32)": {
        "details": "Returns the number of accounts that have `role`. Can be used together with {getRoleMember} to enumerate all bearers of a role."
      },
      "grantRole(bytes32,address)": {
        "details": "Overload {grantRole} to track enumerable memberships"
      },
      "hasRole(bytes32,address)": {
        "details": "Returns `true` if `account` has been granted `role`."
      },
      "renounceRole(bytes32,address)": {
        "details": "Overload {renounceRole} to track enumerable memberships"
      },
      "revokeRole(bytes32,address)": {
        "details": "Overload {revokeRole} to track enumerable memberships"
      },
      "supportsInterface(bytes4)": {
        "details": "See {IERC165-supportsInterface}."
      }
    },
    "stateVariables": {
      "strategies": {
        "details": "These are identified as keccak256(abi.encodePacked(keccak256(projectId), keccak256(strategyId)))."
      }
    },
    "version": 1
  },
  "userdoc": {
    "kind": "user",
    "methods": {
      "getProjectAt(uint256)": {
        "notice": "Gets the project hash at a specific index in the listing."
      },
      "getProjectStrategies(string,uint256,uint256)": {
        "notice": "Lists the project's strategy hashes within a specific range in the listing."
      },
      "getProjectStrategiesLength(string)": {
        "notice": "Gets the length (number) of strategies of a project listing."
      },
      "getProjectStrategiesLengthRaw(bytes32)": {
        "notice": "Gets the length (number) of strategies of a project listing."
      },
      "getProjectStrategiesRaw(bytes32,uint256,uint256)": {
        "notice": "Lists the project's strategy hashes within a specific range in the listing."
      },
      "getProjectStrategyAt(string,uint256)": {
        "notice": "Gets the project's strategy hash at a specific index in the listing."
      },
      "getProjectStrategyAtRaw(bytes32,uint256)": {
        "notice": "Gets the project's strategy hash at a specific index in the listing."
      },
      "getProjects(uint256,uint256)": {
        "notice": "Lists the project hashes within a specific range in the listing."
      },
      "getProjectsLength()": {
        "notice": "Gets the length of the projects listing."
      },
      "getStrategies(uint256,uint256)": {
        "notice": "Lists the strategy hashes within a specific range in the listing."
      },
      "getStrategiesLength()": {
        "notice": "Gets the length (number) of strategies of a project listing."
      },
      "getStrategyAt(uint256)": {
        "notice": "Gets the strategy hash at a specific index in the listing."
      },
      "getStrategyTypeAt(uint256)": {
        "notice": "Gets the strategyType hash at a specific index in the listing."
      },
      "getStrategyTypeLength()": {
        "notice": "Gets the length of the strategyType listing."
      },
      "getStrategyTypes(uint256,uint256)": {
        "notice": "Lists the strategyType hashes within a specific range in the listing."
      },
      "getUnderlyingStrategies(address,uint256,uint256)": {
        "notice": "Lists the underlying tokens's strategy hashes within a specific range in the listing."
      },
      "getUnderlyingStrategiesLength(address)": {
        "notice": "Gets the length (number) of strategies of a project listing."
      },
      "getUnderlyingStrategyAt(address,uint256)": {
        "notice": "Gets the underlying tokens's strategy hash at a specific index in the listing."
      },
      "isProject(string)": {
        "notice": "Returns whether the unhashed `projectId` is registered."
      },
      "isProjectRaw(bytes32)": {
        "notice": "Returns whether the hashed `projectId` is registered."
      },
      "isStrategyType(string)": {
        "notice": "Returns whether the unhashed `strategyType` is registered."
      },
      "isStrategyTypeRaw(bytes32)": {
        "notice": "Returns whether the hashed `strategyType` is registered."
      },
      "projectMetadata(bytes32)": {
        "notice": "Metadata associated with the project that can be used on the frontend, expected to be encoded in UTF-8 JSON.Even though not ideomatic, this is a cheap solution to avoid infrastructure downtime within the first months after launch."
      },
      "projectParams(bytes32)": {
        "notice": "Generic parameters that will always be forwarded to the subfactory. This could for example be the native token."
      },
      "projectStrategyType(bytes32)": {
        "notice": "The associated strategy type hash of the project. All strategies under the project will thus be deployed using the subfactory of this strategy type."
      },
      "strategyMetadata(bytes32)": {
        "notice": "Metadata associated with the strategy that can be used on the frontend, expected to be encoded in UTF-8 JSON.Even though not ideomatic, this is a cheap solution to avoid infrastructure downtime within the first months after launch."
      },
      "subfactoryByType(bytes32)": {
        "notice": "Returns the registered subfactory of the strategy type. The subfactory is responsible for instantiating factories."
      },
      "vaultChef()": {
        "notice": "The instance of the vaultChef to deploy strategies to."
      },
      "vaultIdToStrategy(uint256)": {
        "notice": "Gets the strategy id associated with the vaultId."
      },
      "zap()": {
        "notice": "The zapper"
      }
    },
    "notice": "TODO: There is no createVault function!",
    "version": 1
  },
  "storageLayout": {
    "storage": [
      {
        "astId": 648,
        "contract": "contracts/factories/StrategyFactory.sol:StrategyFactory",
        "label": "_initialized",
        "offset": 0,
        "slot": "0",
        "type": "t_bool"
      },
      {
        "astId": 651,
        "contract": "contracts/factories/StrategyFactory.sol:StrategyFactory",
        "label": "_initializing",
        "offset": 1,
        "slot": "0",
        "type": "t_bool"
      },
      {
        "astId": 731,
        "contract": "contracts/factories/StrategyFactory.sol:StrategyFactory",
        "label": "__gap",
        "offset": 0,
        "slot": "1",
        "type": "t_array(t_uint256)50_storage"
      },
      {
        "astId": 980,
        "contract": "contracts/factories/StrategyFactory.sol:StrategyFactory",
        "label": "__gap",
        "offset": 0,
        "slot": "51",
        "type": "t_array(t_uint256)50_storage"
      },
      {
        "astId": 258,
        "contract": "contracts/factories/StrategyFactory.sol:StrategyFactory",
        "label": "_roles",
        "offset": 0,
        "slot": "101",
        "type": "t_mapping(t_bytes32,t_struct(RoleData)253_storage)"
      },
      {
        "astId": 543,
        "contract": "contracts/factories/StrategyFactory.sol:StrategyFactory",
        "label": "__gap",
        "offset": 0,
        "slot": "102",
        "type": "t_array(t_uint256)49_storage"
      },
      {
        "astId": 45,
        "contract": "contracts/factories/StrategyFactory.sol:StrategyFactory",
        "label": "_roleMembers",
        "offset": 0,
        "slot": "151",
        "type": "t_mapping(t_bytes32,t_struct(AddressSet)1305_storage)"
      },
      {
        "astId": 208,
        "contract": "contracts/factories/StrategyFactory.sol:StrategyFactory",
        "label": "__gap",
        "offset": 0,
        "slot": "152",
        "type": "t_array(t_uint256)49_storage"
      },
      {
        "astId": 5083,
        "contract": "contracts/factories/StrategyFactory.sol:StrategyFactory",
        "label": "vaultChef",
        "offset": 0,
        "slot": "201",
        "type": "t_contract(IVaultChef)7187"
      },
      {
        "astId": 5087,
        "contract": "contracts/factories/StrategyFactory.sol:StrategyFactory",
        "label": "zap",
        "offset": 0,
        "slot": "202",
        "type": "t_contract(IZap)7456"
      },
      {
        "astId": 5091,
        "contract": "contracts/factories/StrategyFactory.sol:StrategyFactory",
        "label": "strategyTypes",
        "offset": 0,
        "slot": "203",
        "type": "t_struct(Bytes32Set)1198_storage"
      },
      {
        "astId": 5097,
        "contract": "contracts/factories/StrategyFactory.sol:StrategyFactory",
        "label": "subfactoryByType",
        "offset": 0,
        "slot": "205",
        "type": "t_mapping(t_bytes32,t_contract(ISubFactory)7172)"
      },
      {
        "astId": 5101,
        "contract": "contracts/factories/StrategyFactory.sol:StrategyFactory",
        "label": "isSubfactory",
        "offset": 0,
        "slot": "206",
        "type": "t_mapping(t_address,t_bool)"
      },
      {
        "astId": 5105,
        "contract": "contracts/factories/StrategyFactory.sol:StrategyFactory",
        "label": "projects",
        "offset": 0,
        "slot": "207",
        "type": "t_struct(Bytes32Set)1198_storage"
      },
      {
        "astId": 5110,
        "contract": "contracts/factories/StrategyFactory.sol:StrategyFactory",
        "label": "projectStrategyType",
        "offset": 0,
        "slot": "209",
        "type": "t_mapping(t_bytes32,t_bytes32)"
      },
      {
        "astId": 5115,
        "contract": "contracts/factories/StrategyFactory.sol:StrategyFactory",
        "label": "projectParams",
        "offset": 0,
        "slot": "210",
        "type": "t_mapping(t_bytes32,t_bytes_storage)"
      },
      {
        "astId": 5120,
        "contract": "contracts/factories/StrategyFactory.sol:StrategyFactory",
        "label": "projectMetadata",
        "offset": 0,
        "slot": "211",
        "type": "t_mapping(t_bytes32,t_bytes_storage)"
      },
      {
        "astId": 5126,
        "contract": "contracts/factories/StrategyFactory.sol:StrategyFactory",
        "label": "projectStrategies",
        "offset": 0,
        "slot": "212",
        "type": "t_mapping(t_bytes32,t_struct(Bytes32Set)1198_storage)"
      },
      {
        "astId": 5130,
        "contract": "contracts/factories/StrategyFactory.sol:StrategyFactory",
        "label": "strategies",
        "offset": 0,
        "slot": "213",
        "type": "t_struct(Bytes32Set)1198_storage"
      },
      {
        "astId": 5135,
        "contract": "contracts/factories/StrategyFactory.sol:StrategyFactory",
        "label": "strategyMetadata",
        "offset": 0,
        "slot": "215",
        "type": "t_mapping(t_bytes32,t_bytes_storage)"
      },
      {
        "astId": 5140,
        "contract": "contracts/factories/StrategyFactory.sol:StrategyFactory",
        "label": "strategyToVaultId",
        "offset": 0,
        "slot": "216",
        "type": "t_mapping(t_bytes32,t_uint256)"
      },
      {
        "astId": 5145,
        "contract": "contracts/factories/StrategyFactory.sol:StrategyFactory",
        "label": "vaultIdToStrategy",
        "offset": 0,
        "slot": "217",
        "type": "t_mapping(t_uint256,t_bytes32)"
      },
      {
        "astId": 5152,
        "contract": "contracts/factories/StrategyFactory.sol:StrategyFactory",
        "label": "underlyingToStrategies",
        "offset": 0,
        "slot": "218",
        "type": "t_mapping(t_contract(IERC20)2338,t_struct(Bytes32Set)1198_storage)"
      }
    ],
    "types": {
      "t_address": {
        "encoding": "inplace",
        "label": "address",
        "numberOfBytes": "20"
      },
      "t_array(t_bytes32)dyn_storage": {
        "base": "t_bytes32",
        "encoding": "dynamic_array",
        "label": "bytes32[]",
        "numberOfBytes": "32"
      },
      "t_array(t_uint256)49_storage": {
        "base": "t_uint256",
        "encoding": "inplace",
        "label": "uint256[49]",
        "numberOfBytes": "1568"
      },
      "t_array(t_uint256)50_storage": {
        "base": "t_uint256",
        "encoding": "inplace",
        "label": "uint256[50]",
        "numberOfBytes": "1600"
      },
      "t_bool": {
        "encoding": "inplace",
        "label": "bool",
        "numberOfBytes": "1"
      },
      "t_bytes32": {
        "encoding": "inplace",
        "label": "bytes32",
        "numberOfBytes": "32"
      },
      "t_bytes_storage": {
        "encoding": "bytes",
        "label": "bytes",
        "numberOfBytes": "32"
      },
      "t_contract(IERC20)2338": {
        "encoding": "inplace",
        "label": "contract IERC20",
        "numberOfBytes": "20"
      },
      "t_contract(ISubFactory)7172": {
        "encoding": "inplace",
        "label": "contract ISubFactory",
        "numberOfBytes": "20"
      },
      "t_contract(IVaultChef)7187": {
        "encoding": "inplace",
        "label": "contract IVaultChef",
        "numberOfBytes": "20"
      },
      "t_contract(IZap)7456": {
        "encoding": "inplace",
        "label": "contract IZap",
        "numberOfBytes": "20"
      },
      "t_mapping(t_address,t_bool)": {
        "encoding": "mapping",
        "key": "t_address",
        "label": "mapping(address => bool)",
        "numberOfBytes": "32",
        "value": "t_bool"
      },
      "t_mapping(t_bytes32,t_bytes32)": {
        "encoding": "mapping",
        "key": "t_bytes32",
        "label": "mapping(bytes32 => bytes32)",
        "numberOfBytes": "32",
        "value": "t_bytes32"
      },
      "t_mapping(t_bytes32,t_bytes_storage)": {
        "encoding": "mapping",
        "key": "t_bytes32",
        "label": "mapping(bytes32 => bytes)",
        "numberOfBytes": "32",
        "value": "t_bytes_storage"
      },
      "t_mapping(t_bytes32,t_contract(ISubFactory)7172)": {
        "encoding": "mapping",
        "key": "t_bytes32",
        "label": "mapping(bytes32 => contract ISubFactory)",
        "numberOfBytes": "32",
        "value": "t_contract(ISubFactory)7172"
      },
      "t_mapping(t_bytes32,t_struct(AddressSet)1305_storage)": {
        "encoding": "mapping",
        "key": "t_bytes32",
        "label": "mapping(bytes32 => struct EnumerableSetUpgradeable.AddressSet)",
        "numberOfBytes": "32",
        "value": "t_struct(AddressSet)1305_storage"
      },
      "t_mapping(t_bytes32,t_struct(Bytes32Set)1198_storage)": {
        "encoding": "mapping",
        "key": "t_bytes32",
        "label": "mapping(bytes32 => struct EnumerableSetUpgradeable.Bytes32Set)",
        "numberOfBytes": "32",
        "value": "t_struct(Bytes32Set)1198_storage"
      },
      "t_mapping(t_bytes32,t_struct(RoleData)253_storage)": {
        "encoding": "mapping",
        "key": "t_bytes32",
        "label": "mapping(bytes32 => struct AccessControlUpgradeable.RoleData)",
        "numberOfBytes": "32",
        "value": "t_struct(RoleData)253_storage"
      },
      "t_mapping(t_bytes32,t_uint256)": {
        "encoding": "mapping",
        "key": "t_bytes32",
        "label": "mapping(bytes32 => uint256)",
        "numberOfBytes": "32",
        "value": "t_uint256"
      },
      "t_mapping(t_contract(IERC20)2338,t_struct(Bytes32Set)1198_storage)": {
        "encoding": "mapping",
        "key": "t_contract(IERC20)2338",
        "label": "mapping(contract IERC20 => struct EnumerableSetUpgradeable.Bytes32Set)",
        "numberOfBytes": "32",
        "value": "t_struct(Bytes32Set)1198_storage"
      },
      "t_mapping(t_uint256,t_bytes32)": {
        "encoding": "mapping",
        "key": "t_uint256",
        "label": "mapping(uint256 => bytes32)",
        "numberOfBytes": "32",
        "value": "t_bytes32"
      },
      "t_struct(AddressSet)1305_storage": {
        "encoding": "inplace",
        "label": "struct EnumerableSetUpgradeable.AddressSet",
        "members": [
          {
            "astId": 1304,
            "contract": "contracts/factories/StrategyFactory.sol:StrategyFactory",
            "label": "_inner",
            "offset": 0,
            "slot": "0",
            "type": "t_struct(Set)1004_storage"
          }
        ],
        "numberOfBytes": "64"
      },
      "t_struct(Bytes32Set)1198_storage": {
        "encoding": "inplace",
        "label": "struct EnumerableSetUpgradeable.Bytes32Set",
        "members": [
          {
            "astId": 1197,
            "contract": "contracts/factories/StrategyFactory.sol:StrategyFactory",
            "label": "_inner",
            "offset": 0,
            "slot": "0",
            "type": "t_struct(Set)1004_storage"
          }
        ],
        "numberOfBytes": "64"
      },
      "t_struct(RoleData)253_storage": {
        "encoding": "inplace",
        "label": "struct AccessControlUpgradeable.RoleData",
        "members": [
          {
            "astId": 250,
            "contract": "contracts/factories/StrategyFactory.sol:StrategyFactory",
            "label": "members",
            "offset": 0,
            "slot": "0",
            "type": "t_mapping(t_address,t_bool)"
          },
          {
            "astId": 252,
            "contract": "contracts/factories/StrategyFactory.sol:StrategyFactory",
            "label": "adminRole",
            "offset": 0,
            "slot": "1",
            "type": "t_bytes32"
          }
        ],
        "numberOfBytes": "64"
      },
      "t_struct(Set)1004_storage": {
        "encoding": "inplace",
        "label": "struct EnumerableSetUpgradeable.Set",
        "members": [
          {
            "astId": 999,
            "contract": "contracts/factories/StrategyFactory.sol:StrategyFactory",
            "label": "_values",
            "offset": 0,
            "slot": "0",
            "type": "t_array(t_bytes32)dyn_storage"
          },
          {
            "astId": 1003,
            "contract": "contracts/factories/StrategyFactory.sol:StrategyFactory",
            "label": "_indexes",
            "offset": 0,
            "slot": "1",
            "type": "t_mapping(t_bytes32,t_uint256)"
          }
        ],
        "numberOfBytes": "64"
      },
      "t_uint256": {
        "encoding": "inplace",
        "label": "uint256",
        "numberOfBytes": "32"
      }
    }
  }
}