{
  "address": "0x0858683704924e248b7c97b40714B22e5Fb8799F",
  "abi": [
    {
      "inputs": [
        {
          "internalType": "contract StrategyFactory",
          "name": "_strategyFactory",
          "type": "address"
        },
        {
          "internalType": "contract IZap",
          "name": "_zap",
          "type": "address"
        }
      ],
      "stateMutability": "nonpayable",
      "type": "constructor"
    },
    {
      "inputs": [
        {
          "internalType": "contract IVaultChef",
          "name": "vaultChef",
          "type": "address"
        },
        {
          "internalType": "contract IERC20",
          "name": "underlyingToken",
          "type": "address"
        },
        {
          "internalType": "bytes",
          "name": "projectData",
          "type": "bytes"
        },
        {
          "internalType": "bytes",
          "name": "strategyData",
          "type": "bytes"
        }
      ],
      "name": "deployStrategy",
      "outputs": [
        {
          "internalType": "contract IStrategy",
          "name": "",
          "type": "address"
        }
      ],
      "stateMutability": "nonpayable",
      "type": "function"
    },
    {
      "inputs": [],
      "name": "strategyFactory",
      "outputs": [
        {
          "internalType": "contract StrategyFactory",
          "name": "",
          "type": "address"
        }
      ],
      "stateMutability": "view",
      "type": "function"
    },
    {
      "inputs": [],
      "name": "zap",
      "outputs": [
        {
          "internalType": "contract IZap",
          "name": "",
          "type": "address"
        }
      ],
      "stateMutability": "view",
      "type": "function"
    }
  ],
  "transactionHash": "0x89950290ed32b8c18d1775a63a32cdefcf291766ac6bfd2c47775defe8d4182b",
  "args": [
    "0x11771AE1179d2d70AC93016233cEdF1CC8790763",
    "0xAfEf94984f3C3665e72F1a8d4634659621dA18A0"
  ],
  "solcInputHash": "ef3869791624c80964dbd0f9e032ca58",
  "bytecode": "0x60a060405234801561001057600080fd5b506040516119ee3803806119ee83398101604081905261002f91610066565b60609190911b6001600160601b031916608052600080546001600160a01b0319166001600160a01b039092169190911790556100b8565b6000806040838503121561007957600080fd5b8251610084816100a0565b6020840151909250610095816100a0565b809150509250929050565b6001600160a01b03811681146100b557600080fd5b50565b60805160601c61190c6100e260003960008181608d0152818160bc01526101e1015261190c6000f3fe608060405234801561001057600080fd5b50600436106100415760003560e01c8063262d6152146100465780633555d270146100755780639ef3571014610088575b600080fd5b600054610059906001600160a01b031681565b6040516001600160a01b03909116815260200160405180910390f35b6100596100833660046106b2565b6100af565b6100597f000000000000000000000000000000000000000000000000000000000000000081565b6000336001600160a01b037f000000000000000000000000000000000000000000000000000000000000000016146100e657600080fd5b60006100f4858701876105b4565b9050600080610105858701876105d1565b91509150610114828a85610257565b60006040516101229061052a565b604051809103906000f08015801561013e573d6000803e3d6000fd5b50600054604051630a2ca2bd60e11b81526001600160a01b038e8116600483015291821660248201528c8216604482015286821660648201528582166084820152919250821690631459457a9060a401600060405180830381600087803b1580156101a857600080fd5b505af11580156101bc573d6000803e3d6000fd5b5050505060008251111561024957604051636dc25a3760e11b81526001600160a01b037f0000000000000000000000000000000000000000000000000000000000000000169063db84b46e90610216908590600401610760565b600060405180830381600087803b15801561023057600080fd5b505af1158015610244573d6000803e3d6000fd5b505050505b9a9950505050505050505050565b826001600160a01b03166372f702f36040518163ffffffff1660e01b815260040160206040518083038186803b15801561029057600080fd5b505afa9250505080156102c0575060408051601f3d908101601f191682019092526102bd91810190610590565b60015b6103115760405162461bcd60e51b815260206004820152601860248201527f21696e636f7272656374206765745374616b65546f6b656e000000000000000060448201526064015b60405180910390fd5b826001600160a01b0316816001600160a01b0316146103655760405162461bcd60e51b815260206004820152601060248201526f10bab73232b9363cb4b733aa37b5b2b760811b6044820152606401610308565b50604051637bb7bed160e01b8152600060048201526001600160a01b03841690637bb7bed19060240160206040518083038186803b1580156103a657600080fd5b505afa9250505080156103d6575060408051601f3d908101601f191682019092526103d391810190610590565b60015b6104225760405162461bcd60e51b815260206004820152601960248201527f21696e636f727265637420676574526577617264546f6b656e000000000000006044820152606401610308565b816001600160a01b0316816001600160a01b0316146104725760405162461bcd60e51b815260206004820152600c60248201526b10b932bbb0b9322a37b5b2b760a11b6044820152606401610308565b506040516370a0823160e01b81523060048201526001600160a01b038416906370a082319060240160206040518083038186803b1580156104b257600080fd5b505afa9250505080156104e2575060408051601f3d908101601f191682019092526104df91810190610747565b60015b6105245760405162461bcd60e51b815260206004820152601360248201527221696e636f72726563742075736572496e666f60681b6044820152606401610308565b50505050565b6110fb806107dc83390190565b8035610542816107c3565b919050565b60008083601f84011261055957600080fd5b50813567ffffffffffffffff81111561057157600080fd5b60208301915083602082850101111561058957600080fd5b9250929050565b6000602082840312156105a257600080fd5b81516105ad816107c3565b9392505050565b6000602082840312156105c657600080fd5b81356105ad816107c3565b600080604083850312156105e457600080fd5b82356105ef816107c3565b915060208381013567ffffffffffffffff8082111561060d57600080fd5b818601915086601f83011261062157600080fd5b813581811115610633576106336107ad565b8060051b604051601f19603f83011681018181108582111715610658576106586107ad565b604052828152858101935084860182860187018b101561067757600080fd5b600095505b838610156106a15761068d81610537565b85526001959095019493860193860161067c565b508096505050505050509250929050565b600080600080600080608087890312156106cb57600080fd5b86356106d6816107c3565b955060208701356106e6816107c3565b9450604087013567ffffffffffffffff8082111561070357600080fd5b61070f8a838b01610547565b9096509450606089013591508082111561072857600080fd5b5061073589828a01610547565b979a9699509497509295939492505050565b60006020828403121561075957600080fd5b5051919050565b6020808252825182820181905260009190848201906040850190845b818110156107a15783516001600160a01b03168352928401929184019160010161077c565b50909695505050505050565b634e487b7160e01b600052604160045260246000fd5b6001600160a01b03811681146107d857600080fd5b5056fe608060405234801561001057600080fd5b50600680546001600160a01b031916331790556110c9806100326000396000f3fe608060405234801561001057600080fd5b50600436106100ea5760003560e01c806367206d401161008c578063e1dfb5c011610066578063e1dfb5c0146101c3578063f1068454146101db578063f3fef3a3146101e4578063f7c618c1146101f757600080fd5b806367206d4014610187578063b6b55f251461019a578063c70920bc146101ad57600080fd5b8063432b05cc116100c8578063432b05cc146101475780634641257d146101645780634700d3051461016c5780634cf088d91461017457600080fd5b80631459457a146100ef5780632495a59914610104578063262d615214610134575b600080fd5b6101026100fd366004610ee1565b61020a565b005b600254610117906001600160a01b031681565b6040516001600160a01b0390911681526020015b60405180910390f35b600154610117906001600160a01b031681565b61014f6102e3565b6040805192835260208301919091520161012b565b610102610382565b6101026105e4565b600454610117906001600160a01b031681565b610102610195366004610e9f565b61061d565b6101026101a8366004610f52565b6106cd565b6101b5610705565b60405190815260200161012b565b6000546101179061010090046001600160a01b031681565b6101b560055481565b6101026101f2366004610e51565b610799565b600354610117906001600160a01b031681565b60005460ff16156102595760405162461bcd60e51b815260206004820152601460248201527308585b1c9958591e481a5b9a5d1a585b1a5e995960621b60448201526064015b60405180910390fd5b6006546001600160a01b0316331461027057600080fd5b61027c85858585610906565b600480546001600160a01b0319166001600160a01b03831617905560005460ff166102dc5760405162461bcd60e51b815260206004820152601060248201526f085b9bdd081a5b9a5d1a585b1a5e995960821b6044820152606401610250565b5050505050565b60008060006102f0610975565b6002546040516370a0823160e01b815230600482015291925082916001600160a01b03909116906370a082319060240160206040518083038186803b15801561033857600080fd5b505afa15801561034c573d6000803e3d6000fd5b505050506040513d601f19601f820116820180604052508101906103709190610f6b565b61037a9190610ff7565b939092509050565b60005461010090046001600160a01b031633146103b15760405162461bcd60e51b815260040161025090610fd3565b6103b96109f6565b6002546003546001600160a01b03908116911614610554576003546040516370a0823160e01b81523060048201526000916001600160a01b0316906370a082319060240160206040518083038186803b15801561041557600080fd5b505afa158015610429573d6000803e3d6000fd5b505050506040513d601f19601f8201168201806040525081019061044d9190610f6b565b905080156105525760035460015460405163095ea7b360e01b81526001600160a01b0391821660048201526024810184905291169063095ea7b390604401602060405180830381600087803b1580156104a557600080fd5b505af11580156104b9573d6000803e3d6000fd5b505050506040513d601f19601f820116820180604052508101906104dd9190610e7d565b50600154600354600254604051630ea0c74360e21b81526001600160a01b039283166004820152908216602482015260448101849052911690633a831d0c90606401600060405180830381600087803b15801561053957600080fd5b505af115801561054d573d6000803e3d6000fd5b505050505b505b6002546040516370a0823160e01b81523060048201526000916001600160a01b0316906370a082319060240160206040518083038186803b15801561059857600080fd5b505afa1580156105ac573d6000803e3d6000fd5b505050506040513d601f19601f820116820180604052508101906105d09190610f6b565b905080156105e1576105e181610a4d565b50565b60005461010090046001600160a01b031633146106135760405162461bcd60e51b815260040161025090610fd3565b61061b610b33565b565b60005461010090046001600160a01b0316331461064c5760405162461bcd60e51b815260040161025090610fd3565b6002546001600160a01b0384811691161480159061067857506003546001600160a01b03848116911614155b6106b45760405162461bcd60e51b815260206004820152600d60248201526c34b73b30b634b2103a37b5b2b760991b6044820152606401610250565b6106c86001600160a01b0384168284610b84565b505050565b60005461010090046001600160a01b031633146106fc5760405162461bcd60e51b815260040161025090610fd3565b6105e181610a4d565b600061070f610975565b6002546040516370a0823160e01b81523060048201526001600160a01b03909116906370a082319060240160206040518083038186803b15801561075257600080fd5b505afa158015610766573d6000803e3d6000fd5b505050506040513d601f19601f8201168201806040525081019061078a9190610f6b565b6107949190610ff7565b905090565b60005461010090046001600160a01b031633146107c85760405162461bcd60e51b815260040161025090610fd3565b6002546040516370a0823160e01b81523060048201526000916001600160a01b0316906370a082319060240160206040518083038186803b15801561080c57600080fd5b505afa158015610820573d6000803e3d6000fd5b505050506040513d601f19601f820116820180604052508101906108449190610f6b565b9050818110156108605761086061085b828461100f565b610bd6565b6002546040516370a0823160e01b81523060048201526000916001600160a01b0316906370a082319060240160206040518083038186803b1580156108a457600080fd5b505afa1580156108b8573d6000803e3d6000fd5b505050506040513d601f19601f820116820180604052508101906108dc9190610f6b565b9050808310156108e95750815b600254610900906001600160a01b03168583610b84565b50505050565b60005460ff161561091957610919611052565b600080546001600160a01b03958616610100026001600160a81b031990911617600190811790915580549385166001600160a01b0319948516179055600280549285169284169290921790915560038054919093169116179055565b600480546040516370a0823160e01b815230928101929092526000916001600160a01b03909116906370a082319060240160206040518083038186803b1580156109be57600080fd5b505afa1580156109d2573d6000803e3d6000fd5b505050506040513d601f19601f820116820180604052508101906107949190610f6b565b6004805460408051631e8c5c8960e11b815290516001600160a01b0390921692633d18b91292828201926000929082900301818387803b158015610a3957600080fd5b505af1158015610900573d6000803e3d6000fd5b6002546004805460405163095ea7b360e01b81526001600160a01b0391821692810192909252602482018490529091169063095ea7b390604401602060405180830381600087803b158015610aa157600080fd5b505af1158015610ab5573d6000803e3d6000fd5b505050506040513d601f19601f82011682018060405250810190610ad99190610e7d565b506004805460405163534a7e1d60e11b81529182018390526001600160a01b03169063a694fc3a906024015b600060405180830381600087803b158015610b1f57600080fd5b505af11580156102dc573d6000803e3d6000fd5b6004546001600160a01b0316632e1a7d4d610b4c610975565b6040518263ffffffff1660e01b8152600401610b6a91815260200190565b600060405180830381600087803b158015610a3957600080fd5b604080516001600160a01b038416602482015260448082018490528251808303909101815260649091019091526020810180516001600160e01b031663a9059cbb60e01b1790526106c8908490610c05565b60048054604051632e1a7d4d60e01b81529182018390526001600160a01b031690632e1a7d4d90602401610b05565b6000610c5a826040518060400160405280602081526020017f5361666545524332303a206c6f772d6c6576656c2063616c6c206661696c6564815250856001600160a01b0316610cd79092919063ffffffff16565b8051909150156106c85780806020019051810190610c789190610e7d565b6106c85760405162461bcd60e51b815260206004820152602a60248201527f5361666545524332303a204552433230206f7065726174696f6e20646964206e6044820152691bdd081cdd58d8d9595960b21b6064820152608401610250565b6060610ce68484600085610cf0565b90505b9392505050565b606082471015610d515760405162461bcd60e51b815260206004820152602660248201527f416464726573733a20696e73756666696369656e742062616c616e636520666f6044820152651c8818d85b1b60d21b6064820152608401610250565b843b610d9f5760405162461bcd60e51b815260206004820152601d60248201527f416464726573733a2063616c6c20746f206e6f6e2d636f6e74726163740000006044820152606401610250565b600080866001600160a01b03168587604051610dbb9190610f84565b60006040518083038185875af1925050503d8060008114610df8576040519150601f19603f3d011682016040523d82523d6000602084013e610dfd565b606091505b5091509150610e0d828286610e18565b979650505050505050565b60608315610e27575081610ce9565b825115610e375782518084602001fd5b8160405162461bcd60e51b81526004016102509190610fa0565b60008060408385031215610e6457600080fd5b8235610e6f8161107e565b946020939093013593505050565b600060208284031215610e8f57600080fd5b81518015158114610ce957600080fd5b600080600060608486031215610eb457600080fd5b8335610ebf8161107e565b9250602084013591506040840135610ed68161107e565b809150509250925092565b600080600080600060a08688031215610ef957600080fd5b8535610f048161107e565b94506020860135610f148161107e565b93506040860135610f248161107e565b92506060860135610f348161107e565b91506080860135610f448161107e565b809150509295509295909350565b600060208284031215610f6457600080fd5b5035919050565b600060208284031215610f7d57600080fd5b5051919050565b60008251610f96818460208701611026565b9190910192915050565b6020815260008251806020840152610fbf816040850160208701611026565b601f01601f19169190910160400192915050565b6020808252600a908201526910bb30bab63a31b432b360b11b604082015260600190565b6000821982111561100a5761100a611068565b500190565b60008282101561102157611021611068565b500390565b60005b83811015611041578181015183820152602001611029565b838111156109005750506000910152565b634e487b7160e01b600052600160045260246000fd5b634e487b7160e01b600052601160045260246000fd5b6001600160a01b03811681146105e157600080fdfea26469706673582212205c5608eeea62132103c51414b24e6ecdf154a299a6cdcbcadeeb41acc61bcbb664736f6c63430008060033a2646970667358221220dc7d5947536607b95ce126526bb92c39e10294d67ba143cead34a7cefc131c5164736f6c63430008060033",
  "devdoc": {
    "kind": "dev",
    "methods": {},
    "version": 1
  },
  "userdoc": {
    "kind": "user",
    "methods": {},
    "notice": "Project data: (address masterchef, address rewardToken) Strategy data: (uint256 pid)",
    "version": 1
  },
  "storageLayout": {
    "storage": [
      {
        "astId": 3497,
        "contract": "contracts/factories/FuseFiStakingFactory.sol:FuseFiStakingFactory",
        "label": "zap",
        "offset": 0,
        "slot": "0",
        "type": "t_contract(IZap)5748"
      }
    ],
    "types": {
      "t_contract(IZap)5748": {
        "encoding": "inplace",
        "label": "contract IZap",
        "numberOfBytes": "20"
      }
    }
  }
}